:020000040800F2
:10000000C807002049010008A13100086D2600083A
:10001000312E0008010B0008B13800080000000074
:10002000000000000000000000000000A5310008F2
:100030003B0B000800000000A3310008A7310008B6
:100040006301000863010008630100086301000800
:1000500063010008630100086301000863010008F0
:1000600063010008630100086301000863010008E0
:1000700063010008630100086301000863010008D0
:10008000050B000863010008630100086301000814
:1000900063010008630100086301000863010008B0
:1000A00063010008630100086301000863010008A0
:1000B0000D320008630100086301000863010008B5
:1000C0006301000863010008630100086301000880
:1000D0006301000863010008A538000863010008F7
:1000E0006301000863010008630100086301000860
:1000F0006301000863010008630100086301000850
:10010000630100086301000863010008630100083F
:10011000630100086301000863010008630100082F
:10012000630100086301000863010008630100081F
:10013000DFF810D000F0B8FC00480047C1490008C3
:10014000AFF30080C80700200648804706480047F4
:10015000FEE7FEE7FEE7FEE7FEE7FEE7FEE7FEE777
:10016000FEE7FEE70932000831010008202A04DB1F
:10017000203A21FA02F00021704721FA02F3D04020
:10018000C2F120029140084319467047D2B201E003
:1001900000F8012B491EFBD270470022F6E710B58C
:1001A00013460A4604461946FFF7F0FF204610BDE5
:1001B000F0B480EA0102D40F4200B2EB410F02D248
:1001C0000246084611464A0042D0C30DDDB2C1F3D3
:1001D000C752AD1A202D35DAC1F3160141F40002E1
:1001E00004B15242C5F1200602FA06F12A41104438
:1001F000B3EBD05F23D0C4B1012DA0EBC35009DC19
:10020000F0BC4FF0004202EAC352DBB200F500003E
:1002100000F04BBB400000F1807000EBC350A0F138
:10022000807040EAD170490009E0490841EAC07194
:10023000A0EBC35000F50000400800EBC350F0BC39
:1002400000F02ABB6142012202EB4101001BF6E7EC
:10025000F0BC704781F00041AAE780F00040A7E7BA
:1002600080EA010210B502F00043400022D04A00AB
:100270001FD0010E01EB1261C0F35600C2F356020B
:1002800040F4000042F40002A0FB022000047F3989
:10029000140400D0401C50EA124001D44000491E12
:1002A000C2B20C0604EBD010401C4008802A02D0D9
:1002B00003E0002010BD20F00100002900DA00203A
:1002C000184310BD30B480EA010202F0004530F05E
:1002D000004221F0004013D090B1C30DD40DC2F301
:1002E0001601C0F31600E41A41F4000140F40002C4
:1002F0007D34914201D3641C00E04900002C02DAF5
:1003000030BC002070474FF400000023914201D31D
:10031000891A034340084FEA4101F7D151B1914294
:1003200002D14FF0004105E002D24FF0010101E09F
:100330006FF0010103EBC450284430BC00F0ACBAAC
:10034000420005D0C0F3C7525242914201DC002066
:10035000704700EBC15070472DE9FE4F804681EA9F
:100360000300C00F0C46009021F0004123F000452F
:10037000B8EB0200A94105D24046214690461C46F2
:100380000B46024623F00040104347D0270DC7F329
:100390000A00C3F30A510290401A019040286BDA18
:1003A000C3F3130040F4801B0098924620B1002351
:1003B000D2EB030A63EB0B0B01985946C0F14002E4
:1003C000504600F048FA06460D4650465946019AF6
:1003D00000F050FA10EB08006141002487EA115246
:1003E00084EAE7731A4340D0009A62B3019A012A63
:1003F0004FEA075215DC001B61EB02014FF000428F
:1004000002EA0752CDE90042001C41F58011324654
:100410002B4600F087FA03B0BDE8F08F4046214636
:10042000F9E7001B61EB0201001C41F58013001885
:100430005B412018A2F5001747EB030140EAD57095
:10044000B6196D4111E06D084FEA360645EAC075F0
:100450004FEA0752001B61EB0201001C41F58011BD
:1004600049084FEA30000019514132462B4603B08B
:10047000BDE8F04F00F047BA009801224000002389
:10048000D0EB020263EBE073009821464FEAE07480
:10049000B8EB000061EB0401E9E783F000435BE7A0
:1004A00081F0004158E72DE9FE4F81EA030404F092
:1004B000004421F0004100944FF0000B23F0004372
:1004C00050EA01045ED052EA03045BD0C3F30A543D
:1004D000C1F30A552C44A4F2F3340194A0FB025456
:1004E000C1F3130141F48011C3F3130343F48013E8
:1004F00001FB024400FB034E840A970A44EA81543C
:1005000047EA8357A4FB076802958D0A05FB078518
:100510004FEA932C04FB0C542705029D4FEA065822
:1005200047EA1637B5EB08056EEB070C870E920EFF
:1005300047EA811742EA8312A7FB0201B6EB0B01DF
:1005400064EB00042B0D43EA0C335E1844EB1C50A3
:10055000DA465146E7FB0201C5F313044FEA0B33B9
:1005600043EA14534FEA0432019C43EA0603A4F120
:100570000C040294009CCDE900B400F0D3F903B060
:10058000BDE8F08F00200146F9E72DE9F04D81EA42
:10059000030404F0004B21F0004514464FF0000A1C
:1005A00023F0004150EA050220D054EA01021DD098
:1005B000C5F30A570246C5F31303C1F31300C1F391
:1005C0000A5640F4801543F48013A7EB0608101B6D
:1005D000D64608F2FD3873EB050002D308F1010896
:1005E00001E092185B41B8F1000F03DA00200146E8
:1005F000BDE8F08D00204FF48011064684460EE0E1
:10060000171B73EB050705D3121B63EB05030643AA
:100610004CEA010C49084FEA300092185B4150EA5D
:100620000107EDD152EA030012D082EA040083EA06
:100630000501084305D0101BAB4106D2012200235F
:1006400006E000224FF0004302E06FF00102531079
:100650001AEB06004CEB085110EB0A0041EB0B01C2
:10066000BDE8F04D00F04FB970B521F000430343F1
:100670000CD0C1F30A550024D5EB040564EB040348
:10068000D617AD1AB34102DB0020014670BD201819
:1006900041EB025170BDC10F80EAE0700844CA0707
:1006A0009623002100F001B996230022114600F0A4
:1006B000FCB80EB5C10F80EAE0700844CA070021FB
:1006C00040F233438DE80E000A460B4600F02AF94B
:1006D00003B000BD0EB540F2334102910021CDE9D7
:1006E00000110A460B4600F01DF903B000BD20F0D2
:1006F0000040C10DC0F3160040F400007F2901DA6C
:1007000000207047962903DCC1F19601C84070476C
:1007100096398840704770B5C1F30A5201F0004520
:100720000024C1F3130140F2FF3341F480119A42D7
:1007300001DA002070BD40F233439A42A2F2334204
:1007400003DC5242FFF712FD00E090402C43F1D051
:10075000404270BD00F0004230F000400AD0C10DB0
:1007600001F56071C0F3160042EA0151C20840076A
:100770001143704700200146704701F0004330B438
:1007800021F0004150EA010206D00A0DA2F5607284
:10079000C1F31301002A02DC30BC00207047440F73
:1007A00044EAC104C100E01830BC00EBC25000F0C4
:1007B00073B80000002801DBC0F10040002901DB14
:1007C000C1F100418842704730B50B460146002018
:1007D0002022012409E021FA02F59D4205D303FA03
:1007E00002F5491B04FA02F52844151EA2F1010284
:1007F000F1DC30BD2DE9F05F0546002092469B46B6
:1008000088460646814640241BE028464146474626
:100810002246FFF7ABFC53465A46C01A914110D30B
:1008200011461846224600F016F82D1A67EB01080B
:100830004F4622460120002100F00DF817EB000979
:100840004E41201EA4F10104DFDC484631462A4611
:100850004346BDE8F09F202A04DB203A00FA02F16B
:10086000002070479140C2F1200320FA03F319439E
:1008700090407047202A06DBCB17203A41FA02F05D
:1008800043EAE07306E041FA02F3D040C2F12002ED
:1008900091400843194670470029A8BF7047401C83
:1008A000490008BF20F00100704710B4B0FA80FC86
:1008B00000FA0CF050EA010404BF10BC704749B1C3
:1008C000CCF1200421FA04F411FA0CF118BF012133
:1008D00021430843A3EB0C01CB1D4FEA00614FEA13
:1008E000102042BF002010BC704700EBC3501044E2
:1008F0000029A4BF10BC7047401C490008BF20F06D
:10090000010010BC704710B5141E73F1000408DA22
:10091000401C41F1000192185B411A4301D120F0C3
:10092000010010BD2DE9F04D92469B4611B1B1FA80
:1009300081F202E0B0FA80F220329046FFF78BFF9E
:1009400004460F4640EA0A0041EA0B0153465A4664
:10095000084313D0114653EA010019D0C8F14002F0
:100960005046FFF703FC05460E46504659464246A0
:10097000FFF771FF084305D0012004E02046394607
:10098000BDE8F08D0020054346EAE0762C4337436E
:100990000A986305E40AA0EB08000022FD0A44EA75
:1009A00047540A3002D500200146E9E70105101935
:1009B0006941DDE9084500196941BDE8F04DA2E74C
:1009C0002DE9FE4FC3F30A5701F000450024C1F39F
:1009D0000A56C3F31303C1F3130143F4801312EB5C
:1009E000020AA64641F48011009543EB030CA7F1DF
:1009F000010B16E0B0EB0A0061EB0C01071E71F170
:100A0000000707DA4FF00008D0EB080085F000453A
:100A100068EB0101171A73EB0107EBD3761E001880
:100A200049415E45F6DA50EA010209D0CDE900E518
:100A3000002213460296FFF775FF03B0BDE8F08F62
:100A400020460099F9E7C1F30A52C1F3130140F2BD
:100A5000FF3341F480119A4202DA002001467047C8
:100A600040F233439A42A2F2334202DC5242FFF791
:100A70007DBBFFF7F0BE000030B5041E71F100042D
:100A800004DB4FF00044404264EB0101141E73F19B
:100A9000000405DB1C464FF00043524263EB0403A5
:100AA000994208BF904230BD064C074D06E0E06811
:100AB00040F0010394E8070098471034AC42F6D3A5
:100AC000FFF73AFB284D0008484D00080A2202496A
:100AD000024801F04FBD00009403002008030020ED
:100AE0000021016041608160034AC160C0E90412D5
:100AF000024AC0E9062170478FC275BC0AD7A33BE2
:100B0000FEE70000014800F0A5B9000050030020F6
:100B100030B590F840500124AC40C56B6C6004685F
:100B200063604368102B036803D099600068C2605B
:100B300030BD9A600068C16030BD704710B50122B9
:100B40001102084800F033FC074C01222021204606
:100B500000F02DFC20460122BDE81040082100F0E5
:100B600026BC0000000801400010014072B6FEE7FC
:100B700080F82430C0E911120021816201604160D7
:100B80008160C160016141618161C161C1620163D4
:100B900041638163C1630164C1647047014981623B
:100BA00070470000E4CB9640054A06485188016032
:100BB000002141600221C1600146906800F0F6BA50
:100BC00030000020B8030020064A07485188016021
:100BD00001214160002181600221C16001469068CD
:100BE00000F0E4BA30000020B8030020012903D04F
:100BF000022903D0806870470068704740687047DA
:100C00002DE9F041054648790C460002097900B209
:100C10000843FFF740FD6FF00E063146FFF790FBEB
:100C2000154F3946FFF71CFB3946FFF7C1FA28601C
:100C3000E079A179000200B20843FFF72CFD3146AC
:100C4000FFF77EFB3946FFF70BFB3946FFF7B0FA9B
:100C50006860607A217A000200B20843FFF71BFD4A
:100C60003146FFF76DFB3946FFF7FAFA3946FFF7D1
:100C70009FFAA860BDE8F0810000344338B504460F
:100C80000020009008484FF480730246411501F09F
:100C9000D5FDFFF772FD20620346D4E91110A26A68
:100CA00003F0B7FDE06138BD000C014038B50446E3
:100CB0000020009008484FF480730246411501F06F
:100CC000BDFDFFF75AFD0346D4E91110A26A03F0F7
:100CD000A0FDA06238BD0000000C014010B590F8E6
:100CE00021100022022905D00421816380F82020F0
:100CF000012010BD01680B6823F00E030B60016832
:100D00000B6823F001030B6090F84030C46B0121A5
:100D100001FA03F3636080F8211080F82020104668
:100D200010BD00002DE9F05F90F821100024022989
:100D300003D004218163012485E001680A6822F060
:100D40000E020A6001680A6822F001020A603F4E42
:100D50003E4FB215DFF8F4C0DFF8F090DFF8ECA0FA
:100D6000DFF8E8B0DFF8E4E00168783F130115022E
:100D7000ACF1640CA9F15009AAF13C0AABF1280BC3
:100D8000AEF1140E4FF48018B14227D9B9420ED0FB
:100D9000614512D049451DD0514518D0594518D04C
:100DA000714501D1424615E0294EB14201D10122DF
:100DB00010E0274E1436B14201D110220AE0244E31
:100DC0002836B14206D0224A3C32914201D11A461D
:100DD00000E02A461E49091F0A602BE0B94213D0E1
:100DE000614517D0494522D051451DD059451DD0E8
:100DF000714501D142461AE0B14202D14FF08072F2
:100E000015E0134EB14201D1012210E0104E14360C
:100E1000B14201D110220AE00D4E2836B14206D06F
:100E20000B4A3C32914201D11A4600E02A4607495A
:100E300080394A60012180F82110002180F82010BB
:100E4000416B01B188472046BDE8F09F8000024019
:100E5000080402402DE9F05FC16B0A6801680B6865
:100E6000046C4FF0040808FA04F8844D844E854F52
:100E7000DFF814C2DFF81492DFF814A2DFF814B21E
:100E8000DFF814E218EA020F65D05FEA437862D512
:100E90000A68920603D40A6822F004020A60DFF8A6
:100EA000F0814FF48062016808F114081301140204
:100EB000414524D9A9420DD0B1420FD0B9421AD030
:100EC000614515D0494515D0514501D1120312E0B5
:100ED000594501D104220EE0714501D140220AE0BA
:100EE0006D4D1435A94206D06B4A2832914201D18A
:100EF0001A4600E022466749091F0A6029E0A94214
:100F000013D0B14215D0B94220D061451BD049451C
:100F10001BD0514502D14FF4800217E0414502D168
:100F20004FF0806212E0594501D104220EE0714574
:100F300001D140220AE0584D1435A94206D0564A44
:100F40002832914201D11A4600E022464B49083925
:100F50004A60C16A71E04FF0020808FA04F818EA22
:100F6000020F70D05FEA83786DD50A68920606D4C6
:100F70000A6822F00A020A60012180F82110DFF8D5
:100F800010814FF40072016808F114081301140273
:100F9000414524D9A9420DD0B1420FD0B9421AD04F
:100FA000614515D0494515D0514501D1120312E0D4
:100FB000594501D102220EE0714501D120220AE0FB
:100FC000354D1435A94206D0334A2832914201D119
:100FD0001A4600E022462F49091F0A6029E0A9426B
:100FE00013D0B14215D0B94220D061451BD049453C
:100FF0001BD0514502D14FF4001217E0414502D1F8
:101000004FF0007212E0594501D102220EE0714505
:1010100001D120220AE0204D1435A94206D01E4AF3
:101020002832914201D11A4600E02246134908397C
:101030004A60002180F82010816A00291CD0BDE898
:10104000F05F0847FFE70825A540154214D01A07AE
:1010500012D50A6822F00E020A6090F84020C36B95
:10106000012101FA02F25A60816380F82110002107
:1010700080F82010016BE0E7BDE8F09F0800024017
:101080001C00024030000240440002405800024070
:101090006C000240080402401C04024030B560B1FC
:1010A0001A4B026814219A4209D2194B1344B3FB1C
:1010B000F1F18900016417490AE0012030BD134BAA
:1010C0005B421344B3FBF1F1890001640F49083915
:1010D000C163022180F82110136843F6F0718B433D
:1010E000F0E901142143D0E902452C43214304696E
:1010F000214344692143846921431943116000213C
:101100004163012242770177084630BD080402405E
:10111000F8FFFDBF0000024070B5044690F82000C3
:10112000002501280CD0012084F8200094F82160CB
:101130000020012E06D084F820000225284670BD2C
:10114000022070BD022684F82160A0632068066832
:1011500026F0010606602046FFF7DAFCE06A002868
:101160002068016802D041F00E0106E021F0040180
:1011700001602068016841F00A010160206801688F
:1011800041F001010160D9E770B5044600F014F99F
:101190000546601C02D004480078044400F00CF9B5
:1011A000401BA042FAD370BD040000202DE9F84F87
:1011B000DFF8C8910024A9F1040B23460F2709F199
:1011C000040AABF1040ED1E00125A54006EA0502B0
:1011D000AA4276D1DFF8A8C14E68A6EB0C08664596
:1011E0002BD00DDC032E34D005DC36B3012E19D004
:1011F000022E2FD11BE0112E16D0122E2AD119E06B
:10120000B8F5881F19D006DCB8F5803F15D0B8F5C1
:10121000801F1FD111E0B8F5001F0ED0B8F5041FD4
:1012200018D10AE0CB6815E0CB681B1D12E0CB6833
:1012300008330FE0CB680C330CE08B682BB1012B2B
:101240004FF0080303D0456104E0042302E0056188
:1012500000E00023FF2A01D8064601E000F1040661
:101260004FEA840501D9A5F12005D6F8008007FAD8
:1012700005FC28EA0C0803FA05F548EA0508C6F853
:1012800000804D68ED0070D53E4DAE6946F0010618
:10129000AE61AD6924F0030605F0010500953A4DF5
:1012A00006EB050CDCF80850A607360F07FA06F81F
:1012B00025EA0805DFF8D480404503D14FF0000847
:1012C00025E052E0DFF8C880404502D14FF0010828
:1012D0001DE0DFF8C080404502D14FF0020816E063
:1012E000DFF8B480404502D14FF003080FE0DFF88B
:1012F000AC80404502D14FF0040808E0DFF8A08040
:10130000404502D14FF0050801E04FF0060808FA09
:1013100006F848EA0508CCF808804D68D9F800605E
:10132000ED024D4601D5164300E096432E604D6810
:10133000DAF80060AD02554601D5164300E0964349
:101340002E604D68DBF80060AD035D4601D51643A5
:1013500000E096432E604D68DEF80060ED037546B0
:1013600001D5164300E096432E60641C0A681646B9
:10137000E2407FF429AFBDE8F88F00000804014087
:101380000000111000100240000001400008014060
:10139000000C014000100140001401400018014001
:1013A000001C01408068084000D0012070470AB14D
:1013B000016170470904FBE701488068704700003D
:1013C000040000200248816802781144816070475F
:1013D00004000020074810B5016841F010010160C9
:1013E000032000F075F80F2000F006F800F024F854
:1013F000002010BD0020024070B50D4D04464FF492
:101400007A712878B1FBF0F00A490968B1FBF0F075
:1014100000F00CFB48B9102C07D200222146501EC8
:1014200000F036F800206C6070BD012070BD000037
:1014300004000020100000200C4808B5816941F02C
:1014400001018161816901F001010091C16941F0EF
:101450008051C161C06900F080500090044841682B
:1014600021F0E06141F00071416008BD00100240D0
:1014700000000140002809DB00F01F02012191401B
:101480004009800000F1E020C0F800117047000022
:10149000F0B40E4B1B680C46C3F30223C3F10705DF
:1014A000042D00D90425191D072901D2002300E0CD
:1014B000DB1E012606FA05F1491E214099409E4097
:1014C000761E16403143F0BC02F018BA0CED00E075
:1014D000064900F0070208684FF6FF03184040EA8B
:1014E0000220034A10430860704700000CED00E042
:1014F0000000FA052DE9F0470F46050061D0434E84
:10150000306800F00700B84209D2306820F00700C8
:1015100038433060306800F00700B84251D1286885
:101520003B4C810712D5400703D5606840F4E0606A
:1015300060602878000703D5606840F46050606000
:101540006068A96820F0F000084360602878C00750
:1015500028D06868012810D02168022810D0890797
:1015600000292EDA616821F0030101436160FFF771
:1015700023FF804641F288390DE021688903EFE7B7
:101580008901EDE7FFF718FFA0EB0801494502D9F3
:101590000320BDE8F0876068696800F00C00B0EBDC
:1015A000810FEFD1306800F00700B8420BD93068E6
:1015B00020F0070038433060306800F00700B84280
:1015C00001D00120E5E72878400705D56068E96883
:1015D00020F4E060084360602878000706D5606862
:1015E000296920F4605040EAC100606000F038F8DA
:1015F0006168084AC1F30311515CC840064908609C
:1016000006480068FFF7F8FE0020C2E7002002400D
:1016100000100240EE4B00081000002008000020DF
:101620000448054900684968044AC1F30221515C35
:10163000C84070471000002000100240FE4B000818
:101640000448054900684968044AC1F3C221515C55
:10165000C84070471000002000100240FE4B0008F8
:101660000E4A51680E4801F00C03042B11D0082BD0
:101670000FD10C48C1F38343C903C05C0AD551683C
:10168000084AC1F34041921E515C054A5043B0FBE9
:10169000F1F07047044948437047000000100240D1
:1016A00000127A00DE4B000800093D002DE9F84FDA
:1016B000040070D02078C04DC00749D06868C0F3DE
:1016C0008100012807D06868C0F38100022809D191
:1016D0006868C00306D52868800339D5606800288B
:1016E000E7D035E06068B0F5803F0BD010B1B0F5C1
:1016F000A02F11D0286820F480302860286820F4BA
:10170000802002E0286840F480302860606890B152
:10171000FFF752FE06460AE0286840F48020286061
:10172000F0E700BFFFF748FE801B642873D82868E5
:101730008003F7D50CE0FFF73FFE064605E000BF4B
:10174000FFF73AFE801B6428F0D828688003F7D49E
:1017500020789A4E80074FF001094FF0000839D5E4
:10176000686810F00C0F07D06868C0F38100022889
:1017700009D16868C00306D42868800714D5206999
:10178000012808D110E02069B0B1C6F80090FFF739
:1017900013FE074605E00AE1FFF70EFEC01B022814
:1017A000C4D828688007F7D52868616920F0F80058
:1017B00040EAC10028600DE0C6F80080FFF7FCFD9C
:1017C000074604E0FFF7F8FDC01B022823D828686D
:1017D0008007F7D4207800072CD57948A169D9B1C2
:1017E000C0F80090FFF7E8FD074604E0FFF7E4FDCE
:1017F000C01B02280FD8686A8007F7D571484FF4DC
:10180000FA510068B0FBF1F0009000BF0098411E53
:101810000091FAD20EE080E0C0F80080FFF7CCFD26
:10182000074604E0FFF7C8FDC01B022875D8686AA8
:101830008007F7D42078400760D5E8690027C0000A
:1018400008D4E86940F08050E861E869012700F0B9
:10185000805000905C480168C90513D40168834634
:1018600041F480710160FFF7A7FD824606E000BFEA
:10187000FFF7A2FDA0EB0A0064284ED8DBF80000B9
:10188000C005F5D5E06801280AD008B1052813D0B5
:10189000286A20F001002862286A20F0040002E093
:1018A000286A40F001002862E06841F2883B98B164
:1018B000FFF782FD82460BE0286A40F004002862B0
:1018C000EEE700BFFFF778FDA0EB0A0159455AD8B3
:1018D000286A8007F6D50CE0FFF76EFD824605E02A
:1018E000FFF76AFDA0EB0A0159454CD8286A80072A
:1018F000F6D41FB1E86920F08050E861E06988B350
:101900006968C1F38101022944D00228C6F86080C9
:1019100004D0FFF751FD044638E034E0FFF74CFDFA
:10192000074604E0FFF748FDC01B02282BD82868B3
:101930008001F7D4206AB0F5803F05D16868A168BE
:1019400020F4003008436860D4E90801084369685E
:1019500021F4741108436860C6F86090FFF72CFD0D
:10196000044606E025E000BFFFF726FD001B022825
:1019700009D828688001F7D51BE000BFFFF71CFDE0
:10198000001B022802D90320BDE8F88F28688001D7
:10199000F4D40EE00128F7D06868226A00F48031A0
:1019A000914204D1616A00F47010884201D0012094
:1019B000EAE70020E8E70000001002400000424291
:1019C00080044242100000200070004010B50C213D
:1019D000124800F077FB0021114800F073FB04214E
:1019E0000F4800F06FFB08210E4800F06BFB0C2144
:1019F0000C4800F067FB04210A4800F063FB00215B
:101A0000084800F05FFB0421074800F05BFBBDE8DD
:101A100010400021044800F055BB0000780200206F
:101A2000E8010020A00100203002002010B5401E77
:101A3000B0F1807F01D3012010BD4FF0E024606140
:101A40000F21601701F05AFF0020A06107202061DC
:101A5000002010BD7047704710B590F83C20012A57
:101A600022D0012280F83C20CA688C6822F440729F
:101A700022434C6822F4806222430C6822F4006204
:101A800022430C6922F4805222434C6922F4005212
:101A90002243C969002322F480420A4301684A6450
:101AA00080F83C30002010BD022010BD70B590F8C9
:101AB0003C20012A2CD0012480F83C40022280F8EE
:101AC0003D2003685A689D6822F070060A68324318
:101AD0005A60104B02689A420ED00F4B9A420BD0BC
:101AE000B2F1804F08D00D4B9A4205D00C4B9A4270
:101AF00002D00C4B9A4204D1496825F08003194367
:101B0000916080F83D40002180F83C10084670BD8F
:101B1000022070BD002C0140003401400004004050
:101B200000080040000C004010B5040003D094F8F9
:101B30003D0010B107E0012010BD002084F83C00FA
:101B4000204600F01FF8022084F83D00211D206887
:101B500001F062FB012084F8460084F83E0084F81E
:101B60003F0084F8400084F8410084F8420084F883
:101B7000430084F8440084F8450084F83D000020C8
:101B800010BD000008B50068B0F1804F12D10A48BE
:101B9000C16941F00101C161C069002200F001008A
:101BA000009011461C20FFF773FCBDE808401C2084
:101BB000FFF760BC08BD00000010024090F83D1027
:101BC000012901D001207047022180F83D100168F1
:101BD000CA6842F00102CA6000680E4988420ED00D
:101BE0000D4988420BD0B0F1804F08D00B49884294
:101BF00005D00B49884202D00A49884204D1816845
:101C000001F00701062903D0016841F001010160DC
:101C100000207047002C01400034014000040040C7
:101C200000080040000C004070B5044690F83C00ED
:101C30000025012817D0012684F83C60022084F892
:101C40003D002068826822F0770222F47F428260A1
:101C50000868502838D00DDC20284FD005DC90B320
:101C6000102811D14AE0022070BD302846D040280B
:101C70000AD13BE060282FD070280DD0B0F5805FEE
:101C800003D0B0F5005F12D0012584F83D6000203C
:101C900084F83C00284670BDCB68D1E9012120685A
:101CA00001F015FB2068816841F0770109E0CB68FD
:101CB000D1E90121206801F00AFB2068816841F424
:101CC00080418160E1E719E0CA684968206801F055
:101CD000D3FB5021206806E0CA684968206801F0FB
:101CE000DCFB6021206801F0FCFACEE7CA68496895
:101CF000206801F0C1FB40212068F4E7226801461A
:101D00001046F0E770472DE9F04104460068C668C8
:101D100005694FF00007A90713D5B10711D5F91EC2
:101D2000016101202077206880698007204602D069
:101D3000FFF7E8FF04E000F0F5F8204600F0C0F9F6
:101D40002777680716D5700714D521686FF004004F
:101D50000861022020772068806910F4407F2046C7
:101D600002D0FFF7CFFF04E000F0DCF8204600F0DF
:101D7000A7F92777280715D5300713D521686FF005
:101D800008000861042020772068C0698007204689
:101D900002D0FFF7B7FF04E000F0C4F8204600F0DF
:101DA0008FF92777E80616D5F00614D521686FF06D
:101DB00010000861082020772068C06910F4407F77
:101DC000204602D0FFF79EFF04E000F0ABF820466B
:101DD00000F076F92777E80708D0F00706D02168E9
:101DE0006FF001000861204600F0C6F9280608D50A
:101DF000300606D521686FF0800008612046FFF7A5
:101E000029FE680608D5700606D521686FF04000E7
:101E10000861204600F0C4F9A8060AD5B00608D526
:101E200021686FF0200008612046BDE8F041FFF70F
:101E300012BEBDE8F0810000F0B585B00021009130
:101E400001910291039100682E4F2F49C023022473
:101E50002E4A03252E4EB8421BD1886940F004005B
:101E60008861886900F004000490886940F00800E7
:101E700088618869CDE9003400F00800CDE90340AD
:101E800069461046FFF792F9CDE90054694603947C
:101E90000EE0204FB84211D1886940F008008861F7
:101EA0008869CDE9003400F00800CDE903406946B7
:101EB0004FEA0600FFF77AF905B0F0BD164B9842DD
:101EC0000DD1886940F0040088618869CDE900542B
:101ED00000F00400CDE9034069461046EAE70F4AE6
:101EE0009042E9D1886940F01000886188696946AC
:101EF00000F0100004905015CDE900040848039448
:101F0000D8E7000000040040001002400008014033
:101F1000000C014000080040000C0040003401406B
:101F200000100140704770B5044690F83C00002650
:101F30000D4601280FD0012084F83C006AB1042A24
:101F40001DD0082A2FD00C2A3FD00126002084F86B
:101F50003C00304670BD022070BD206801F0CAF917
:101F60002068816941F0080181612068816921F060
:101F700004018161206881692A69114311E02068A8
:101F800001F0E8F92068816941F40061816120680D
:101F9000816921F480618161206881692A6941EA4F
:101FA00002218161D2E7206801F00AFA2068C16944
:101FB00041F00801C1612068C16921F00401C161DB
:101FC0002068C1692A69114311E0206801F02CFAE8
:101FD0002068C16941F40061C1612068C16921F4D0
:101FE0008061C1612068C1692A6941EA0221C16139
:101FF000ACE710B5040003D094F83D0010B107E041
:10200000012010BD002084F83C00204600F01EF89E
:10201000022084F83D00211D206801F0FDF8012018
:1020200084F8460084F83E0084F83F0084F84000BD
:1020300084F8410084F8420084F8430084F84400A6
:1020400084F8450084F83D00002010BD08B5174A0B
:1020500001681748914207D1C16941F00201C1618D
:10206000C06900F0020009E0124A914208D1C1693A
:1020700041F00401C161C06900F00400009008BD96
:102080000D4A914207D1C16941F00801C161C0699F
:1020900000F00800F2E7094A9142F0D1816941F469
:1020A00000518161806900F40050E7E700040040BE
:1020B0000010024000080040000C004000340140C5
:1020C0007047000010B50446022249B104290ED021
:1020D000082913D094F84100012816D0012010BD22
:1020E00094F83E000128F9D184F83E200FE094F8DE
:1020F0003F000128F2D184F83F2008E094F8400026
:102100000128EBD184F8402001E084F8412001222D
:10211000206801F0CFF813492068134A884201D0A3
:10212000904203D1436C43F40043436420688842E7
:102130000DD090420BD0B0F1804F08D00B498842AF
:1021400005D00B49884202D00A49884204D18168EF
:1021500001F00701062903D0016841F00101016087
:10216000002010BD002C014000340140000400405C
:1021700000080040000C0040074910B5884209D112
:102180000648FEF77BFDBDE810404FF08041034854
:1021900000F0CCBE10BD0000580100204800002017
:1021A0007047704770470000F8B50168044608683A
:1021B000CA684B6910F00F0F4FF0000559D003F0BB
:1021C000010602F49077374365D0C10705D0D105E9
:1021D00003D5616C41F001016164410705D5D90760
:1021E00003D0616C41F002016164810705D5D90714
:1021F00003D0616C41F004016164010707D502F06E
:102200002001314303D0616C41F008016164616CCD
:1022100000293AD0800604D5900602D5204601F068
:1022200002FA20684069616CC0F38010090700D48D
:1022300060B3204601F0C2F920684069400621D50C
:102240002068143050E8001F21F0400140E80012DF
:10225000002AF5D1E06BA8B16D494163E06BFEF750
:1022600061FD002811D0E06B416B01B0BDE8F0408A
:10227000084783060FD593060DD52046BDE8F840E4
:1022800001F0D1B92046FFF78DFFF8BD2046FFF7DA
:1022900089FF6564F8BD266B2023012E7CD1C6061C
:1022A0007AD5D60678D508684868009048694FF016
:1022B0000206400640D5E16B086840680004000C47
:1022C000E8D0A28D8242E5D9E085886920282DD00A
:1022D00020680C3050E8001F21F4807140E80012A3
:1022E000002AF5D12068143050E8001F21F00101C8
:1022F00040E80012002AF5D12068143050E8001F91
:1023000021F0400140E80012002AF5D184F8423063
:10231000256320680C3050E8001F21F0100140E8D0
:102320000012002AF5D1E06BFEF7D8FC6663A08DA1
:10233000E18D401A81B22AE0A08DE18D401A81B270
:10234000E08D0028A6D00029A4D022680C3252E8E3
:10235000000F20F4907042E80007002FF5D12068AC
:10236000143050E8002F22F0010240E80027002F2F
:10237000F5D184F84230256320680C3050E8002FF6
:1023800022F0100240E80023002BF5D166632046BE
:10239000FFF707FFF8BDFFE705062BD5150629D582
:1023A00094F841002128F5D1A068B0F5805F01D1F3
:1023B0002069B0B1206A411C216221680078486020
:1023C000E08C401E0004000CE084E3D12068C1686A
:1023D00021F08001C1602068C16841F04001C16006
:1023E000D8E7206A0088C0F308004860206A801C93
:1023F0002062E5E74006CDD55006CBD5CA68204619
:1024000022F04002CA6084F8413000F02EF9C1E7A2
:10241000BF34000870B5040004D094F841000025D2
:1024200010B106E0012070BD84F84050204600F055
:1024300023F8242084F841002068C16821F4005169
:10244000C160204601F050F92068016921F49041F3
:1024500001612068416921F02A0141612068C16859
:1024600041F40051C1606564202084F8410084F883
:1024700042006563002070BDF0B585B00024009473
:102480000194029403940646344F036834490222AF
:102490000320344DBB4221D18B6943F480438B61CF
:1024A0008B6903F4804304938B6943F004038B61CD
:1024B0008969039001F0040104911102CDE9001231
:1024C00069462846FEF772FE2815CDE900046946E4
:1024D00028460294FEF76AFE05B0F0BD224FBB42CB
:1024E000FAD1CB6943F40033CB61CB6903F40033F9
:1024F00004938B6943F004038B618969039001F0B5
:10250000040104910421CDE9001269462846FEF732
:102510004DFE0820CDE90004694628460294FEF7E6
:1025200045FE134D1148C5E900048020C5E902406D
:102530002C616C61AC612846EC61FEF7AFFD08B11F
:10254000FEF714FBF5630022012126206E62FEF7E0
:102550009FFF2620FEF78EFFBEE7000000380140F7
:102560000010024000080140004400406C0002409E
:102570005003002090F84230202B01D002207047F9
:1025800021B11AB10023036301F00AB90120704799
:1025900010B50068084988420DD1084800F068F875
:1025A000074900B101200870BDE810400A22034924
:1025B0000448FFF7DFBF10BD004400409403002033
:1025C0002C0000200803002070472DE9F843044642
:1025D00090F84100984616460D46202802D0022069
:1025E000BDE8F88385B17EB100206064212084F8C5
:1025F0004100FEF7E1FEA6848146E684A06820271C
:10260000B0F5805F02D003E00120E9E7206910B156
:102610002E4600250EE000260CE08021204601F029
:1026200007F9A8B9C6B116F8010B21684860E08C1B
:10263000401EE084E08C4B464FF00002CDF8008055
:102640000028EAD14FF04001204601F0F1F840B1F6
:1026500084F841700320C3E735F8020BC0F308008B
:10266000E3E784F841700020BAE77047FEE7000016
:1026700010B50178552908D14178552905D18178BF
:10268000012902D1C178062901D0002010BD0146E0
:102690000248FEF7B5FA012010BD0000A00300209B
:1026A0002DE9F0410546114817460E464068FDF7F2
:1026B000FBFF04462946FDF7D3FDFEF718F80C4949
:1026C0000968486320463146FDF7CAFDFEF70FF85A
:1026D000084D2968886320463946FDF7C1FDFEF79D
:1026E00006F829684863BDE8F08100001800002062
:1026F000A0010020300200202DE9F04105461048DD
:1027000017460E464068FDF7CFFF04462946FDF701
:10271000A7FDFDF7ECFF0B4D2968C8632046314645
:10272000FDF79EFDFDF7E3FF296808642046394662
:10273000FDF796FDFDF7DBFF29688863BDE8F081B2
:1027400018000020A00100202DE9F04105461148A5
:1027500017460E464068FDF7A7FF04462946FDF7D9
:102760007FFDFDF7C4FF0C49096808642046314627
:10277000FDF776FDFDF7BBFF084D2968486320464D
:102780003946FDF76DFDFDF7B2FF29688863BDE8A6
:10279000F08100001800002078020020E8010020ED
:1027A00070B50025FEF700FA0D4C0122A188E06803
:1027B000FEF7FDFD0A2000F0D9FC6188A068FEF755
:1027C000F1FD012800D101250022A188E068FEF773
:1027D000EEFD0A2000F0CAFCFEF7F6F9284670BDAF
:1027E0003000002070B50024FEF7DEF9124E0025FF
:1027F0006006040E0122B188F068FEF7D8FD0A20B9
:1028000000F0B4FC7188B068FEF7CCFD012800D060
:10281000002004430022B188F068FEF7C8FD0A20BA
:1028200000F0A4FC6D1CEDB2082DE1D3012000F0F6
:1028300065F8204670BD00003000002070B52B4CBC
:10284000049EA0606180E260A3800C20207000F0F4
:10285000A5F8207800F078F8032000F075F800F073
:102860009DF8207840F0010000F06EF8FFF7BAFF05
:10287000054600F0B7F800F091F8207800F064F811
:10288000042000F061F800F089F8207840F00100A1
:1028900000F05AF8FFF7A6FF044600F0A3F804EB97
:1028A0000520134D80086FF00D0456B1FDF712FF9F
:1028B00000222B46FDF7F7FD2246BDE87040FDF7EC
:1028C000D3BEFDF707FF00222B46FDF7ECFD2246A5
:1028D000FDF7CAFE4FF0C042064BFDF7E4FDBDE830
:1028E00070400022044BFDF750BE00003000002075
:1028F00000807640FB2109400080664070B50546A7
:10290000FEF762F90F4C012D18D0002D18D10022CE
:102910006188A068FEF74BFD0122A188E068FEF700
:1029200046FD0A2000F022FC0022A188E068FEF7A4
:102930003EFDBDE870400A2000F018BC0122E7E728
:1029400070BD00003000002070B5134C0646002515
:10295000300601D5012200E000226188A068FEF760
:1029600026FD7006060E0122A188E068FEF71FFD15
:102970000A2000F0FBFB0022A188E068FEF717FDAB
:102980000A2000F0F3FB6D1CEDB2082DE0D3BDE88A
:102990007040FFF705BF00003000002010B5104C5C
:1029A00001226188A068FEF702FD0122A188E0688B
:1029B000FEF7FDFC0A2000F0D9FB00226188A06828
:1029C000FEF7F5FC0A2000F0D1FB0022A188E068A8
:1029D000FEF7EDFCBDE810400A2000F0C7BB000088
:1029E0003000002010B50C4C00226188A068FEF772
:1029F000DEFC0122A188E068FEF7D9FC0A2000F085
:102A0000B5FB01226188A068FEF7D1FCBDE810404B
:102A10000A2000F0ABBB000030000020094808B5D8
:102A2000416941F0010141614069002200F001006B
:102A3000009011461020FEF72BFDBDE80840102045
:102A4000FEF718BD001002402DE9F04F85B00024BC
:102A50002E480094019402940394816941F010017E
:102A60008161816901F010010491816941F02001C7
:102A70008161816901F020010491816941F00401C3
:102A80008161816901F004010491816941F00801CB
:102A900081618069DFF8789000F0080042F2280533
:102AA0000490002229464846FEF781FCDFF864A026
:102AB0004FF48077002239465046FEF778FCDFF865
:102AC00058B04FF44078012241465846FEF76FFC5B
:102AD0000095022601250396CDE901546946484632
:102AE000FEF764FB00970396CDE901546946504612
:102AF000FEF75CFBCDF800800396CDE901546946F2
:102B00005846FEF753FB05B0BDE8F08F00100240B9
:102B10000010014000080140000C014010B586B0D3
:102B200000241748009401940294039404944FF0F5
:102B300080410594016041F61F41C0E90114312133
:102B4000C0E9031480218161FEF7EEFF08B1FEF7B2
:102B50000DF84FF48050009069460948FFF764F87B
:102B600008B1FEF703F8049404A905480594FEF79C
:102B70009DFF002801D0FDF7F9FF06B010BD000051
:102B80005801002010B58AB0002407941C21684623
:102B90000894FDF702FB22482049C0E9001442F2E4
:102BA0001071C0E9024104618461FFF722FA08B1A3
:102BB000FDF7DCFF079407A919480894FEF776FF94
:102BC00008B1FDF7D3FF6020CDE900040294002294
:102BD000694613480494FFF7A6F908B1FDF7C6FF4C
:102BE000042269460E48FFF79EF908B1FDF7BEFFC3
:102BF000082269460A48FFF796F908B1FDF7B6FFC3
:102C00000C2269460648FFF78EF908B1FDF7AEFFC2
:102C10000348FFF711F90AB010BD0000000400409E
:102C2000A001002010B58AB0002407941C2168463A
:102C30000894FDF7B2FA1A481849C0E9001442F2A4
:102C40001071C0E9024104618461FFF7D2F908B153
:102C5000FDF78CFF079407A911480894FEF726FF9B
:102C600008B1FDF783FF6020CDE900040294002243
:102C700069460B480494FFF756F908B1FDF776FF53
:102C8000042269460648FFF74EF908B1FDF76EFFCA
:102C90000348FFF7D1F80AB010BD0000000800405B
:102CA000E801002010B58AB0002407941C21684672
:102CB0000894FDF772FA1A481849C0E9001442F264
:102CC0001071C0E9024104618461FFF792F908B113
:102CD000FDF74CFF079407A911480894FEF7E6FE9C
:102CE00008B1FDF743FF6020CDE900040294002203
:102CF00069460B480494FFF716F908B1FDF736FF53
:102D0000042269460648FFF70EF908B1FDF72EFFC9
:102D10000348FFF791F80AB010BD0000000C004016
:102D20003002002010B592B000240F941C2108A896
:102D30001094FDF732FA20216846FDF72EFA1F485D
:102D40001D49C0E9001442F21071C0E9024104615A
:102D500044618461FFF74DF908B1FDF707FF0F9457
:102D60000FA916481094FEF7A1FE08B1FDF7FEFE6C
:102D70006020CDE908040A940C940D940C2208A953
:102D80000E480E94FFF7CFF808B1FDF7EFFE009460
:102D90004FF40050CDE90440029401940394694635
:102DA00006480794FEF758FE08B1FDF7DFFE03481A
:102DB000FFF742F812B010BD003401407802002045
:102DC0000C4810B50A4901604FF4E131416000211F
:102DD00081600C22C160C0E904128161C161FFF70A
:102DE00019FB002803D0BDE81040FDF7BFBE10BDA1
:102DF00000380140C00200200C4810B50A490160AB
:102E00004FF4E1314160002181600C22C160C0E9D2
:102E100004128161C161FFF7FDFA002803D0BDE80B
:102E20001040FDF7A3BE10BD004400400803002081
:102E3000FEE700002DE9FF4FDFF8E8903A4D81B042
:102E40001E4614460F468046484501D3002006E042
:102E50002968FDF7AFFC01D2286800E04046C8466B
:102E60008246474501D3002705E038462968FDF72B
:102E7000A1FC00D22F68BB464746BC4201D30024C8
:102E800005E020462968FDF795FC00D22C680394E4
:102E9000296850460091FDF715FA4FF07E54B8426C
:102EA00001D3002002E0A04200DD2046A860814658
:102EB00058460099FDF706FAB84201D3002002E017
:102EC000A04200DD2046E860804600990398FDF7A7
:102ED000F9F9B84201D3002002E0A04200DD20460B
:102EE0002861012E0BD0022E11D0032E17D10246DD
:102EF00005B041464846BDE8F04FFFF725BC024605
:102F000005B041464846BDE8F04FFFF7C9BB024651
:102F100005B041464846BDE8F04FFFF7EDBB05B0B0
:102F2000BDE8F08F00008080180000202DE9F05FE0
:102F300004460D46816111F1FF4F04D38449E069D5
:102F4000FDF736F9E06125F00040A0618149E069B4
:102F5000FDF72EF901F0A2FD81467F49E061FDF702
:102F6000B1F9FDF7F7FB01F065FC00227B4BFDF7A3
:102F7000F3F9FDF7D0FBDFF8E8B18246E064DBF857
:102F80000000FDF7E7FB06460F46A069FDF7E2FBF0
:102F900080460D465046FDF77EFB6F49FDF760F910
:102FA0004946FDF757F9FDF7D5FB01F08FFD4FF0CE
:102FB00060426C4BFDF777FA42462B46FDF773FAF9
:102FC00032463B46FDF7E1FAFDF7D7FB2063DBF81D
:102FD0000000FDF7BFFB06468A46A069FDF7BAFB75
:102FE00081468846E06CFDF764FB00225B4BFDF7F1
:102FF00054FA4FF080425C4BFDF755FA07460D46F8
:10300000E069FDF7A7FB3A462B46FDF746FA01F0CB
:103010005DFD4FF06042534BFDF745FA4A4643468B
:10302000FDF741FA32465346FDF7AFFAFDF7A5FB2F
:103030006063216B06460D464FF07E50FDF70AF99E
:103040003146FDF707F9E062E26C4FF0FF31072AE5
:103050007AD2DFE802F079041223325B6900FDF7CF
:103060006FF9074631462846FDF7A2F83946FDF7C5
:103070009FF8A063384631460BE0FDF761F907463B
:103080002946FDF795F8A06331462846FDF790F8EC
:103090003946FDF78DF8C4E90F071AE0FDF750F93E
:1030A0000746A06331462846FDF782F83946FDF70A
:1030B0007FF8E0633846314608E0FDF741F90746FE
:1030C0002946A063FDF774F8E06327E0FDF770F888
:1030D00020645D46A06BDBF80010FDF7C1F82060AE
:1030E00029680646E06B0F46FDF7BAF80546A06072
:1030F0003946206CFDF7B4F82061024694F824307C
:1031000029463046BDE8F05FFFF794BEFDF718F999
:1031100007463146FDF74CF8C4E90E07314628460C
:10312000FDF746F83946D1E7FDF70AF9074631467B
:103130002846FDF73DF83946FDF73AF8C4E90E0791
:1031400038462946C2E7FFE70020A063E063BFE7F7
:10315000DB0F4940DB0FC93F920A863F0000F03F7A
:10316000180000207AB6FB3F52C1F03F70B54FF017
:10317000E024002265690949A36909684843A169F7
:103180009942FCD002D2A3EB010302E0A5EB0106B9
:1031900033441A440B468242F1D370BD1400002020
:1031A000FEE770477047FEF70DB930B58FB02821A4
:1031B0006846FCF7F2FF14210AA8FCF7EEFF012194
:1031C0000804CDE900100024029402250491CDE901
:1031D00007504FF4E01009906846FEF767FA08B10F
:1031E00072B6FEE70F20CDE90A054FF48060CDE905
:1031F0000C4002210AA80E94FEF77CF9002801D0A9
:1032000072B6FEE70FB030BD704700000148FEF710
:103210007ABD000058010020F0B50268204C214D15
:10322000214E224F224B4FF0804CA04209D09842B1
:1032300007D0604505D0A84203D0B04201D0B842C3
:1032400004D122F0700E4A6842EA0E02A04209D070
:10325000984207D0604505D0A84203D0B04201D0C3
:10326000B84203D122F44075CA682A434D6922F05E
:1032700080022A4302608A68C2620A688262A042AF
:1032800001D0984201D109690163012141610169BD
:10329000C90703D0016921F001010161F0BD0000FF
:1032A000002C01400004004000080040000C0040D9
:1032B0000034014010B501F01F030121046A994058
:1032C0008C430462016A9A401143016210BD10B53B
:1032D000846842EA032224F47F440A432243826042
:1032E00010BD826822F070020A4342F0070181603B
:1032F00070470000F0B5036A026A22F00102026220
:1033000042688469124E24F073050C682C4323F044
:1033100002058B682B430D4DA84201D0B04205D168
:1033200023F00807CB683B4323F00403A84201D0F5
:10333000B04205D14D6922F4407215438A692A438F
:1033400042608461496841630362F0BD002C014022
:1033500000340140F0B5026A036A23F010030362EF
:10336000436884690D6824F4E64444EA05248D68C2
:1033700022F0200242EA05120F4D104EA84201D061
:10338000B04206D1CF6822F0800242EA071222F052
:103390004002A84201D0B04207D14D6923F44063F6
:1033A00043EA85038D6943EA850343608461496884
:1033B00081630262F0BD0000002C01400034014036
:1033C000F0B5026A036A23F4807303624368C46938
:1033D00022F4007224F073050C68124E2C438D68A1
:1033E00042EA05220E4DA84201D0B04206D1CF6874
:1033F00022F4006242EA072222F48062A84201D04D
:10340000B04207D14D6923F4405343EA05138D6957
:1034100043EA05134360C4614968C1630262F0BDB9
:10342000002C01400034014030B5046A026A22F4E5
:10343000805202624268C3690D6823F4E64343EA9E
:1034400005238D6824F4005444EA0534084DA8424D
:1034500002D0084DA84204D14D6922F4804242EACC
:1034600085124260C36149680164046230BD000096
:10347000002C01400034014010B5036A046A24F0B6
:1034800001040462846924F0F00444EA021423F085
:103490000A020A438461026210BD10B5036A046A1D
:1034A00024F010040462846923F0A00324F470441F
:1034B00044EA023243EA01118261016210BD10B593
:1034C000406A0021C185C184FEF76CFE10BD70B555
:1034D000446A2068406994F84110C0F3C010002588
:1034E000212904D118B1E584204600F08EF8206827
:1034F000406994F84210C0F38010222904D118B119
:10350000E585204600F05AF8606C40F010006064D9
:103510002046FEF747FE70BD10B50146406A0968B7
:1035200009684FF0000289062ED4C28501680C316B
:1035300051E8003F23F4807341E80034002CF5D1BA
:103540000168143151E8003F23F0010341E80034E1
:10355000002CF5D10168143151E8003F23F04003FD
:1035600041E80034002CF5D1202180F84210016B95
:10357000012909D101680C3151E8003F23F0100303
:1035800041E80034002CF5D14263016B012902D0DF
:10359000FEF7FEFF10BD818DFEF703FE10BD10B5D6
:1035A000406A01214163016B012902D0FFF70CF849
:1035B00010BD818D4908FEF7F4FD10BD01680C3186
:1035C00051E8002F22F4907241E80023002BF5D13E
:1035D0000168143151E8002F22F0010241E8002374
:1035E000002BF5D1016B012909D101680C3151E89B
:1035F000002F22F0100241E80023002BF5D12021FA
:1036000080F8421000210163704701680C3151E8D5
:10361000002F22F0C00241E80023002BF5D1202129
:1036200080F84110704708B590F84210222901D067
:10363000022008BD82684FF480539A4201D101698B
:1036400021B1816A9A421BD04AB10AE00268816ABC
:103650005268C2F308020A80816A891C08E0026984
:1036600072B10268526802F07F020A70816A491CD6
:103670008162C18D491E0904090CC18503D01BE07C
:1036800002685268F1E70168CA6822F02002CA6045
:103690000168CA6822F48072CA6001684A6922F02F
:1036A00001024A61202180F8421000214163026B2F
:1036B000012A03D0FEF76CFF002008BD01630168FA
:1036C0000C3151E8002F22F0100241E80023002BBA
:1036D000F5D101680A68D20602D50A6849680091E6
:1036E000818DFEF75EFDE7E770B50446006801696D
:1036F000E26821F44051114301612169A068084347
:10370000616908432168CA6841F20C639A43024325
:10371000CA6020684169A26921F440711143416186
:103720001E492068884202D1FDF78AFF01E0FDF7BB
:1037300077FF00EBC00101EB00126068642180009C
:10374000B2FBF0F3B3FBF1F36FF018067343B2FB77
:10375000F0F5B2FBF0F605EB8305322303EB05151C
:10376000B5FBF1F5B6FBF1F605F0F00505EB061536
:10377000B2FBF0F6B2FBF0F0B0FBF1F06FF0180224
:10378000504306EB800003EB0010B0FBF1F0216822
:1037900000F00F002844886070BD00000038014030
:1037A00038B5816204468285002013466064222277
:1037B00084F84220E56B1B4AAA62E56B1A4AEA626A
:1037C000E56B1A4A2A63E26B50630A462168E06B94
:1037D000091DFDF7A1FC2068016840680090206980
:1037E00048B120680C3050E8001F41F4807140E877
:1037F0000012002AF5D12068143050E8001F41F073
:10380000010140E80012002AF5D12068143050E888
:10381000001F41F0400140E80012002AF5D10020CD
:1038200038BD0000193500089F350008CF34000866
:103830002DE9F843984617460D460446089E24E0B5
:10384000701C22D0FDF7B8FDA0EB0800B0421AD8DA
:10385000CEB12068C168490717D5802D15D0402DFD
:1038600013D00168C94309070FD4016800254068D7
:1038700000902046FFF7A2FE0820606484F84050C4
:103880000120BDE8F8830320FBE72068006835EAE3
:10389000000004D00020B842D2D00020F1E701207F
:1038A000F9E700000148FEF77FBC00000803002094
:1038B000FEE700000FB4054B10B503A9044A0298B7
:1038C00000F024FC10BC5DF814FB0000A5490008C2
:1038D00040000020490050EAC12018BF04204A0DD2
:1038E00018BF40F0010040F2FF72B2EB515F08BF19
:1038F00040F00200012808BF052070470907090EA3
:10390000002804DB00F1E02080F80014704700F08C
:103910000F0000F1E02080F8141D70472DE9F74FEB
:10392000144694B00021C4E902111599079121F0C1
:103930000045C9498D4206DC1599C4E9000117B05C
:103940000020BDE8F08FC549DFF814A3A9423CDD93
:103950000799C44E0029C44FC44A1599534619DD2E
:10396000FCF79BFD554506D0C14AC24BFCF795FDBF
:10397000C4E900010AE04FF0D352BE4BFCF78DFDC5
:1039800032463B46FCF789FDC4E9000117B001202F
:10399000BDE8F08FFCF7E0FC554506D0B44AB54BC6
:1039A000FCF7DAFCC4E900010AE04FF0D352B14B56
:1039B000FCF7D2FC32463B46FCF7CEFCC4E90001E2
:1039C00017B04FF0FF30BDE8F08FAB49A942159911
:1039D00078DB21F0004183468846A84AA84BFCF7D3
:1039E00062FD0022A74BFCF7B7FCFCF794FE0990A0
:1039F000FCF75FFE06460F469C4A5346FCF753FD14
:103A000043465A46FCF74CFD80468A46984A994BF5
:103A100030463946FCF747FD2A0D01250B924246F8
:103A20005346FCF73DFD032DC4E9000139D00B9846
:103A3000C1F30A51401A05EB45111139814230DAC0
:103A40009148C346784400EB0510CDF80CA00C90CB
:103A5000D0E9002330463946FCF725FD02460B46E7
:103A60000491069058460399FCF717FD80468A4654
:103A700002460B4658460399FCF70FFD049B069A35
:103A8000FCF70BFD83460C9803913946D0E90223DD
:103A90003046FCF708FD5A46039BFCF7FEFC6D1C04
:103AA000BDE707980028A2BF099817B0BDE8F08FBE
:103AB000616881F000416160099817B04042BDE83B
:103AC000F08FFFE784461598C1F31301C0F30A5045
:103AD000A0F2F5304FEA601800F01F06C6F1200092
:103AE000139000200690079041F4801E05206D463B
:103AF00076B1664A08EB00017A4452F8213002EBB5
:103B00008101B3404A68139922FA01F1194305E093
:103B10005F4908EB0002794451F82210A1FB0E27FF
:103B2000A1FB0C131A449A4234BF0123002303EB78
:103B3000070A05EB8003D3E901B70F448F4234BF76
:103B40000121002193448B4411B1934502D903E034
:103B5000934501D2012100E00021C3E901B751449E
:103B600045F82010011EA0F10100C1DC0298059F5C
:103B700000F10050800F12900298DDE9035680009A
:103B8000FCF797FD834628460D91FCF7A3FD6FF0E7
:103B90001D02FCF769FDCDE90E013046FCF79AFDE8
:103BA0006FF03D02FCF760FD80468A463846FCF720
:103BB00091FD6FF05D02FCF757FD07464246534604
:103BC0001191FCF7C9FBDDE90E23FCF7C5FB5A4652
:103BD0000D9BFCF7C1FB00250E465A4628460D9B5F
:103BE000FCF75BFCDDE90E23FCF757FC424653462D
:103BF000FCF753FC3A46119BFCF752FCDFF898A007
:103C0000244A5346FCF74FFC07468846234A244B78
:103C100031462846FCF747FC3A464346FCF79CFBF6
:103C2000074688464FF0A842534631462846FCF7DF
:103C30003AFC3A464346FCF78FFB159A12F0004FC8
:103C400004D0129A81F0004152421292C4E900015C
:103C5000129817B0BDE8F08FFB21E93F7CD90240F4
:103C6000FB21F93F7370032E8A19A33B00004054D7
:103C70003163621A61B4D03DFB21394183C8C96DFB
:103C8000305FE43F0000E03FF01100006C110000E5
:103C90004E110000182D4454FB21F93D3326A61186
:103CA000460B113C2DE9FF4D21F0004807460C461C
:103CB000B8F1795F08DAFCF72EFD002801BF00207B
:103CC000324904B0BDE8F08D3A4623461046194605
:103CD000FCF7E9FB054602462D480E460B46062139
:103CE000784400F05DF82A463346FCF7DCFBDDE95A
:103CF000022382468B4638462146FCF7D4FB044615
:103D00000F4652465B4628463146FCF7CCFB22461E
:103D10003B46FCF7C2FB07468A464FF0FF32284677
:103D20003146FCF7A1FC1B4A90450ADA3A46534655
:103D3000FCF7B3FB04B00022BDE8F04D134BFCF7D9
:103D4000AFBB154A4245A8BFA8F500154FF00004C7
:103D5000B8BF124D22462B46FCF79FFB064688460D
:103D600022462B4600200949FCF797FB04460D46E6
:103D70003A46534630464146FCF78FFB04B0224694
:103D80002B46BDE8F04DFCF78BBB00000000F03F78
:103D9000240F00003333D33F0000E93F0000D23F3F
:103DA0002DE9F0414F1E00EBC7010446D1E90001A7
:103DB00015461E4637F006020DD02A463346FCF75C
:103DC00072FB7F1E04EBC703D3E90023FCF7C4FAA0
:103DD00037F00602F1D1022F25D0042F13D0062F81
:103DE00018BFBDE8F0812A463346FCF75CFBD4E9F6
:103DF0000A23FCF7B1FA2A463346FCF754FBD4E910
:103E00000823FCF7A9FA2A463346FCF74CFBD4E911
:103E10000623FCF7A1FA2A463346FCF744FBD4E913
:103E20000423FCF799FA2A463346FCF73CFBD4E915
:103E30000223FCF791FA2A463346FCF734FBD4E917
:103E40000023BDE8F041FCF787BA00002DE9FF4DE3
:103E5000054621F0004084B00C46B0F1795F0BDAE2
:103E60002846FFF737FD042808BF00F06FF8284602
:103E700008B02146BDE8F08D2A460B461046FCF7F7
:103E800012FB06460F462A462346FCF70CFB8046EB
:103E900026488A4632463B4605217844FFF780FF94
:103EA00083461098029160B3214A224B4046514606
:103EB000FCF7F9FACDE900015A4640465146029B0B
:103EC000FCF7F1FA82468846DDE906014FF0FF3241
:103ED000FCF7CAFB52464346FCF7DFFA32463B4644
:103EE000FCF7E1FADDE90623FCF7D7FADDE9002368
:103EF000FCF7D3FA08B02A462346BDE8F04DFCF79C
:103F0000CFBA0B465A4630463946FCF7CCFA084A37
:103F1000084BFCF721FA42465346FCF7C4FA08B0B6
:103F20002A462346BDE8F04DFCF716BA620E0000A3
:103F3000495555555555C5BF0122FCF795BB002283
:103F4000134610461146FCF720BB0000024A002031
:103F50001107FCF789BB000001FDFFFF02E008C864
:103F6000121F08C1002AFAD170477047002001E0F3
:103F700001C1121F002AFBD17047000001490860EF
:103F800070470000440000202DE9FF5F82B000214F
:103F9000DDE90430020DDDF840B0034318D044F6EB
:103FA0001050A2F2FF3242431514119801281FD07D
:103FB000A5EB0B00401C5FEA000A4FF000064E4FD5
:103FC000DFF83891B046504615D5CAF1000413E029
:103FD000119801244AA3012801D16FEA0B0102982C
:103FE000119AC0E90031C0E9024206B0BDE8F09F75
:103FF000CBF10000DFE704460021404A491842EBBC
:104000000450CDE9001012E0E00707D032463B46ED
:1040100040464946FCF747FA8046894632463B46C9
:1040200010461946FCF73FFA06460F466410002C6E
:10403000EAD1DDE90401DDE90023BAF1000F06DA77
:10404000FCF731FA42464B46FCF72DFA05E0FCF747
:104050009CFA42464B46FCF798FA04460E4600226C
:10406000284BFCF709FD03D84FF0FF30014607E06D
:104070000022254B20463146FCF76EF9FCF7E3FCA5
:10408000102409E0002C0ADB0A220023FCF7B2FB13
:10409000039B30321A55641E50EA0102F2D1641CAF
:1040A000039AC4F111031444119A012A03D0012286
:1040B00008430DD10AE0084304D000204FF0110B53
:1040C000119072E7A3EB0B056D1E0DE05B4504DD5F
:1040D0004FF0000205F1010504E003DA4FF00002A1
:1040E000A5F10105002AECD002981199C0E902312E
:1040F000C0E9004579E70000000014400000F03FEF
:10410000300000000000F0430000E03F2DE9FF4FC9
:1041100095B09A46884606460025EEE1252877D1D7
:1041200000242746F94A0121039400E0044316F8CD
:10413000013F203B01FA03F01042F7D130782A28E2
:1041400011D06FF02F033078A0F13002092A16D871
:10415000039A44F0020402EB820203EB4202104491
:10416000761C0390EFE758F8042B0392002A03DA39
:10417000504244F40054039044F00204761C30781A
:104180002E2816D116F8010F44F004042A280DD069
:104190006FF02F023078A0F13003092B09D807EB1C
:1041A000870302EB4303C718761CF3E758F8047B38
:1041B000761C30786C280FD006DC4C2817D0682885
:1041C0000DD06A2814D104E0742810D07A280FD1B9
:1041D0000DE044F400140AE044F4801401E044F4D7
:1041E00040147278824202D104F58014761C761C49
:1041F000307866280BD013DC582877D009DC0028EB
:1042000075D04528F6D04628F4D047281AD193E136
:1042100018E0632835D0642879D0652812D18BE165
:10422000702873D008DC6728F1D069286FD06E2819
:104230000DD06F2806D1ACE073282CD0752874D02F
:10424000782853D05246179990476D1C54E1C4F317
:104250000250022809D003280DD0D8F800100428F5
:104260000DD00D6008F1040846E1D8F80010EA17F7
:10427000C1E90052F6E7D8F800100D80F2E70D70A2
:10428000F0E718F8041B8DF8001000208DF80100ED
:10429000EB46012003E058F804BB4FF0FF30610704
:1042A0004FF0000102D40DE009F101018946B94245
:1042B0000FDA8145F8DB1BF809100029F4D108E07A
:1042C00009F1010189468142FADB1BF80910002936
:1042D000F6D103985346A0EB090721463846179AB2
:1042E00000F080FA284400EB090507E044E008E10B
:1042F0000DE01BF8010B524617999047B9F10109DF
:10430000F7D2534621463846179AF2E039E00A219F
:10431000C4F302524FF0000B0091022A06D058F865
:10432000040BC117032A09D00AE023E008F10700B3
:1043300020F00702F2E80201904605E000B2C11742
:10434000042A01D140B2C117002906DA0A46002129
:10435000404261EB02012D2202E0220504D52B220E
:104360008DF80420012203E0E20701D02022F7E7C4
:10437000914657E00A2100E010214FF0000B009118
:104380000BE010214FF0000B44F0040408270091CB
:1043900003E008204FF0000B0090C4F30252022A01
:1043A00005D058F8040B0021032A08D008E008F1D2
:1043B000070020F00702F2E80201904603E080B215
:1043C000042A00D1C0B24FF0000922072AD5327862
:1043D000702A07D0DDF800C08CF0100C5CEA0B0CE2
:1043E00005D00EE040228DF80420012208E050EABA
:1043F000010306D030238DF804308DF80520022209
:104400009146009B83F0080353EA0B030AD150EA5C
:10441000010201D1620705D530228DF804204FF04A
:1044200001097F1E3278582A04D039A20C920CAAB6
:1044300002920BE03BA2F9E75B46009AFCF7DAF93F
:104440000C9B9B5C029A521E0292137050EA01026E
:10445000F2D1029804A9081A00F1200B600702D5D6
:1044600024F4803400E001275F4502DDA7EB0B0058
:1044700000E0002000EB0B01009003984944401A33
:104480000390E00306D453462146179A039800F0A0
:10449000A9F90544002706E001A85246C05D179916
:1044A00090476D1C7F1C4F45F6DBE0030CD553464F
:1044B0002146179A039800F095F9054404E030204E
:1044C0005246179990476D1C0099481E009000298C
:1044D000F5DC08E00298029952460078491C0291E6
:1044E000179990476D1CBBF10001ABF1010BF1DC9A
:1044F0005BE100F065F90544761C307800287FF414
:104500000DAE19B02846BDE8F08F00000928010063
:104510003031323334353637383961626364656639
:1045200000000000303132333435363738394142FB
:104530004344454600000000600700D4062708F108
:10454000070020F00700F0E80223804603F0004C4B
:104550005FEA0C0001D097A009E0200501D596A0E4
:1045600005E0E00701D095A001E0AFF24C00139008
:10457000307823F0004365280CD006DC452809D0AC
:1045800046281DD047287FD13BE0662818D06728F1
:104590007AD136E00021112F01DB112000E0781CD8
:1045A000CDE9000104A90CA8FFF7EEFCDDE90D013F
:1045B0000C9A4FF0000B07F10109109200914EE0A8
:1045C0004FF000400097CDE9011004A90CA8FFF7B7
:1045D000DBFCDDE90D020C9B0F994FF0000B9146BF
:1045E0001093009211B9791C00EB0109B7EB090097
:1045F00003D4C0F1FF3B07F10109A9EB07000190CB
:1046000042E0012F00DA01270021112F01DD1120E6
:1046100000E03846CDE9000104A90CA8FFF7B4FC7E
:10462000DDE90D010C9A00914FF0000BB946109294
:1046300021070FD4009A4A4503DA914601E0A9F117
:104640000109B9F1010F05DD109AA9F10101515CD1
:104650003029F4D0B84202DA10F1040F03DA012154
:10466000CDE9011010E0002803DC8344A9EB000130
:1046700002E0411C494500DD8946A0EB0B00401CCF
:1046800001904FF000400290200705D40198484562
:1046900002DB4FF0FF30019000208DF84B000298B4
:1046A0000DF14B07B0F1004F25D002200C902B20CC
:1046B0000D90029800280CDA404202902D200D90B7
:1046C00007E00A210298FCF77FF83031029007F8E2
:1046D000011D0C99481E0C900029F2DC029800285C
:1046E000EFD1791E0D980870307800F0200040F06E
:1046F000450007F8020D11A8C01BC01D02901398B9
:10470000007800B1012000EB0901019801EBE07194
:10471000029801440398401A401E0390E00306D417
:1047200053462146179A039800F05CF80544139805
:10473000007818B15246179990476D1CE00323D5B5
:1047400053462146179A039800F04CF805441BE0A5
:10475000BBF1000F07DB0098584504DD109817994E
:1047600010F80B0001E0179930205246904701984D
:104770000BF1010B401E05F10105019004D12E2023
:104780005246179990476D1CB9F10001A9F1010932
:10479000DEDC05E017F8010B5246179990476D1CB7
:1047A0000299481E02900029F4DC53462146179ACC
:1047B00003989EE62D0000002B0000002000000062
:1047C0002DE9F041044600251E461746880404D40E
:1047D00005E039462020B0476D1C641EF9D52846F7
:1047E000BDE8F0812DE9F041044600251E469046C3
:1047F000C80301D5302700E02027880404D505E050
:1048000041463846B0476D1C641EF9D52846BDE8C0
:10481000F08170B51C4615464843FBF73CFF214626
:10482000FBF71EFD2946FBF715FDBDE8704000F0C3
:1048300035B900002DE9F041C1F30A52A2F2FF366A
:104840002F4A304B0D460446142E2FDA002E12DA72
:10485000FBF782FD00221346FCF70EF94CD2002D27
:10486000A4BF0024254647DA25F00040204318BFA6
:10487000254D41D018E0DFF894C02CFA06F705EA80
:10488000070C5CEA040C08BFBDE8F081FBF764FD8F
:1048900000221346FCF7F0F82ED2002D03DA4FF475
:1048A0008010F0400544BD43002425E0332EC8BFEE
:1048B000BDE8F081A6F1140C4FF0FF3727FA0CF792
:1048C0003C4208BFBDE8F081FBF7EAFD0022134639
:1048D000FCF7D2F810D2002D0DDA142E08BF6D1C93
:1048E00009D0C6F13400012101FA00F02044A042B1
:1048F00038BF6D1C0446BC4329462046BDE8F08104
:104900009C7500883CE4377E0000F0BFFFFF0F007D
:1049100070B514461D460E46002814BF0121002123
:10492000314321F00041C1F17F6101F1E041C90F44
:1049300016D1002C14BF01210021294321F0004190
:10494000C1F17F6101F1E041C90F09D11449B1EB17
:10495000460F08BF00281CD0690008BF002C18D0E3
:104960003146FCF72DF8024640F2FF7030EA115054
:104970000DD0F017B0EBE17F09D0084665F31E00BB
:1049800084460B4620466146FBF78AFD02461046E8
:1049900070BD0120FFF7F2FABDE87040FFF7CFBA13
:1049A0000000E0FF38B504468DF800000223012224
:1049B00069460248FDF709FE204638BDC0020020C6
:1049C000FCF708FDFEF7F1FB2F48FCF789F8FEF72E
:1049D0003BF8FEF723F8FEF7F3F9FEF7D3F8FEF7FE
:1049E00021F9FEF75FF9FEF79DF9FEF797F8FEF75C
:1049F00003FAFCF7EBFF244801231A460721F0389D
:104A0000FCF7B6F82048022301220721A038FCF762
:104A1000AFF81D480323012207215038FCF7A8F8FE
:104A2000FCF78CF81848F038FCF7B8F81648174926
:104A3000F038FEF77BFA4FF4FA60FCF7A5FB12485A
:104A4000F038FCF733F96420FCF79EFB0E48002198
:104A5000F038FEF76BFA4FF4FA70FCF795FB0C4850
:104A6000FDF7ACF8FCF732F80A4C03210A48FCF7D2
:104A7000BDF8054A0346503AA2F150012060A1F169
:104A8000500000F073F8F0E73801002000004040CB
:104A90005801002000000020A003002010B5FBF703
:104AA00059FE4FF0C042074BFFF732FFFBF765FEA0
:104AB00010F1FF4F04D3BDE810400349FBF778BB6A
:104AC00010BD0000FB211940DB0FC94000B5254B8C
:104AD00021F0004287B09A4203DC00221346009284
:104AE0002BE0214B9A4208D140B94FF00100FFF76B
:104AF00045FAFFF724FA07B000BD03DBFFF71CFA05
:104B000007B000BD02AAFEF709FF10F003014FF045
:104B100001000DD0012914D002291AD00DF1080C82
:104B20009CE80F00FFF7BEF807B081F0004100BD20
:104B30000DF1080C00909CE80F00FFF787F907B013
:104B400000BD0DF1080C9CE80F00FFF7ABF807B0B3
:104B500000BD0DF1080C00909CE80F00FFF776F9FE
:104B6000E2E70000FB21E93F0000F07F2DE9F04F74
:104B700004468DB01846FBF7EDFD83468846A06AD3
:104B8000FBF7E8FDCDE906012069FBF7E3FD81466F
:104B90008A46A068FBF7DEFD06460F462068FBF755
:104BA000D9FD05460191206AFBF7D4FD0B4602A909
:104BB000009581E8C006CDE908B8024602A0FEF7DC
:104BC00079FE0DB0BDE8F08F25662C25662C256694
:104BD0002C25662C25662C25660A0000010202039E
:104BE0000405060708090A0B0C0D0E0F1010000033
:104BF000000000000000010203040607080900008D
:104C000000000102030400004C5555555555A53FC1
:104C10007751C1166CC156BF9015CB19A001FA3E51
:104C2000AD529C804F7E92BEC4B1B4BD9EEE213E7B
:104C3000D43888BEE9FAA8BD00004054FB21F93FF2
:104C40003163621A61B4D03D0000601A61B4D03D96
:104C50007370032E8A19A33B0000002E8A19A33B10
:104C6000C14920259A837B39000000000000000024
:104C70006E83F9A22915444ED15727FCC0DD34F5C7
:104C8000999562DB4190433CAB6351FE61C5BBDE4D
:104C90003A6E24B7E0D24D42EA2E49061C92D10961
:104CA0001CEB1DFE3EA729B1F53582E88444BB2EDE
:104CB00026709CE9417E5FB439D69139F43953832B
:104CC0008B5F849C3B28F9BDFF97F81F0F9805DE8A
:104CD0008B112FEF1F6D0A5ACF7E366DB709CB2788
:104CE000663F464F2DEA5F9EC7BA27757BF1E5EB1D
:104CF000F739073DEA92528AB15FFB6B085D8D1F61
:104D0000A6F810111111813FD561C119A0012ABF68
:104D10007DFEB157E31DC73EEB9C2B8AE6E55ABEEC
:104D20007CD5CF5A3AD9E53D484D00080000002017
:104D3000480000005C3F0008904D0008480000203B
:104D4000800700006C3F0008000000000100000028
:104D5000100000000000000000127A00480000006F
:104D6000000040411027000000000000000000008B
:104D700000000000000000000C0000000000000027
:104D80000000000000000000000000000000000023
:0400000508000131BD
:00000001FF
