:020000040800F2
:10000000180D002029020008C1330008E929000862
:100010003532000849050008813B00080000000057
:100020000000000000000000000000000F34000885
:100030006D07000800000000C33300089535000874
:10004000430200084302000843020008430200087C
:10005000430200084302000843020008430200086C
:10006000430200084302000843020008430200085C
:10007000A906000843020008B5060008430200086C
:10008000430200084302000843020008430200083C
:100090004D0500084302000843020008430200081F
:1000A000430200084302000843020008430200081C
:1000B0003D360008430200084302000843020008DE
:1000C00043020008430200084302000843020008FC
:1000D00043020008430200084302000843020008EC
:1000E00043020008430200084302000843020008DC
:1000F00043020008430200084302000843020008CC
:1001000043020008430200084302000843020008BB
:1001100043020008430200084302000843020008AB
:100120004302000843020008C10600084302000819
:10013000430200084302000843020008430200088B
:100140004302000859050008430200084302000862
:100150004302000843020008CD06000843020008DD
:10016000430200084302000843020008430200085B
:100170004302000843020008430200080000000098
:10018000430200084302000800F002F800F03CF8C7
:100190000AA090E8000C82448344AAF10107DA45E2
:1001A00001D100F031F8AFF2090EBAE80F0013F0F8
:1001B000010F18BFFB1A43F001031847D843000092
:1001C000F8430000103A24BF78C878C1FAD8520723
:1001D00024BF30C830C144BF04680C6070470000C1
:1001E0000023002400250026103A28BF78C1FBD840
:1001F000520728BF30C148BF0B6070471FB504F0DD
:10020000AEF91FBD10B510BD00F0D4F81146FFF7D0
:10021000F5FF03F0F7FC00F0F2F803B4FFF7F2FF8C
:1002200003BC00F0F7F80000094880470948004780
:10023000FEE7FEE7FEE7FEE7FEE7FEE7FEE7FEE796
:10024000FEE7FEE704480549054A064B70470000F3
:100250002D3600088901000818070020180D00201D
:10026000180900201809002053EA020C00F06980E8
:100270002DE9F04B4FF00006002B1FBFB3FA83F5BA
:1002800003FA05F424FA05F65E4012BF1643B2FAEB
:1002900082F502FA05F4C5F120051EBF22FA05FC1D
:1002A00044EA0C04203556EA044C4FEA144418BFC3
:1002B000641C4FF000084FF00009904271EB030CF2
:1002C00039D3002919BFB1FA81F701FA07F6B0FA5C
:1002D00080F700FA07F6C7F120071EBF20FA07FCD7
:1002E00046EA0C062037B6FBF4FCA7EB0507103FE7
:1002F00007F01F0BCBF120060CFA0BFB2CFA06F6CD
:1003000044BFB3460026202FA4BF5E464FF0000B2B
:100310005BEA060C08BF4FF0010B19EB0B09ABFBB6
:10032000027C48EB0608C01B06FB02CC0BFB03CC8F
:1003300071EB0C01C1E70B46024641464846BDE859
:10034000F08B13B54FF000004FF00001AFF30080C9
:10035000BDE81C4070474FF0000200B513469446BC
:100360009646203922BFA0E80C50A0E80C50B1F10D
:100370002001BFF4F7AF090728BFA0E80C5048BF21
:100380000CC05DF804EB890028BF40F8042B08BFBF
:10039000704748BF20F8022B11F0804F18BF00F8BB
:1003A000012B704770477047704700000048704746
:1003B000B80600207546FFF7F9FFAE46050069460E
:1003C000534620F00700854618B020B5FFF73AFFE6
:1003D000BDE820404FF000064FF000074FF0000846
:1003E0004FF0000B21F00701AC46ACE8C009ACE8C7
:1003F000C009ACE8C009ACE8C0098D46704710B52B
:100400000446AFF300802046BDE81040FFF705BF6B
:100410007047000001491820ABBEFEE7260002002D
:10042000464910B54A6822F440324A604A68436837
:100430001A434A6001684A6822F480724A6001687F
:100440004A68036942EA03224A6001684A6822F066
:1004500040724A6001684A6883681A434A600168CA
:100460008A6822F400628A6001688A68C3681A4355
:100470008A60816A6FF07062D14201688A6822F0F6
:1004800070628A6001688A680CD0836A1A438A6045
:1004900001688A6822F040528A6001688A68C36AEB
:1004A0001A4301E022F040528A6001688A6822F013
:1004B00002028A6001688A68037E42EA43028A6017
:1004C00090F82010002901684A680FD042F40062B9
:1004D0004A6001684A6822F460424A6001684A68DA
:1004E000174C436A04EB43331A4301E022F40062E1
:1004F0004A600168CA6A22F47002CA620168CA6A64
:10050000838B104C04EB03531A43CA6201688A6858
:1005100022F400728A6001688A6890F8303042EAFA
:1005200043228A6001688A6822F480628A600168D6
:100530008A68406942EA8020886010BD002301403B
:1005400000E0FFFF0000F0FFFEE70000014800F0C0
:1005500094BC000008010020014800F08EBC00009F
:100560003001002010B504462DED048B08789FED76
:10057000449B9FED458B0E2810D2DFE800F0071258
:1005800022283F0F590F6B0F0F0F0F70488840BA8A
:10059000000A2080888840BA000A6080BDEC048B85
:1005A00010BD888840BA03F0FCFC53EC192B03F013
:1005B00047FD53EC182B03F043FD03F0C5FCA0806E
:1005C000ECE7C88840BA000A3238E080E6E748889D
:1005D00040BA3238C21700EB1260000A20818888C6
:1005E00040BA000A03F0DDFC9FED291B53EC112BF0
:1005F00003F026FD03F0A8FC6081CFE7488840BAED
:10060000000AA081C88840BA03F0CBFC53EC192B38
:1006100003F016FD9FED201B53EC112B03F044FE5D
:1006200053EC182B03F00CFD03F08EFCA082B5E711
:10063000888840BA03F0B5FC9FED191B53EC112BD1
:1006400003F0FEFC53EC182B03F0FAFC03F07CFCE7
:10065000E081A3E7888840BA000A20829EE74888A4
:1006600040BA03F09EFC53EC192B03F0E9FC53EC69
:10067000182B03F0E5FC03F067FC60828EE70000B6
:100680009A9999999999B93F000000000000703F2C
:100690007B14AE47E17A843F00000000000059401F
:1006A000FCA9F1D24D62503F014800F06DBE000040
:1006B000B8040020014800F067BE000018050020C3
:1006C000014800F061BE0000F8030020014800F07E
:1006D0005BBE00005804002001681823CAB2103A1B
:1006E000B2FBF3F2054B6FF30901032A9B5CC36570
:1006F00000D9091D81650846704700007245000851
:1007000010B5014600208B698A6A4FF0C07453B15E
:10071000B3F5005F15D072B1012A0CD0022A0AD0BD
:10072000032A09D104E01AB1012A06D0022A03D112
:10073000C96AC90100D5012010BDC96AA142FAD019
:1007400010BD002AF7D0012AF2D0022AF3D0032AE2
:10075000F3D010BD044B012804D0002220211846FC
:1007600001F05BB80122F9E7000402407047000085
:1007700070B500252DED028B01226423524E9FEDB2
:10078000538A534C012813D0002853D1888900285C
:1007900050D06270411EA18000F0C4F801460020D4
:1007A00000F0ACF884ED030A3380DFED4A8A86E07E
:1007B000898905293ED82270481CA080012000F0BC
:1007C0009DF884ED020A33803BE00023424A43490E
:1007D000434802F0F7FDB0EE480A414802F054FEEB
:1007E000012003F0C1F9F0EE480AB0EE480A3C4897
:1007F00003F084FA28B30023374A3849384802F016
:10080000E1FD94ED020A354802F03EFE3249A0882F
:1008100000F0B0F888B100232F4A3049304802F088
:10082000D1FDB0EE480A2D4802F02EFE002003F064
:100830009BF92570BDEC028B70BD03F0D9F900283F
:10084000E9D120780028C0D1F4E70023224A2349C7
:10085000234802F0B7FDB0EE680A214802F014FE0A
:100860000120FFF777FFF3EE0E0AB0EE680A1C488E
:1008700003F044FA18B30023174A1849184802F045
:10088000A1FD94ED030A154802F0FEFD1249A0886F
:1008900000F070F878B100230F4A1049104802F0B8
:1008A00091FDB0EE480A0D4802F0EEFD0020FFF782
:1008B00051FF6570BEE703F09BF90028EBD160782B
:1008C0000028C2D1B6E700000200002000000000AE
:1008D00064000020000096C2940500201806002045
:1008E000AC05002072B6FEE710EE101A01700A0A7D
:1008F00042700A0C8270090EC1707047074A0128C5
:1009000002EB810103D028B19FED050A704791EDFC
:10091000060A704711ED010A7047000074000020BC
:1009200000000000124906281FD860B101280DD030
:1009300002280ED003280FD0042810D0052811D08B
:10094000062048807047002048807047012048807A
:100950007047022048807047032048807047042079
:1009600048807047052048807047488870470000DD
:10097000640000208989814201D101207047002054
:100980007047000078B50024009490F83C20012ABC
:1009900019D0012280F83C200A6807230568092A3B
:1009A00013D9EE680A3A02EB420293409E43EE608E
:1009B0000B788A680A3B03EB43039A400368DD68BF
:1009C0002A43DA6010E0022078BD2E6902EB420271
:1009D00093409E432E610B788A6803EB43039A4051
:1009E00003681D692A431A614A681F23072A13D224
:1009F00005686E6B521E02EB820293409E436E634B
:100A00000B790A885B1E92B203EB83039A4003685A
:100A10005D6B2A435A6327E005680D2A12D22E6BBC
:100A2000D21F02EB820293409E432E630B790A8809
:100A3000DB1F92B203EB83039A4003681D6B2A43CA
:100A40001A6311E0EE6A0D3A02EB820293409E4374
:100A5000EE620B790A880D3B92B203EB83039A4056
:100A60000368DD6A2A43DA62164B0568144A9D4220
:100A700006D10D68122D03D1556845F480055560E7
:100A800005689D4218D10B68102B01D0112B13D192
:100A9000536843F400035360096810290CD10A49D4
:100AA0000A4A0968B1FBF2F101EB8101490000E05B
:100AB000491E00910029FBD180F83C40002078BD00
:100AC00000230140002001401400002040420F009C
:100AD00070B504004FF0000503D0206C002610B163
:100AE00007E0012070BD204600F01CF8666484F821
:100AF0003C60206CC00610D4206C20F4885040F07C
:100B0000020020642046FFF78BFC6664206C20F016
:100B1000020040F00100206400E0012584F83C6000
:100B2000284670BD10B586B0044614216846FFF70C
:100B300012FC1149206888421CD11048002102682B
:100B400042F480720260006800F4807005900B48E7
:100B50001438026842F001020260006800F00100EF
:100B60000590012000900320CDE901016946044869
:100B700000F056FD06B010BD002001404438024090
:100B80000000024090F82020012A07D0022A05D058
:100B9000416A41F480214162012070470068426946
:100BA0000A43426100207047F0B590F82050046875
:100BB000A468012D05D0022D03D0416A41F48021A3
:100BC00057E014F0406F01D1E5004FD5C4F3016444
:100BD0000125A5401D608D684FF4C0739DB1CE689E
:100BE00035434E6845EAC605066803EB0417F55120
:100BF0004FF4C275076805EB04150E697E51097D37
:100C0000012905D009E00E88CD6845EA4655EBE795
:100C100001684E5946F480764E511179D57956794E
:100C200041EA056195792D0445EA062529434FF4EB
:100C3000C676056806EB0416A9511178D57841EA05
:100C40000561957852782D0445EA022211434FF44C
:100C5000C475026805EB04155151006803EB0411DB
:100C6000425842F0010242500020F0BD416A41F476
:100C7000001141620120F0BD10B590F82020012A3A
:100C800007D0022A05D0416A41F480214162012047
:100C900010BD3B48D0F8002242F00102C0F800220B
:100CA000D0F8002222F47C52C0F80022D0F80022B2
:100CB0004B6A42EA0322C0F800220A7D02F01F03B9
:100CC00001229A40D0F81C329343C0F81C32CB6901
:100CD000B3B9D0F80C329343C0F80C328C894B680E
:100CE00064F31F434C6900EBC404C4F840320C8920
:100CF0000B6864F31F434C6900EBC404C4F844322E
:100D0000CB69012B16D1D0F80C321343C0F80C324A
:100D10000C884B6864F31F434C6900EBC404C4F8AF
:100D200040320C89CB6864F31F434C6900EBC40468
:100D3000C4F844328B69002BD0F804320ED0134330
:100D4000C0F804320B69002BD0F8143208D01343DA
:100D5000C0F81432096A012904D008E09343EFE790
:100D60009343F5E7D0F81C121143C0F81C12D0F8D9
:100D7000001221F00101C0F80012002010BD000097
:100D800000640040704770B590F82040012C05D0F9
:100D9000022C03D0416A41F4802128E0046809B3A1
:100DA0002469A40720D04FF4D874056804EB01141B
:100DB0002D5915F00405956005682D591AD0ED08D8
:100DC000556005682C5904F00204D4604FF4DA74BD
:100DD000056804EB01142E5906F00F06082E0CD3FB
:100DE00008250DE0E468DCE7416A41F40011416246
:100DF000012070BD6D0D1560E3E72D5905F00F055D
:100E0000156105682D59C5F30725956105682C59AD
:100E1000240C54614FF4DC72046802EB0112A458F4
:100E20001C700468A458240A5C700468A458240C3C
:100E30009C700468A258120EDA704FF4DE720468D7
:100E400002EB0112A4581C710468A458240A5C71B6
:100E50000468A458240C9C710468A258120EDA711C
:100E6000006829B1016941F020010161002070BDD5
:100E7000C16841F02001C160F8E72DE9F05F054647
:100E8000006800244669D0F804908768D0F80CB058
:100E9000D0F810A0D0F81880F10748D0F90714D086
:100EA00001218160B80703D5284600F066FA0CE0FE
:100EB000780702D54FF4006407E0380702D54FF4F5
:100EC000805402E0284600F057FAF80516D5296844
:100ED0004FF480708860B80503D5284600F04FFABB
:100EE0000CE0780502D544F4005407E0380502D53B
:100EF00044F4804402E0284600F040FAF80316D596
:100F000029684FF480308860B80303D5284600F084
:100F100038FA0CE0780302D544F4004407E03803C3
:100F200002D544F4803402E0284600F029FA300764
:100F300007D55FEACB6004D52968102044F400741B
:100F4000C86070074FF0080707D55FEA0B7004D53B
:100F50002868C760284600F097F9B00706D52868CA
:100F6000C068800702D0284600F090F9700607D5C7
:100F70005FEACA6004D52968102044F480640861DF
:100F8000B00607D55FEA0A7004D5286807612846CD
:100F900000F0A0F9F00606D528680069800702D0A5
:100FA000284600F099F9B00308D55FEAC96005D575
:100FB000296810204860284600F0B0F9F00307D5F2
:100FC0005FEA097004D528684760284600F0DAF91E
:100FD000300446D55FEA497040D5F00504D55FEA94
:100FE000C87001D044F00104B00504D55FEA8870F0
:100FF00001D544F00204700504D55FEA487001D5BC
:1010000044F00404300529D518F0700F26D008F0FC
:101010007000402815D006DC102809D020280AD0FE
:10102000302816D10AE050280ED0602811D10EE0E9
:1010300044F008040DE044F010040AE044F02004F9
:1010400007E044F0400404E044F0800401E044F48C
:1010500080742868816921F0700181612968042009
:101060004860002C05D0686A204368622846FFF774
:1010700089FEBDE8F09F70B5040003D094F820000D
:1010800010B104E0012070BD204600F081F8206816
:10109000016841F00101016000F0C4FB054605262E
:1010A00004E000F0BFFB401B0A2811D8206840680C
:1010B000C007F6D02068016821F00201016000F04D
:1010C000B1FB05460BE000F0ADFB401B0A2806D93A
:1010D000606A40F40030606284F82060D2E72068E3
:1010E00040688007EFD4207E0128206801683DD049
:1010F00021F080010160607E01282068016838D0FD
:1011000021F040010160A07E01282068016833D0F1
:1011100021F020010160E07E0128206801682ED0C6
:1011200041F010010160207F01282068016829D06A
:1011300021F008010160607F01282068016824D047
:1011400021F004010160D4E902010843D4E904124A
:10115000114308436168491E08432168C8610020A3
:101160006062012084F82000002070BD41F0800101
:10117000C0E741F04001C5E741F02001CAE721F096
:101180001001CFE741F00801D4E741F00401D9E7AD
:10119000F0B587B0044614216846FFF7DCF8354BFC
:1011A0003548DFF8CCE019682768334A0224032564
:1011B00009261030491C4FF0000C774523D11960E7
:1011C000012907D1016841F000710160006800F059
:1011D00000700590106840F00100106010686946CA
:1011E00000F0010005904FF4C0508DE81110CDE9DA
:1011F0000356224800F014FA00221146142000F091
:1012000099FC142030E0DFF878C067452ED10768DC
:1012100047F0806707600768012907F08067059736
:10122000196007D1016841F000710160006800F0A9
:1012300000700590106840F002001060106802AB6A
:1012400000F0020005904FF44050CDE90004012069
:1012500083E8610069460B4800F0E2F9002211467C
:10126000412000F067FC412000F056FC07B0F0BDC3
:1012700000640040040000203038024000000240BA
:1012800000680040000402407047000010B50E4B9B
:101290000E4A00210E48FFF776FD0C480A494268C5
:1012A0000C39C2F307200880012808D002280AD18F
:1012B00006480C31D838BDE8104001F0BDBF0348E6
:1012C00001496C38F7E710BDB80000208406002003
:1012D000080100207047000010B50C4B0C4A01219A
:1012E0000C48FFF750FD094801780E2906D84078D0
:1012F00020B9074805491C30FFF734F9BDE8104014
:1013000000224FF40051044800F087BAA4000020E6
:1013100078050020300100200008024070470000DE
:1013200070B5044690F82000012804D0606A40F4AB
:101330000020606218E0022084F820002068016824
:1013400021F00101016000F06DFA05460EE000BFDA
:1013500000F068FA401B0A2808D9606A40F400309F
:101360006062052084F82000012070BD206840687C
:10137000C007EDD1606270BD70477047704770471D
:1013800070477047704700002DE9F84304464FF05E
:101390000009CDF8009063484FF41651A56D006820
:1013A000B0FBF1F72E6894F85C10082000FA01F108
:1013B00031420FD021680A6852070BD50A6822F023
:1013C00004020A6094F85C108840A860606D40F0E8
:1013D0000100606594F85C104FF0010808FA01F014
:1013E000304208D021684969090604D5A860606DBB
:1013F00040F00200606594F85C10042088403042A0
:1014000008D021680968890704D5A860606D40F09C
:101410000400606594F85C1010208840304218D0B9
:1014200021680968090714D5A86020680168490384
:1014300004D50068000308D5A16C07E00168C90560
:1014400003D4016821F008010160216C09B1204634
:10145000884794F85C1020208840304231D02168C1
:101460000968C9062DD5A86094F8350005282068BC
:10147000016806D0490347D5006800031DD4616C9C
:101480001CE021F0160101602068416921F0800113
:101490004161206C08B9A06C20B12068016821F07E
:1014A0000801016094F85C103F208840A86084F82F
:1014B000358084F83490216D1FE0E16B09B120463E
:1014C0008847606D00282BD0606DC00714D00520C0
:1014D00084F835002068016821F00101016000985E
:1014E000401C0090B84203D820680068C007F6D1BD
:1014F00084F8358084F83490E16C002910D001B074
:101500002046BDE8F04308470168C905D5D4016805
:1015100021F01001016084F8358084F83490CCE724
:10152000BDE8F883140000202DE9F041044600F0E6
:1015300079F906465CB1022084F83500002584F86C
:1015400034502068016821F0010101600DE00120A4
:10155000BDE8F08100F066F9801B052805D9202040
:101560006065032084F83500F2E720680068C00752
:10157000F0D12268116820480140D4E901031843E2
:10158000D4E903363343184363691843A369184306
:10159000E3691843236A18430843616A042903D1A5
:1015A000D4E90B1319430843106020684069666A48
:1015B00020F0070130460E43012704280CD1A06A11
:1015C0000643E06A40B12046FFF79AF820B1402078
:1015D000606584F83570BAE7206846612046FFF7F9
:1015E0007BF894F85C203F2191408160656584F828
:1015F00035700020ACE700003F8010F070B5044665
:1016000000F010F90546601C02D00448007804443C
:1016100000F008F9401BA042FAD370BD080000207A
:101620002DE9F84FDFF8BCA10022012503264FF079
:101630000F090AF1040BAAF1040E00BF0B6805FAAA
:1016400002F42340A34270D10F7907F00307012F62
:1016500001D0022F16D187684FEA420806FA08FC2B
:1016600027EA0C07D1F80CC00CFA08FC4CEA070C6E
:10167000C0F808C04768A7430C79C4F3001494402D
:101680003C4344600C79E443A4070AD0C4684FEAA1
:10169000420C06FA0CF7BC438F6807FA0CF7274395
:1016A000C7600C7904F00304022C12D1D40800EBBB
:1016B000840CDCF820405707FF0E09FA07F824EAEB
:1016C0000804D1F8108008FA07F848EA0408CCF8B2
:1016D000208004684FEA420C06FA0CF7BC430F79ED
:1016E00007F0030707FA0CF7274307604C6814F468
:1016F000403F70D03C4C276847F4804727602468FF
:1017000022F0030704F480440094384C07EB040CE7
:10171000DCF8084897074FEA177809FA08F7BC433E
:10172000334FB84202D1002724E054E0314FB84291
:1017300001D101271EE0304FB84201D1022719E044
:101740002E4FB84201D1032714E02D4FB84201D1EA
:1017500004270FE02B4FB84201D105270AE02A4F9A
:10176000B84201D1062705E0284FB84201D107272A
:1017700000E0082707FA08F72743CCF80878DAF8DA
:1017800000405746D1F804C09C435FEACC2C00D5FA
:101790001C433C60DBF800405F46D1F804C09C432A
:1017A0005FEA8C2C00D51C433C60DEF80040774695
:1017B000D1F804C09C435FEA8C3C00D51C433C60DC
:1017C000084F083F3C68D1F804C09C435FEACC3C1A
:1017D00000D51C433C60521C102AFFF42FAFBDE81B
:1017E000F88F0000083C01404438024000300140BE
:1017F000000002400004024000080240000C0240C9
:10180000001002400014024000180240001C024078
:101810000069084000D0012070470AB1816170471B
:101820000904FBE7014880687047000008000020B9
:1018300070B5040025D094F83D00002520B984F847
:101840003C50204600F0B8F8242084F83D00206881
:10185000016821F0010101602068016841F4004144
:1018600001602068016821F40041016000F02EFA57
:101870004D4A6168914201D84C4900E04C49884288
:1018800001D2012070BD4B492368B0FBF1F15E68C5
:1018900026F03F060E435E606368934206D94FF41C
:1018A000967359434FF47A73B1FBF3F12368491CE3
:1018B0001E6A26F03F06314319626168914210D8D2
:1018C0004900401EB0FBF1F2521CC2F30B02042A85
:1018D00001D2042022E0B0FBF1F0401CC0F30B0069
:1018E0001CE0A268F2B301EBC10303EB0116431E37
:1018F000B3FBF6F35B1C43F480431B0549D092B362
:1019000001EBC10202EB0111401EB0FBF1F0401CE3
:10191000C0F30B0040F4804040F400402168CA69E5
:101920004CF6FF739A431043C861D4E90710014392
:101930002068026822F0C00211430160D4E903016B
:1019400001432068826848F2FF339A431143816063
:10195000D4E9050108432168CA6822F0FF02104358
:10196000C86001E00EE016E02068016841F0010166
:1019700001602564202084F83D00256384F83E50F2
:10198000002070BD01EB4106431EB3FBF6F35B1C68
:10199000B3E70120C2E701EB4101401EB0FBF1F0CB
:1019A000401CC0F30B00B7E7A086010080841E0036
:1019B00000093D0040420F00F0B587B004461421F5
:1019C0006846FEF7C8FC2768234CDFF888C0002271
:1019D000214912230325042620481034674518D1D5
:1019E0000F6847F002070F60096802AF01F00201BB
:1019F0000591C021CDE9001387E864006946FFF72F
:101A00000FFE206840F400102060206800F40010F1
:101A10001CE0DFF84CC0674519D10F6847F002079A
:101A20000F60096802AF01F0020105914FF44061B7
:101A3000CDE9001387E864006946FFF7F1FD2068EF
:101A400040F480002060206800F48000059007B01A
:101A5000F0BD000000540040303802400004024055
:101A60000058004002488168027811448160704744
:101A7000080000200B4810B5016841F400710160B6
:101A8000016841F480610160016841F48071016086
:101A9000032000F06FF80F2000F006F800F024F8A3
:101AA000002010BD003C024070B50D4D04464FF4BF
:101AB0007A712878B1FBF0F00A490968B1FBF0F0BF
:101AC00000F00CFB48B9102C07D200222146501E12
:101AD00000F030F800206C6070BD012070BD000087
:101AE00008000020140000200A4808B5016841F4ED
:101AF00080410160006800F4804000900548001FAC
:101B0000016841F080510160006800F08050009051
:101B100008BD000044380240002809DB00F01F0225
:101B2000012191404009800000F1E020C0F800113F
:101B300070470000F0B40E4B1B680C46C3F3022341
:101B4000C3F10705042D00D90425191D072901D269
:101B5000002300E0DB1E012606FA05F1491E2140A4
:101B600099409E40761E16403143F0BC02F009B801
:101B70000CED00E0064900F0070208684FF6FF038D
:101B8000184040EA0220034A1043086070470000F2
:101B90000CED00E00000FA052DE9F0470E460500C7
:101BA00065D0DFF81481D8F80000F7B200F0070024
:101BB000B04207D288F80070D8F8000000F00700A3
:101BC000B04254D128683D4C810712D5400703D557
:101BD000206840F4E05020602878000703D5206892
:101BE00040F4604020602068A96820F0F0000843BD
:101BF00020602878C0072DD030496868083901284E
:101C000012D0022813D0032811D0096889070029AF
:101C10002DDA216821F0030101432160FFF702FE64
:101C2000814641F2883A0EE009688903EFE70968C6
:101C30008901ECE7FFF7F6FDA0EB0901514502D958
:101C40000320BDE8F0872068696800F00C00B0EB65
:101C5000810FEFD1D8F80010404601F00701B142E2
:101C600007D90770006800F00700B04201D00120DA
:101C7000E7E72878400705D52068E96820F4E050B8
:101C8000084320602878000706D52068296920F4D9
:101C9000604040EAC100206000F038F82168084A3E
:101CA000C1F30311515CC84006490860064800684A
:101CB000FFF7FAFE0020C4E7003C0240083802406B
:101CC0007A450008140000200C0000200448054953
:101CD00000680968044AC1F38221515CC84070471A
:101CE00014000020083802408A45000804480549CD
:101CF00000680968044AC1F34231515CC84070472A
:101D000014000020083802408A450008154810B524
:101D1000006810F00C02144813D01449042A0FD0A4
:101D2000082A0ED10F4C241F2268236802F03F02BC
:101D30005B0207D52068C0F38810A0FB010106E014
:101D4000084610BD2168C1F38811A1FB00010023E2
:101D5000FEF78AFA2168C1F30141491C4900B0FB32
:101D6000F1F010BD083802400024F40040787D01F5
:101D70002DE9F84F04006ED02078DFF84C93C007AF
:101D8000A9F104054AD009F104000168C1F38101F9
:101D9000012908D00068C0F3810002280AD1D9F8CF
:101DA0000000400206D52868800337D56068002807
:101DB000E1D033E06068B0F5803F10D0B0F5A02FDF
:101DC000286810D020F480302860286820F4802013
:101DD00028606068A8B1FFF725FD06460DE0286879
:101DE00040F48030F4E740F480202860F7E700BF3B
:101DF000FFF718FD801B642873D828688003F7D587
:101E00000CE0FFF70FFD064605E000BFFFF70AFDF7
:101E1000801B6428F0D828688003F7D42078DFF886
:101E2000AC8280074FF0000A3ED5A748001D01682C
:101E300011F00C0F08D00068C0F3810002280BD10C
:101E4000D9F80000400207D42868800716D5E0685A
:101E5000012800D112E033E1E068B8B10120C8F8F0
:101E60000000FFF7DFFC064605E000BFFFF7DAFCE5
:101E7000801B0228C0D828688007F7D52868216908
:101E800020F0F80040EAC10028600DE0C8F800A08A
:101E9000FFF7C8FC064604E0FFF7C4FC801B0228DD
:101EA0001FD828688007F7D42078000722D5864FEE
:101EB00087486169703771B101210160FFF7B2FC99
:101EC000064604E0FFF7AEFC801B022809D83868FC
:101ED0008007F7D50EE0C0F800A0FFF7A3FC064688
:101EE00005E082E0FFF79EFC801B02287DD8386861
:101EF0008007F7D42078400768D5DFF8CCB10027F9
:101F00000BF13C0BDBF80000C0000BD4DBF8001039
:101F100041F08051CBF80010DBF80000012700F001
:101F2000805000906B4E3068C00510D4306840F48B
:101F300080703060FFF776FC009005E0FFF772FCE0
:101F40000099401A022850D83068C005F6D55E4E78
:101F5000A0686C3601280FD00528306810D020F01A
:101F600001003060306820F004003060A068B8B133
:101F7000FFF758FC00900FE0306840F00100F4E7F4
:101F800040F004003060F7E7FFF74CFC0099411A7D
:101F900041F28830814266D830688007F4D50EE07F
:101FA000FFF740FC009007E0FFF73CFC0099411A66
:101FB00041F28830814256D830688007F4D42FB17E
:101FC000DBF8001021F08051CBF80010A069C8B3F5
:101FD0003D49091D0968C1F3810102294AD002283F
:101FE000504607D0C8F8600000E03CE0FFF71AFC5C
:101FF00004463BE04746C8F86000FFF713FC06467E
:1020000005E000BFFFF70EFC801B02282BD82868D4
:102010008001F7D4D4E907010843A16A2E4A490890
:1020200002EB0141626A41EA8211084394F82C10E4
:1020300040EA0161C9F8001001203866FFF7F2FBA1
:10204000044606E03EE000BFFFF7ECFB001B022861
:1020500009D828688001F7D534E000BFFFF7E2FB1C
:10206000001B022802D90320BDE8F88F28688001F0
:10207000F4D427E00128F7D0D9F80000E26900F491
:10208000800191421CD1226A00F03F01914217D198
:1020900047F6C071626A0140B1EB821F10D1A26A9B
:1020A0004FF0FF3300F4403103EB5202B1EB024F2B
:1020B00006D194F82C1000F07060B0EB016F01D0E5
:1020C0000120D1E70020CFE704380240000047425A
:1020D000800E4742007000400000FFFF10B5401E18
:1020E000B0F1807F01D3012010BD4FF0E02460618A
:1020F0000F21601701F045FD0020A061072020613D
:10210000002010BD7047704770B590F83C20012A40
:1021100032D0012480F83C40022280F83D20036840
:102120005A689D6822F070060A6832435A60134B61
:1021300002689A4214D0B2F1804F11D0104B9A42EB
:102140000ED0104B9A420BD00F4B9A4208D00F4B37
:102150009A4205D00E4B9A4202D00E4B9A4204D1BD
:10216000496825F080031943916080F83D400021C3
:1021700080F83C10084670BD022070BD0000014090
:102180000004004000080040000C00400004014032
:10219000004001400018004010B5040003D094F83E
:1021A0003D0010B107E0012010BD002084F83C0084
:1021B000204600F01FF8022084F83D00211D206811
:1021C00001F042FA012084F8460084F83E0084F8C9
:1021D0003F0084F8400084F8410084F8420084F80D
:1021E000430084F8440084F8450084F83D00002052
:1021F00010BD000008B501681C48814208D11C4888
:10220000016841F001010160006800F001000EE08A
:102210001748001FB1F1804F0BD0164A91421AD1D6
:10222000016841F080010160006800F080000090CA
:1022300008BD016841F0010101600068002200F062
:102240000100009011461C20FFF774FCBDE8084017
:102250001C20FFF761BC084A9142E9D1016841F4B2
:1022600080710160006800F48070E0E700000140C8
:1022700044380240001C00400020004090F83D100F
:10228000012901D001207047022180F83D1001682A
:10229000CA6842F00102CA6000681149884214D03D
:1022A000B0F1804F11D00F4988420ED00E498842BC
:1022B0000BD00E49884208D00D49884205D00D49FF
:1022C000884202D00C49884204D1816801F007019C
:1022D000062903D0016841F0010101600020704728
:1022E000000001400004004000080040000C0040D5
:1022F00000040140004001400018004070B5044651
:1023000090F83C000025012817D0012684F83C6095
:10231000022084F83D002068826822F0770222F4CF
:102320007F4282600868502838D00DDC20284FD0CA
:1023300005DC90B3102811D14AE0022070BD30288E
:1023400046D040280AD13BE060282FD070280DD01D
:10235000B0F5805F03D0B0F5005F12D0012584F89E
:102360003D60002084F83C00284670BDCB68D1E970
:102370000121206801F0D4F92068816841F07701DB
:1023800009E0CB68D1E90121206801F0C9F9206892
:10239000816841F480418160E1E719E0CA684968D9
:1023A000206801F0D7FA5021206806E0CA68496821
:1023B000206801F0E0FA6021206801F0BBF9CEE767
:1023C000CA684968206801F0C5FA40212068F4E72E
:1023D000226801461046F0E770472DE9F0410446B7
:1023E0000068C66805694FF00007A90713D5B10753
:1023F00011D5F91E016101202077206880698007CE
:10240000204602D0FFF7E8FF04E000F0B7F82046CE
:1024100000F049F92777680716D5700714D52168A9
:102420006FF004000861022020772068806910F4B2
:10243000407F204602D0FFF7CFFF04E000F09EF877
:10244000204600F030F92777280715D5300713D537
:1024500021686FF008000861042020772068C069B7
:102460008007204602D0FFF7B7FF04E000F086F8AF
:10247000204600F018F92777E80616D5F00614D59F
:1024800021686FF010000861082020772068C0697B
:1024900010F4407F204602D0FFF79EFF04E000F0DA
:1024A0006DF8204600F0FFF82777E80708D0F0071E
:1024B00006D021686FF001000861204600F0F4F8B2
:1024C000280608D5300606D521686FF0800008611F
:1024D0002046FFF717FE680608D5700606D5216866
:1024E0006FF040000861204600F01DF9A8060AD5EB
:1024F000B00608D521686FF0200008612046BDE8CD
:10250000F041FFF700BEBDE8F081000070B586B075
:10251000044614216846FDF71EFF144E256800226C
:102520001349022309241348B54209D10D6845F027
:1025300001050D60096801F00101059140210BE0E2
:102540000D4EB54210D10D6845F001050D600968CA
:1025500001F00101059180210091CDE90132CDE921
:1025600003246946FFF75CF806B070BD001C00400C
:10257000303802400000024000200040704770B533
:10258000044690F83C0000260D4601280FD001209B
:1025900084F83C006AB1042A1DD0082A2FD00C2AE6
:1025A0003FD00126002084F83C00304670BD022058
:1025B00070BD206801F0C6F82068816941F008010B
:1025C00081612068816921F004018161206881694D
:1025D0002A69114311E0206801F0E4F8206881695C
:1025E00041F4006181612068816921F48061816129
:1025F000206881692A6941EA02218161D2E7206865
:1026000001F006F92068C16941F00801C161206844
:10261000C16921F00401C1612068C1692A691143BF
:1026200011E0206801F028F92068C16941F40061D7
:10263000C1612068C16921F48061C1612068C169FC
:102640002A6941EA0221C161ACE710B5040003D058
:1026500094F83D0010B107E0012010BD002084F87F
:102660003C00204600F01EF8022084F83D00211DA9
:10267000206800F0E9FF012084F8460084F83E005D
:1026800084F83F0084F8400084F8410084F8420058
:1026900084F8430084F8440084F8450084F83D0041
:1026A000002010BD70477047074988420AD107488B
:1026B0004FF6FE724188491C89B24180914201D98E
:1026C00000214180704700004802002000000020E7
:1026D00070B5044690F83C00012812D0012584F81A
:1026E0003C50022084F83D00204601F0EDF8010046
:1026F0004FF0000007D084F83D5084F83C000120E2
:1027000070BD022070BD2168CA6822F04002CA6014
:102710002168CA6822F48042CA6084F83D5084F877
:102720003C00002070BD704770B5040004D094F8E0
:102730004100002510B106E0012070BD84F8405032
:10274000204600F023F8242084F841002068C16866
:1027500021F40051C160204601F046F9206801696A
:1027600021F4904101612068416921F02A01416111
:102770002068C16841F40051C1606564202084F87C
:10278000410084F842006563002070BD2DE9F04FE0
:1027900087B0044614216846FDF7DDFD604E022136
:1027A000D4F800C05F480322072300258F064FF0AE
:1027B000400A4FF48069B44546D15A4E1436D6F8D3
:1027C00000C04CF0100CC6F800C0366806F01006C9
:1027D0000596066846F001060660006800F00100F4
:1027E000059050028DE8230069464F48CDE9032348
:1027F000FEF716FF4E4E4D48B8463060C6E90175EB
:10280000C6E903597561B561F56135624F463046D9
:102810007562FEF789FE08B1FEF764F8E663434887
:10282000B463434E78306036C6E903577561B561CD
:10283000F5613562756286E80105304669E0A66398
:10284000B46307B0BDE8F08F364EDFF8E88010368D
:10285000DFF8E4B0C44519D1346844F4003434607E
:10286000346804F400340594046844F008040460F7
:10287000006800F00800059060208DE8230069469C
:102880005846CDE90323FEF7CBFEDAE7DFF8AC804C
:10289000C445D6D1D6F800C04CF4802CC6F800C090
:1028A000366806F480260596066846F00806066037
:1028B000006800F0080005904FF440708DE8230098
:1028C00069465846CDE90323FEF7AAFE184E1C4878
:1028D000C036C8463060C6E90175C6E9035975615E
:1028E000B561F561356230467562FEF71DFE08B1CF
:1028F000FDF7F8FFE663B463124E1148C6E90358CA
:102900007561B561F56135623030756286E88104C4
:102910003046FEF709FE002891D0FDF7E3FF8EE771
:102920000010014030380240000002404064024084
:10293000F803002000440040000C02400048004022
:1029400028600240180500202DE9F843044690F85D
:102950004100984616460D46202802D00220BDE8C8
:10296000F88385B17EB100206064212084F84100A5
:10297000FEF758FFA6848146E684A0682027B0F5BC
:10298000805F02D003E00120E9E7206910B12E4604
:1029900000250EE000260CE08021204601F0AAF878
:1029A000A8B9C6B116F8010B21684860E08C401E3A
:1029B000E084E08C4B464FF00002CDF80080002808
:1029C000EAD14FF04001204601F094F840B184F87C
:1029D00041700320C3E735F8020BC0F30800E3E7BA
:1029E00084F841700020BAE7FEE7000010B5054A00
:1029F000002304241360C2E90134D3600823136167
:102A0000017010BDA006002000B58BB00E2005900F
:102A100000200121CDE90601009001900290CDE94E
:102A200003010D20CDE9081069460648FEF724F998
:102A300010210448FEF7A6F80248FEF771FC0BB01F
:102A400000BD00003001002000B58BB00121002046
:102A5000CDE90510029000900190039004900D20A4
:102A6000CDE90810079169460548FEF705F90221EE
:102A70000348FEF787F80248FEF752FC0BB000BD92
:102A80000801002010B54448FDF72EFF4248B0EE83
:102A9000600A001DFDF728FF3F48B0EE410A0830EC
:102AA000FDF722FF3C48B0EE610A0C30FDF71CFF39
:102AB0003948B0EE420A1030FDF716FF3648B0EE46
:102AC000620A1430FDF710FF3348B0EE430A1830A5
:102AD000FDF70AFF3048B0EE630A1C30FDF704FF33
:102AE0002D48B0EE440A2030FDF7FEFE2A48B0EE35
:102AF000640A2430FDF7F8FE4FF0FF342346042229
:102B000025492648FFF720FF234923460422091DB3
:102B10002248FFF719FF20492346042208311F48A5
:102B2000FFF712FF1C49234604220C311B48FFF714
:102B30000BFF19492346042210311848FFF704FF00
:102B400015492346042214311448FFF7FDFE1249AB
:102B50002346042218311148FFF7F6FE0E4923469A
:102B600004221C310D48FFF7EFFE0B4923460422D7
:102B700020310A48FFF7E8FE0749234604222431A2
:102B80000648FFF7E1FE234603490422BDE8104052
:102B900008390248FFF7D8BE240000202003002097
:102BA00010B54448FDF7A0FE4248B0EE600A001D93
:102BB000FDF79AFE3F48B0EE410A0830FDF794FE5B
:102BC0003C48B0EE610A0C30FDF78EFE3948B0EE9D
:102BD000420A1030FDF788FE3648B0EE620A143023
:102BE000FDF782FE3348B0EE430A1830FDF77CFE55
:102BF0003048B0EE630A1C30FDF776FE2D48B0EE8B
:102C0000440A2030FDF770FE2A48B0EE640A2430F2
:102C1000FDF76AFE4FF0FF3423460422254926487B
:102C2000FFF792FE234923460422091D2248FFF79D
:102C30008BFE20492346042208311F48FFF784FEFB
:102C40001C49234604220C311B48FFF77DFE19491D
:102C50002346042210311848FFF776FE1549234613
:102C6000042214311448FFF76FFE12492346042250
:102C700018311148FFF768FE0E49234604221C3123
:102C80000D48FFF761FE0B492346042220310A4814
:102C9000FFF75AFE07492346042224310648FFF76E
:102CA00053FE234603490422BDE810400839024878
:102CB000FFF74ABE24000020B00300207FB50024A7
:102CC00015480094019402941249039401604FF452
:102CD00080314160090204618160047680F82040FF
:102CE0000E49C0E90A140125C561C46080F830406E
:102CF0004561FDF7EDFE08B1FDF7F4FDCDE90045B6
:102D0000694605480294FDF73DFE002801D0FDF715
:102D1000E9FD7FBD00200140C00000200100000F40
:102D2000104810B50E4901600321416000214FF4A5
:102D3000E0228160C0E903124FF480024261017613
:102D4000417601228276C27602774177FEF793F9C7
:102D5000002803D0BDE81040FDF7C4BD10BD000041
:102D60000064004008010020104810B50E490160C1
:102D70000621416000214FF4E0228160C0E9031286
:102D80004FF4800242610176417601228276C2765A
:102D900002774177FEF76FF9002803D0BDE81040B5
:102DA000FDF7A0BD10BD000000680040300100200C
:102DB000194808B5016841F480010160016801F417
:102DC00080010091016841F4001101600068002257
:102DD00000F40010009011460C20FEF7ABFE0C2012
:102DE000FEF79AFE002211460E20FEF7A3FE0E20EB
:102DF000FEF792FE002211463A20FEF79BFE3A2093
:102E0000FEF78AFE002211464620FEF793FEBDE83B
:102E100008404620FEF780BE303802402DE9F04FD2
:102E200087B014216846FDF796FA464800240168E9
:102E300041F004010160016801F00401059101689D
:102E400041F080010160016801F080010591016895
:102E500041F001010160016801F001010591016883
:102E600041F002010160016801F002010591016871
:102E700041F010010160016801F010010591016845
:102E800041F0080101600068DFF8BCA000F0080014
:102E90004FF400550590002229465046FEF7BDFC30
:102EA000DFF8A8904FF4C058002241464846FEF78C
:102EB000B4FCDFF89CB0002230215846FEF7ADFC90
:102EC0000126CDE90056CDE9026469465046FEF779
:102ED000A7FB102002258DE8310069461D48FEF74A
:102EE0009FFB3027009769465046CDE90145FEF724
:102EF00097FB03208DE8310069465846FEF790FBAA
:102F000028028DE8310069461348FEF789FBCDE9B8
:102F10000254CDE9008669464846FEF781FBC02091
:102F2000CDE90004694650460294FEF779FBCDE9ED
:102F30000254CDE9007669465846FEF771FB07B0AA
:102F4000BDE8F08F3038024000080240000C02401B
:102F50000004024000000240001002400D4810B57D
:102F60000B4901600C49416000214FF480428160AF
:102F7000C0E9031241618161C1610162FEF758FC41
:102F8000002803D0BDE81040FDF7ACBC10BD000028
:102F90000054004058010020A08601000D4810B5E3
:102FA0000B4901600C49416000214FF4804281606F
:102FB000C0E9031241618161C1610162FEF738FC21
:102FC000002803D0BDE81040FDF78CBC10BD000008
:102FD00000580040AC010020A086010010B588B068
:102FE0001C216846FDF7B7F9144813490024C0E9CD
:102FF00000144FF6FF71C0E9024104618461FFF7DC
:10300000CBF808B1FDF76EFC0C48FFF71EFB08B1CA
:10301000FDF768FC6020CDE90004029400226946B7
:1030200006480494FFF7ABFA08B1FDF75BFC0348D0
:10303000FFF76CFA08B010BD001C004090020020A1
:1030400010B588B01C216846FDF785F9144813496E
:103050000024C0E900144FF6FF71C0E90241046189
:103060008461FFF799F808B1FDF73CFC0C48FFF7C5
:10307000ECFA08B1FDF736FC6020CDE900040294BB
:103080000022694606480494FFF779FA08B1FDF773
:1030900029FC0348FFF73AFA08B010BD00200040B1
:1030A000D802002010B58CB0002405940694079433
:1030B000142168460894FDF74EF91A4809941849F6
:1030C0000A94C0E900144FF6FF71C0E9024104619F
:1030D00044618461FFF760F808B1FDF703FC4FF429
:1030E0008050059005A90F48FFF708F908B1FDF7D2
:1030F000F9FB0620CDE9000469460A48FFF7E8FA23
:1031000008B1FDF7EFFB099409A906480A94FEF7F8
:10311000FBFF002801D0FDF7E5FB0CB010BD00005F
:10312000000001400002002010B586B000241648BF
:10313000009401940294039404944FF08041059408
:10314000016044F29F11C0E90114C721C0E90314D2
:103150008461FFF721F808B1FDF7C4FB4FF48050FC
:10316000009069460848FFF7C9F808B1FDF7BAFBB7
:10317000049404A904480594FEF7C6FF002801D072
:10318000FDF7B0FB06B010BD480200200C4810B59A
:103190000A4901604FF4E1314160002181600C2255
:1031A000C160C0E904128161C161FFF7BDFA002866
:1031B00003D0BDE81040FDF795BB10BD00100140E5
:1031C000200300200C4810B50A4901604FF4E1319A
:1031D0004160002181600C22C160C0E9041281615C
:1031E000C161FFF7A1FA002803D0BDE81040FDF748
:1031F00079BB10BD00440040680300200C4810B5A6
:103200000A4901604FF4E1314160002181600C22E4
:10321000C160C0E904128161C161FFF785FA00282D
:1032200003D0BDE81040FDF75DBB10BD0048004075
:10323000B0030020FEE7000070B5044608880B4686
:10324000154640BA1021DFED180A9FED180A00F06C
:1032500080FD84ED060A5888102140BAF3EE0E0A6C
:10326000BBEE0E0A00F075FD84ED050A988810216A
:1032700040BAF2EE080ABAEE080A00F06AFD84EDE0
:10328000070AD88840BA00F08CFE9FED091B53EC6A
:10329000112B00F0D5FE00F071FD2062C5F3044053
:1032A00084F8240070BD000000003444000034C4E1
:1032B0009A9999999999B93F10B502212DED028BF0
:1032C0003A48FFF793FB01213948FFF78FFBFFF7DF
:1032D000BBFBFFF799FB1420FEF790F9012133485F
:1032E00000F040F91420FEF789F90121304800F080
:1032F00039F91420FEF782F901212C4800F088F8F2
:103300001420FEF77BF90121294800F081F81420F0
:10331000FEF774F9254800F0D3F81420FEF76EF993
:10332000234800F0CDF81420FEF768F9204800F09B
:1033300001F91420FEF762F91C4800F0FBF8142094
:10334000FEF75CF99FED1B8A1848B0EE480A00F0C2
:103350009BF81420FEF752F9B0EE480A144800F02A
:1033600093F81420FEF74AF99FED138A0F48B0EE48
:10337000480A00F0BFF81420FEF740F9B0EE480A02
:103380000B4800F0B7F89FED0D8A0848B0EE480AE8
:1033900000F0C0F81420FEF731F9B0EE480ABDEC99
:1033A000028B0348BDE8104000F0B4B8AC05002023
:1033B00018060020000000000000C84266663E417A
:1033C000FEE77047F0B41488968901EE904A91F8B0
:1033D000245090F82420F8EE614A01EE906A1830EB
:1033E0001831B8EE614A01EE905A90EC030A012BB5
:1033F000F8EE613A01EE902A91EC032AF8EE611A98
:1034000002D0F0BCFFF73EBBF0BCFFF7C9BB704772
:1034100000EE101A732247F20501B8EE400A00F0E0
:1034200001B8000007B500212DED020B82B000911C
:1034300001910078104908431049662A4860BDF898
:103440001400ADF8000002D0732A03D008E08DED1F
:10345000010A05E0BCEEC00A10EE100A8DF8040067
:10346000074B6A4605490748FDF79EFB0120FEF71A
:10347000C5F807B000BD000000040012A00600203F
:10348000B00000200801002010B59FED0C1A044682
:103490002DED028BB0EE408A9FED070A662247F2BF
:1034A000160168EE000A80EE810AFFF7BBFF84ED8B
:1034B000038ABDEC028B10BDDB0F49400000344392
:1034C0001CB500210091019101218DF800100078B8
:1034D0000449064B084304496A4648600448FDF71E
:1034E00063FB1CBD00040006A0060020B000002005
:1034F0000801002010B504462DED028BB0EE408A85
:10350000662247F21701FFF78DFF84ED138ABDECA9
:10351000028B10BD10B504462DED028BB0EE408A33
:10352000662247F20B01FFF77DFF84ED118ABDECA7
:10353000028B10BD1CB50021009101910078054956
:10354000064B084304496A4648600548FDF72CFBD2
:103550001CBD000000040003A0060020B0000020F5
:10356000080100201CB5002200928DF80010019285
:103570000078054940F00420044B48606A4604483E
:10358000FDF712FB1CBD0000A0060020B0000020CB
:1035900008010020FEF766BA30B593B030216846C6
:1035A000FCF7D9FE14210CA8FCF7D5FE1D48002518
:1035B000016841F080510160006800F08050119076
:1035C0001948016841F4804101600068022400F458
:1035D00080401190012003901020049000940694E4
:1035E0000820CDE90750A820CDE9090404200B905C
:1035F0006846FEF7BDFB08B172B6FEE70CA90F20C6
:1036000081E831004FF4A0500F904FF4805010909B
:1036100005210CA8FEF7C0FA002801D072B6FEE71B
:1036200013B030BD403802400070004002480168CD
:1036300041F470010160704788ED00E00148FEF739
:10364000CCBE000048020020F0B50268294C2A4D8B
:103650002A4E2B4F2B4B4FF0804CA04209D0604597
:1036600007D0A84205D0B04203D0B84201D098425A
:1036700004D122F0700E4A6842EA0E02A0421BD02A
:10368000604519D0A84217D0B04215D0B84213D027
:10369000984211D01C4DA8420ED01C4DA8420BD010
:1036A0001B4DA84208D01B4DA84205D01A4DA84278
:1036B00002D01A4DA84203D122F44075CA682A43A9
:1036C0004D6922F080022A4302608A68C2620A6859
:1036D0008262A04201D0984201D1096901630121AF
:1036E00041610169C90703D0016921F0010101614C
:1036F000F0BD000000000140000400400008004050
:10370000000C004000040140004001400044014022
:103710000048014000180040001C0040002000400C
:1037200010B5846842EA032224F47F440A4322430A
:10373000826010BD826822F070020A4342F00701E5
:1037400081607047F0B5036A026A22F001020262EA
:1037500042688469124E24F073050C682C4323F0F0
:1037600002058B682B430D4DA84201D0B04205D114
:1037700023F00807CB683B4323F00403A84201D0A1
:10378000B04205D14D6922F4407215438A692A433B
:1037900042608461496841630362F0BD00000140FA
:1037A00000040140F0B5026A036A23F010030362CB
:1037B000436884690D6824F4E64444EA05248D686E
:1037C00022F0200242EA05120F4D104EA84201D00D
:1037D000B04206D1CF6822F0800242EA071222F0FE
:1037E0004002A84201D0B04207D14D6923F44063A2
:1037F00043EA85038D6943EA850343608461496830
:1038000081630262F0BD000000000140000401403D
:10381000F0B5026A036A23F4807303624368C469E3
:1038200022F4007224F073050C68124E2C438D684C
:1038300042EA05220E4DA84201D0B04206D1CF681F
:1038400022F4006242EA072222F48062A84201D0F8
:10385000B04207D14D6923F4405343EA05138D6903
:1038600043EA05134360C4614968C1630262F0BD65
:10387000000001400004014030B5046A026A22F4ED
:10388000805202624268C3690D6823F4E64343EA4A
:1038900005238D6824F4005444EA0534084DA842F9
:1038A00002D0084DA84204D14D6922F4804242EA78
:1038B00085124260C36149680164046230BD000042
:1038C000000001400004014070B5036800249A68BC
:1038D00022F070054A682A4322F007050A682A4345
:1038E0009A604A6812F00F0F31D11211082A2ED2B5
:1038F000DFE802F02E2E2E2E0B2127040B69D1E9D2
:1039000002210068FFF70CFF22E00A68052A10D0A8
:103910000268136A156A25F0010515620268956947
:10392000096925F0F00545EA01119161006803621B
:103930000EE0012070BD0A698968006800F00AF88D
:1039400006E00A698968006800F015F800E00124C3
:10395000204670BD10B5036A046A24F001040462B5
:10396000846924F0F00444EA021423F00A020A43B2
:103970008461026210BD10B5036A046A24F0100469
:103980000462846923F0A00324F4704444EA023200
:1039900043EA01118261016210BD01680C3151E8F6
:1039A000002F22F4907241E80023002BF5D101682A
:1039B000143151E8002F22F0010241E80023002BCE
:1039C000F5D1016B012909D101680C3151E8002FB3
:1039D00022F0100241E80023002BF5D1202180F8CD
:1039E000421000210163704770B504460068016908
:1039F000E26821F44051114301612169A068E26944
:103A000008436169114308432168CA6849F20C639D
:103A10009A430243CA6020684169A26921F4407157
:103A20001143416131492068884202D030498842BF
:103A300002D1FEF75BF901E0FEF748F9E2690023E5
:103A4000192164253226B2F5004F626828D0A0FB08
:103A50000101930F9200FCF707FC0146B0FBF5F063
:103A60006FF01802504301EB800006EB0010B0FB32
:103A7000F5F000F0F002B1FBF5F002EB0012B1FB43
:103A8000F5F06FF01803584301EB800006EB0010CF
:103A9000B0FBF5F000F00F0021681044886070BDA5
:103AA000A0FB010192185B41FCF7DEFB0146B0FB75
:103AB000F5F00201B1FBF5F06FF01803584301EB8C
:103AC000800006EBC000B0FBF5F000F0F80002EB60
:103AD0004002B1FBF5F0584301EB800006EBC0005B
:103AE000B0FBF5F000F00700D6E700000010014041
:103AF000001401402DE9F843984617460D46044648
:103B0000089E24E0701C22D0FDF78CFEA0EB08007C
:103B1000B0421AD8CEB12068C168490717D5802DA8
:103B200015D0402D13D00168C94309070FD401688F
:103B30000025406800902046FFF72FFF08206064B2
:103B400084F840500120BDE8F8830320FBE720689B
:103B5000006835EA000004D00020B842D2D000202E
:103B6000F1E70120F9E70000044B012804D000220E
:103B700010211846FDF751BE0122F9E7000402406A
:103B8000FEE70907090E002804DB00F1E02080F8B9
:103B90000014704700F00F0000F1E02080F8141DC1
:103BA0007047000010B520210E48FDF731FE08B126
:103BB000042010BD0C4C01212046FDF729FE08B160
:103BC000032010BD4FF400710848FDF721FE08B135
:103BD000012010BD02212046FDF71AFE0028F8D072
:103BE000022010BD00080240000402400010024004
:103BF00003480088962801D00020704701207047B4
:103C0000020000202DED028BFDF734FFFFF7C4FC0E
:103C10004FF4FA60FDF7F2FCFFF700F9FFF7C8F880
:103C2000FFF740FAFFF74AF8FFF77AF8FFF79CF83A
:103C3000FFF794F9FFF7B2F9FFF7D0F9FFF700FAB1
:103C4000FFF7A4FAFFF7BEFAFFF7D8FAFFF76CFA0E
:103C5000FFF732FB2248FEF711FB9FED228A224C30
:103C6000224E4FF400550020FFF77EFF0023204A2C
:103C700020492148FFF7A6FBB0EE480A1E48FFF78F
:103C800003FCB0EE480A1B48FFF7FEFBFFF78AFF74
:103C9000C0B22070042807D101211748FFF762FC49
:103CA00001211448FFF75EFC2078032805D1124853
:103CB000FFF740FC0F48FFF73DFC2078012802D1B8
:103CC0000B49FCF755FD2078022803D10849002054
:103CD000FCF74EFD012229463046FDF79EFDC2E766
:103CE0004802002000000000000000200008024000
:103CF0009405002018060020AC05002010B50446ED
:103D00002DED048BB0EE409A10EE900A00F0B6FB59
:103D100041EC180BB0EEC90A10EE100A00F0AEFB31
:103D200053EC182B00F0C0FA94ED060A41EC180B86
:103D3000B0EEC00A10EE100A00F0A0FB53EC182BF6
:103D400000F07CFA03D80120BDEC048B10BD0020EC
:103D5000FAE701EE100A70EEC00A0122B8EE411A2D
:103D60008A40521E20EE811A00EE902AF8EE601A68
:103D7000C1EE210A30EE800A7047000021F00042B7
:103D8000A2F16052B2F5801F01F0004328BFD2F1CA
:103D90007F6C0BD95FEA001C43EAC20242EB507011
:103DA00018BF704728BF20F001007047B2F5801F90
:103DB000BCBF184670474FEA410C1CF5001F02D2E9
:103DC000084600F0D1BB70B500F0E4F900000089AE
:103DD000FFF7F6BF4FF00040A0F5800070470000ED
:103DE00010B591EA030F48BF83F0004300F16482ED
:103DF000841A71EB030C05D2121943EB0C03001B60
:103E000061EB0C01DFF824E14FEA1154A4EB135CE1
:103E10001EEA430F18BF9EEA445F73D023EA0E03E5
:103E2000DCF1200E21EA045143F4801332D322FA4C
:103E30000CFE10EB0E0023FA0CFE41EB0E01CCF150
:103E4000200E03FA0EFE10EB0E0051F10001B1F549
:103E5000801FCCF1200E32D201EB045112FA0EF287
:103E6000BDE8104058BF7047401C38BF5FEA4202AF
:103E700018BF7047002814BF20F0010041F1000175
:103E80004FEA410313F5001F38BF7047A1F1C0414D
:103E900000F0CEB9012A43EB0302ACF1200CDCF1B7
:103EA0001F0E32BF4FF0000E23FA0CF310EB03008D
:103EB00041EB0451B4EB115FD0D0A1EB045101F5FB
:103EC000801149085FEA300001EB04510ED350F134
:103ED000000038BF12FA0EFE08D1BDE81040C9E755
:103EE000401C38BF5FEA4202CAD1C3E7BDE81040B8
:103EF0004FEA410313F5001F38BF7047A1F1C041DD
:103F000000F096B99EEA445F08D011EA5E0FBDE862
:103F1000104004BF01F0004100207047BDE8104090
:103F200070B500F037F900BF64FBBE3E0000E0FF53
:103F3000491058BFC1F140415B1058BFC3F1404325
:103F40008B42EFF3008070474FEA1153A3F5806373
:103F5000D3F11E03A8BFD3F1200C08DB4FF00042C1
:103F600042EAC12252EA505232FA03F07047094243
:103F70000BD4102BC4BF0020704703F5787CBCF134
:103F8000FF3F05D04FF0FF3070474FF00000704703
:103F900070B500F0FFF800BF499224800020704700
:103FA000F0E7B0FA80F310FA03F10AD0C3F11D0371
:103FB00003F580634FEA41504FEA035202EBD121EF
:103FC00070474FF00000704751EA030C17D41CF5FE
:103FD000801F58BFBCF5801F00F10680994218BFB2
:103FE000704708BF9042704707D711F5801F58BF30
:103FF00013F5801F19D499427047894270471CF508
:10400000801F08D5BCF5801FF7D58B4218BF7047BD
:1040100008BF824270474FF4001C1CEB410F38BFB1
:104020001CEB430F01D28B42704770B500F0B2F821
:10403000922449004FF000514FF08053FFF778BFB2
:10404000DFF848C170B51CEA111E1EBF1CEA13152B
:104050009EEA0C0F95EA0C0F00F06F8081EA0304D2
:1040600023EA4C134EEAD47E21EA4C1141F480112C
:1040700043F48013AE44A1FB024CA0FB0365AEF1F8
:104080007F7E361955EB0C05A1FB034C4CF1000368
:10409000A0FB021C16EB0C06654153F1000309421C
:1040A00018BF46F0010613F4007F0BD14FEA03312D
:1040B0004FEA0530340341EA155140EA16506FF0DB
:1040C00003020AE04FEAC3214FEAC520F40241EAA5
:1040D000555140EA56506FF0020202EB2E4201EBBE
:1040E000025585EACE710AD05FEA440C18BF24F06D
:1040F000004450F1000041F1000120EAD47040F288
:10410000FE7C624500D270BDA84214BF4FF08044CF
:104110004FF04044002E08BF0024BEF1806FA8BFBE
:10412000A1F1C041BDE8704080F282804FF00000F4
:1041300001F1C04101F0004170479EEA0C0F0CEA0A
:10414000131518BF95EA0C0F06D04FF0000081EA56
:10415000030E0EF0004170BD00F01CF88900013E16
:1041600000F007B800F009B84FEA430C5FEA5C5C66
:1041700008D081EA030100F05BB84FEA410C5FEA26
:104180005C5CF6D14FF00000014970470000FF076A
:104190000000F87F0EF1020E2EF0030E5EF8046BA5
:1041A000364205D4012A43EB030515F5001F12D84A
:1041B000012841EB010C1CF5001F0CD80ED14FEA71
:1041C000D17C15F5001F0CEB4C0C0CF1020C08BF58
:1041D0004CEBD37C04E04FF0080C01E04FEAD37CB9
:1041E0000CEB4C0526FA05F606F00706B6F1040CB2
:1041F00006D20EEB860CBDE870404CF0010C604717
:10420000DFE80CF0090B02024FF000414FF0000014
:10421000A1F5002170BD19461046012851EB01049B
:1042200018BFD4F5001484BF002001F0004170BD18
:104230000808A0F500114FEA3101704753EA010C5C
:1042400017D41CF5801F58BFBCF5801F00F10680F5
:104250008B4218BF704708BF8242704707D713F5DB
:10426000801F58BF11F5801F19D48B4270479B42A5
:1042700070471CF5801F08D5BCF5801FF7D5994203
:1042800018BF704708BF904270474FF4001C1CEBEA
:10429000430F38BF1CEB410F01D2994270470FB456
:1042A0000CBC03BCFFF7C1BE10B591EA030F48BFB9
:1042B00083F000433FF59CAD841A71EB030C07D2E9
:1042C00012198CF0004C43EB0C03001B61EB0C014A
:1042D000DFF8A4E14FEA1154A4EB135C1EEA430F8C
:1042E00018BF9EEA445F00F0B08023EA6E0352429A
:1042F00021EA0451C3EB6E0338BF5B1EDCF1200ED4
:1043000025D322FA0CFE10EB0E0043FA0CFE41EB13
:104310000E01CCF1200E03FA0EFE10EB0E0051F14F
:104320000001CCF1200E29D412FA0EF201EB045157
:10433000BDE8104058BF7047401C1CBFB2F1004F91
:10434000704700280CBF491C20F00100704712EB99
:10435000020E43EB030218BF4FF0010E4EEA420279
:10436000ACF1200CDCF11E0E54D943FA0CFE10EB1C
:104370000E0051F1FF31CCF11E0ED5D50EF1010E1C
:1043800012FA0EFE404141EB010101EB445C5FEA91
:104390005C5C10D910EBDE7001EB045138BFBEF14C
:1043A000004FBDE8104018BF704700280CBF491CE3
:1043B00020F00100704730D24FEAD42C11F50011E3
:1043C00024F400641BD0B1FA81F20B3AA41AA41EA3
:1043D000D2F12003914030FA03F31943904001EBEE
:1043E000CC71002C01EB0451BDE81040A8BF704710
:1043F00001F1C0414FF0000001F000417047B0FAF8
:1044000080F310FA03F100D110BDE41A173C4805FF
:10441000C90AE4E701EB045110BD491001EB045156
:10442000BDE810404FEA300002E04FF00001704755
:104430004A0008BF0042F8D0B2F5001F28BF7047FD
:1044400001F000414FF0000070479EEA445F07D042
:1044500011EA5E0FBDE8104004BF00210020704744
:10446000BDE8104070B5FFF795FE00BF40DFF63E97
:1044700083F00041104670470000E0FF43004FEA20
:10448000D30C4FEA3C0C43401FBF40070CF1605176
:1044900013F0FE4F70471CF0006F03D100200CF0AA
:1044A000004170470CF0004343EA507010B540EAF9
:1044B000CC0000F00EF800BF000000924FEA0001AF
:1044C000FFF7B6BE4FF000414FF00000A1F500210C
:1044D00070470EF1020E2EF0030E5EF8044B2442DC
:1044E00004D44FEA4102B2F17F4F11D84FEA4003A2
:1044F000B3F17F4F0CD80ED14FEAD07CB2F17F4F91
:104500000CEB4C0C0CF1020C08BF4CEBD17C04E022
:104510004FF0080C01E04FEAD17C0CEB4C0324FA7D
:1045200003F404F00704B4F1040C06D20EEB840C7F
:10453000BDE810404CF0010C6047DFE80CF00708C4
:1045400002024FF00040A0F5800010BD0846420076
:1045500018BFD2F1807288BF00F0004010BD4FF04C
:104560004070E1EE100A7047FF2141EAD050C005CB
:10457000704700061016000610160000000000002C
:104580000000010203040607080900000000010200
:1045900003040000B445000800000020C000000033
:1045A000C401000874460008C0000020580C000038
:1045B000E001000800000000000000000100000011
:1045C00010000000000000000024F40000000000C3
:1045D0000000807F000000000000000000000000DC
:1045E00000000000000000000000000000000000CB
:1045F00000000000000000000000000000000000BB
:1046000000000000000000000000000000000000AA
:10461000000000000000000000000000000000009A
:10462000000000000000000000001442000034C23E
:10463000000058C2000018C2000018C2000018C2D2
:1046400000003CC2000068420000504200004442AA
:104650000000244200003C42000000000000000076
:10466000000000000000000000000000000000004A
:044670000000000046
:040000050800018965
:00000001FF
