:020000040800F2
:100000001807002049010008852A00081526000865
:10001000092A0008CF090008493000080000000044
:10002000000000000000000000000000892A000815
:10003000E909000800000000872A0008AD2B00082D
:100040006301000863010008630100086301000800
:1000500063010008630100086301000863010008F0
:1000600063010008630100086301000863010008E0
:10007000D109000863010008DD09000863010008D8
:1000800063010008630100086301000863010008C0
:100090003D300008630100086301000863010008A7
:1000A00063010008630100086301000863010008A0
:1000B0002D2C00086301000863010008630100089B
:1000C0006301000863010008630100086301000880
:1000D0006301000863010008630100086301000870
:1000E0006301000863010008630100086301000860
:1000F0006301000863010008630100086301000850
:10010000630100086301000863010008630100083F
:10011000630100086301000863010008630100082F
:10012000630100086301000863010008630100081F
:10013000DFF810D000F0ECFB004800479D390008C4
:10014000AFF30080180700200648804706480047A4
:10015000FEE7FEE7FEE7FEE7FEE7FEE7FEE7FEE777
:10016000FEE7FEE72B2C000831010008202A04DB03
:10017000203A21FA02F00021704721FA02F3D04020
:10018000C2F120029140084319467047D2B201E003
:1001900000F8012B491EFBD270470022F6E710B58C
:1001A00013460A4604461946FFF7F0FF204610BDE5
:1001B000F0B480EA0102D40F4200B2EB410F02D248
:1001C0000246084611464A0042D0C30DDDB2C1F3D3
:1001D000C752AD1A202D35DAC1F3160141F40002E1
:1001E00004B15242C5F1200602FA06F12A41104438
:1001F000B3EBD05F23D0C4B1012DA0EBC35009DC19
:10020000F0BC4FF0004202EAC352DBB200F500003E
:1002100000F0ADB9400000F1807000EBC350A0F1D8
:10022000807040EAD170490009E0490841EAC07194
:10023000A0EBC35000F50000400800EBC350F0BC39
:1002400000F08CB96142012202EB4101001BF6E78C
:10025000F0BC704781F00041AAE780F00040A7E7BA
:1002600080EA010210B502F00043400022D04A00AB
:100270001FD0010E01EB1261C0F35600C2F356020B
:1002800040F4000042F40002A0FB022000047F3989
:10029000140400D0401C50EA124001D44000491E12
:1002A000C2B20C0604EBD010401C4008802A02D0D9
:1002B00003E0002010BD20F00100002900DA00203A
:1002C000184310BD30B480EA010202F0004530F05E
:1002D000004221F0004013D090B1C30DD40DC2F301
:1002E0001601C0F31600E41A41F4000140F40002C4
:1002F0007D34914201D3641C00E04900002C02DAF5
:1003000030BC002070474FF400000023914201D31D
:10031000891A034340084FEA4101F7D151B1914294
:1003200002D14FF0004105E002D24FF0010101E09F
:100330006FF0010103EBC450284430BC00F00EB94B
:100340002DE9FE4F81EA030404F0004421F000414E
:1003500000944FF0000B23F0004350EA01045ED0FC
:1003600052EA03045BD0C3F30A54C1F30A552C4488
:10037000A4F2F3340194A0FB0254C1F3130141F43D
:100380008011C3F3130343F4801301FB024400FB09
:10039000034E840A970A44EA815447EA8357A4FB30
:1003A000076802958D0A05FB07854FEA932C04FB2D
:1003B0000C542705029D4FEA065847EA1637B5EB5D
:1003C00008056EEB070C870E920E47EA811742EA8A
:1003D0008312A7FB0201B6EB0B0164EB00042B0DAB
:1003E00043EA0C335E1844EB1C50DA465146E7FBF7
:1003F0000201C5F313044FEA0B3343EA14534FEAE7
:100400000432019C43EA0603A4F10C040294009C0C
:10041000CDE900B400F0E8F803B0BDE8F08F0020AB
:100420000146F9E796230022114600F0A0B80EB568
:1004300040F2334102910021CDE900110A460B46FA
:1004400000F0D2F803B000BD20F00040C10DC0F3B1
:10045000160040F400007F2901DA00207047962939
:1004600003DCC1F19601C840704796398840704757
:1004700000F0004230F000400AD0C10D01F560717B
:10048000C0F3160042EA0151C20840071143704709
:1004900000200146704701F0004330B421F00041D4
:1004A00050EA010206D00A0DA2F56072C1F31301F1
:1004B000002A02DC30BC00207047440F44EAC1042B
:1004C000C100E01830BC00EBC25000F047B830B5B6
:1004D0000B46014600202022012409E021FA02F502
:1004E0009D4205D303FA02F5491B04FA02F528449C
:1004F000151EA2F10102F1DC30BD2DE9F05F0546C9
:10050000002092469B4688460646814640241BE0D2
:100510002846414647462246FFF728FE53465A469C
:10052000C01A914110D311461846224600F002FA33
:100530002D1A67EB01084F4622460120002100F0EA
:10054000F9F917EB00094E41201EA4F10104DFDC8C
:10055000484631462A464346BDE8F09F0029A8BFD9
:100560007047401C490008BF20F00100704710B4DC
:10057000B0FA80FC00FA0CF050EA010404BF10BC91
:10058000704749B1CCF1200421FA04F411FA0CF1BE
:1005900018BF012121430843A3EB0C01CB1D4FEAF7
:1005A00000614FEA102042BF002010BC704700EBF2
:1005B000C35010440029A4BF10BC7047401C490020
:1005C00008BF20F0010010BC704710B5141E73F175
:1005D000000408DA401C41F1000192185B411A4303
:1005E00001D120F0010010BD2DE9F04D92469B464F
:1005F00011B1B1FA81F202E0B0FA80F220329046F5
:1006000000F098F904460F4640EA0A0041EA0B015F
:1006100053465A46084313D0114653EA010019D0F5
:10062000C8F140025046FFF7A1FD05460E46504670
:100630005946424600F07EF9084305D0012004E007
:1006400020463946BDE8F08D0020054346EAE076B5
:100650002C4337430A986305E40AA0EB0800002204
:10066000FD0A44EA47540A3002D500200146E9E772
:10067000010510196941DDE9084500196941BDE826
:10068000F04DA2E72DE9FE4F804681EA0300C00F3E
:100690000C46009021F0004123F00045B8EB020029
:1006A000A94105D24046214690461C460B460246CB
:1006B00023F00040104347D0270DC7F30A00C3F3CF
:1006C0000A510290401A019040286BDAC3F31300DC
:1006D00040F4801B0098924620B10023D2EB030A1D
:1006E00063EB0B0B01985946C0F14002504600F0F5
:1006F00021F906460D4650465946019A00F029F95F
:1007000010EB08006141002487EA115284EAE77384
:100710001A4340D0009A62B3019A012A4FEA075265
:1007200015DC001B61EB02014FF0004202EA0752A8
:10073000CDE90042001C41F5801132462B46FFF7FF
:1007400053FF03B0BDE8F08F40462146F9E7001B98
:1007500061EB0201001C41F5801300185B41201879
:10076000A2F5001747EB030140EAD570B6196D41B9
:1007700011E06D084FEA360645EAC0754FEA0752A8
:10078000001B61EB0201001C41F5801149084FEA92
:1007900030000019514132462B4603B0BDE8F04FFE
:1007A000FFF713BF0098012240000023D0EB0202A4
:1007B00063EBE073009821464FEAE074B8EB000069
:1007C00061EB0401E9E783F000435BE781F000415E
:1007D00058E72DE9F04D81EA030404F0004B21F0C5
:1007E000004514464FF0000A23F0004150EA05028C
:1007F00020D054EA01021DD0C5F30A570246C5F3C2
:100800001303C1F31300C1F30A5640F4801543F4F7
:100810008013A7EB0608101BD64608F2FD3873EBD1
:10082000050002D308F1010801E092185B41B8F11C
:10083000000F03DA00200146BDE8F08D00204FF4E0
:100840008011064684460EE0171B73EB050705D39F
:10085000121B63EB050306434CEA010C49084FEAFF
:10086000300092185B4150EA0107EDD152EA0300D3
:1008700012D082EA040083EA0501084305D0101B68
:10088000AB4106D20122002306E000224FF00043D4
:1008900002E06FF0010253101AEB06004CEB085116
:1008A00010EB0A0041EB0B01BDE8F04DFFF78DBEE8
:1008B000C1F30A52C1F3130140F2FF3341F4801136
:1008C0009A4202DA00200146704740F233439A42CE
:1008D000A2F2334202DC5242FFF748BC00F02AB8D1
:1008E00030B5041E71F1000404DB4FF000444042B7
:1008F00064EB0101141E73F1000405DB1C464FF08C
:100900000043524263EB0403994208BF904230BD5A
:10091000064C074D06E0E06840F0010394E807004C
:1009200098471034AC42F6D3FFF706FCEC3A0008C7
:100930000C3B0008202A04DB203A00FA02F10020D8
:1009400070479140C2F1200320FA03F3194390400D
:100950007047202A06DBCB17203A41FA02F043EA1F
:10096000E07306E041FA02F3D040C2F12002914068
:10097000084319467047000070B504460068816856
:10098000C943C90717D1816821F00101816000F0D6
:10099000E3FE05460AE000BF00F0DEFE401B022831
:1009A00004D920688068C043C00706D020688068EA
:1009B000C043C007F0D0002070BDA06A40F0100016
:1009C000A062E06A40F00100E062012070BDFEE735
:1009D000014800F047BC000030020020014800F050
:1009E00041BC0000EC010020704772B6FEE7000039
:1009F000F8B50024009490F824202546012A12D04E
:100A0000012280F824204A681F23072A0DD2066895
:100A1000776B521E02EB820293409F430B68934018
:100A20001F43776319E00220F8BD06680D2A0AD239
:100A3000376BD21F02EB820293409F430B689340B7
:100A40001F43376309E0F76A0D3A02EB82029340D5
:100A50009F430B6893401F43F7620A6807230668A9
:100A60000A2A0AD3F7680A3A02EB420293409F43EC
:100A70008B6893401F43F76008E0376902EB42023E
:100A800093409F438B6893401F4337610A68102A45
:100A900001D0112A20D1124B02689A4217D19368D3
:100AA0001B0219D4936843F400039360096810296A
:100AB00012D10C490C4A0968B1FBF2F101EB81013A
:100AC000490000E0491E00910029FBD104E0816A41
:100AD00041F020018162012480F824502046F8BDB5
:100AE000002401401400002040420F002DE9F04195
:100AF00004004FF000057FD0A06A002628B9E66206
:100B000084F82460204600F081F82046FFF734FF87
:100B1000A16AC90600D420B1A06A40F01000A0620A
:100B20006AE0A16A21F4885141F00201A1623349CF
:100B300023688B42E16904D1B1F5402F01D14FF414
:100B40000021277B4FF4807C41EA470261680A4319
:100B5000A168614508D0012906D0002194F814E06D
:100B6000BEF1010F02D00AE06146F7E7C7B1A76AFC
:100B700047F02007A762E76A47F00107E7625F686E
:100B800027F469470F435F60236899681C4F394019
:100B900011439960A16861450BD0012909D00CE08F
:100BA000DFF860E0A7690EEB47370F4347F40061B9
:100BB000E5E7218A0D05A5F580152168CB6A23F4A8
:100BC00070032B43CB62216889680F4B1940914217
:100BD00008D1E662A16A21F0020141F00101A1629F
:100BE000BDE8F081A06A20F0020040F01000A06291
:100BF000E06A40F00100E0620120F1E7003C0140C2
:100C0000FDF7E1FF00E0FFFFFE0E1FFF00B585B01E
:100C10000021009101910291039100680E498842E0
:100C200018D10E48816941F400718161816901F434
:100C300000710491816941F0100181618069694608
:100C400000F010000490042000900320019004485C
:100C500000F07CFC05B000BD002401400010024003
:100C600000100140F0B590F820500468A468012DF0
:100C700005D0022D03D0416A41F4802157E014F0E1
:100C8000406F01D1E5004FD5C4F301640125A540B3
:100C90001D608D684FF4C0739DB1CE6835434E68BA
:100CA00045EAC605066803EB0417F5514FF4C27513
:100CB000076805EB04150E697E51097D012905D0F1
:100CC00009E00E88CD6845EA4655EBE701684E59C4
:100CD00046F480764E511179D579567941EA05610D
:100CE00095792D0445EA062529434FF4C676056813
:100CF00006EB0416A9511178D57841EA056195787B
:100D000052782D0445EA022211434FF4C47502685B
:100D100005EB04155151006803EB0411425842F0F1
:100D2000010242500020F0BD416A41F400114162CD
:100D30000120F0BD704770B590F82040012C05D01F
:100D4000022C03D0416A41F4802128E0046809B3F1
:100D50002469A40720D04FF4D874056804EB01146B
:100D60002D5915F00405956005682D591AD0ED0828
:100D7000556005682C5904F00204D4604FF4DA740D
:100D8000056804EB01142E5906F00F06082E0CD34B
:100D900008250DE0E468DCE7416A41F40011416296
:100DA000012070BD6D0D1560E3E72D5905F00F05AD
:100DB000156105682D59C5F30725956105682C59FE
:100DC000240C54614FF4DC72046802EB0112A45845
:100DD0001C700468A458240A5C700468A458240C8D
:100DE0009C700468A258120EDA704FF4DE72046828
:100DF00002EB0112A4581C710468A458240A5C7107
:100E00000468A458240C9C710468A258120EDA716C
:100E1000006829B1016941F020010161002070BD25
:100E2000C16841F02001C160F8E72DE9F05F054697
:100E3000006800244669D0F804908768D0F80CB0A8
:100E4000D0F810A0D0F81880F10748D0F90714D0D6
:100E500001218160B80703D5284600F0FCF90CE0B9
:100E6000780702D54FF4006407E0380702D54FF445
:100E7000805402E0284600F0EDF9F80516D52968FF
:100E80004FF480708860B80503D5284600F0E5F976
:100E90000CE0780502D544F4005407E0380502D58B
:100EA00044F4804402E0284600F0D6F9F80316D551
:100EB00029684FF480308860B80303D5284600F0D5
:100EC000CEF90CE0780302D544F4004407E038037F
:100ED00002D544F4803402E0284600F0BFF9300720
:100EE00007D55FEACB6004D52968102044F400746C
:100EF000C86070074FF0080707D55FEA0B7004D58C
:100F00002868C760284600F059F9B00706D5286858
:100F1000C068800702D0284600F052F9700607D555
:100F20005FEACA6004D52968102044F4806408612F
:100F3000B00607D55FEA0A7004D52868076128461D
:100F400000F058F9F00606D528680069800702D03D
:100F5000284600F050F9B00308D55FEAC96005D50E
:100F6000296810204860284600F046F9F00307D5AC
:100F70005FEA097004D528684760284600F070F9D8
:100F8000300446D55FEA497040D5F00504D55FEAE4
:100F9000C87001D044F00104B00504D55FEA887040
:100FA00001D544F00204700504D55FEA487001D50C
:100FB00044F00404300529D518F0700F26D008F04D
:100FC0007000402815D006DC102809D020280AD04F
:100FD000302816D10AE050280ED0602811D10EE03A
:100FE00044F008040DE044F010040AE044F020044A
:100FF00007E044F0400404E044F0800401E044F4DD
:1010000080742868816921F0700181612968042059
:101010004860002C05D0686A204368622846FFF7C4
:1010200089FEBDE8F09F70B5040003D094F820005D
:1010300010B104E0012070BD204600F081F8206866
:10104000016841F00101016000F086FB05460526BC
:1010500004E000F081FB401B0A2811D8206840689A
:10106000C007F6D02068016821F00201016000F09D
:1010700073FB05460BE000F06FFB401B0A2806D906
:10108000606A40F40030606284F82060D2E7206833
:1010900040688007EFD4207E0128206801683DD099
:1010A00021F080010160607E01282068016838D04D
:1010B00021F040010160A07E01282068016833D042
:1010C00021F020010160E07E0128206801682ED017
:1010D00041F010010160207F01282068016829D0BB
:1010E00021F008010160607F01282068016824D098
:1010F00021F004010160D4E902010843D4E904129B
:10110000114308436168491E08432168C8610020F3
:101110006062012084F82000002070BD41F0800151
:10112000C0E741F04001C5E741F02001CAE721F0E6
:101130001001CFE741F00801D4E741F00401D9E7FD
:1011400010B586B0002100910191029103910068D1
:10115000174988422AD11748C16941F00071C1611D
:10116000C16901F000710491816941F0040181615C
:101170008069114C00F0040004904FF4006000906E
:101180006946204600F0E2F9A01400900220019088
:10119000032003906946204600F0D8F9002211464A
:1011A000142000F045FB142000F034FB06B010BD05
:1011B0000064004000100240000801407047000039
:1011C00010B5094B094A0021FFF7B5FD074806494C
:1011D00042686C3801F01AFCBDE8104000224FF460
:1011E0000051034800F0B3BA20000020E0020020C4
:1011F00000100140704770477047000070B504460A
:1012000090F82000012804D0606A40F40020606259
:1012100018E0022084F820002068016821F0010114
:10122000016000F099FA05460EE000BF00F094FA64
:10123000401B0A2808D9606A40F40030606205202B
:1012400084F82000012070BD20684068C007EDD1FF
:10125000606270BD70477047704770477047704755
:10126000704700002DE9F05FC16B0A6801680B68E8
:10127000046C4FF0040808FA04F8844D844E854F3E
:10128000DFF814C2DFF81492DFF814A2DFF814B20A
:10129000DFF814E218EA020F65D05FEA437862D5FE
:1012A0000A68920603D40A6822F004020A60DFF892
:1012B000F0814FF48062016808F1140813011402F0
:1012C000414524D9A9420DD0B1420FD0B9421AD01C
:1012D000614515D0494515D0514501D1120312E0A1
:1012E000594501D104220EE0714501D140220AE0A6
:1012F0006D4D1435A94206D06B4A2832914201D176
:101300001A4600E022466749091F0A6029E0A942FF
:1013100013D0B14215D0B94220D061451BD0494508
:101320001BD0514502D14FF4800217E0414502D154
:101330004FF0806212E0594501D104220EE0714560
:1013400001D140220AE0584D1435A94206D0564A30
:101350002832914201D11A4600E022464B49083911
:101360004A60C16A71E04FF0020808FA04F818EA0E
:10137000020F70D05FEA83786DD50A68920606D4B2
:101380000A6822F00A020A60012180F82110DFF8C1
:1013900010814FF40072016808F11408130114025F
:1013A000414524D9A9420DD0B1420FD0B9421AD03B
:1013B000614515D0494515D0514501D1120312E0C0
:1013C000594501D102220EE0714501D120220AE0E7
:1013D000354D1435A94206D0334A2832914201D105
:1013E0001A4600E022462F49091F0A6029E0A94257
:1013F00013D0B14215D0B94220D061451BD0494528
:101400001BD0514502D14FF4001217E0414502D1E3
:101410004FF0007212E0594501D102220EE07145F1
:1014200001D120220AE0204D1435A94206D01E4ADF
:101430002832914201D11A4600E022461349083968
:101440004A60002180F82010816A00291CD0BDE884
:10145000F05F0847FFE70825A540154214D01A079A
:1014600012D50A6822F00E020A6090F84020C36B81
:10147000012101FA02F25A60816380F821100021F3
:1014800080F82010016BE0E7BDE8F09F0800024003
:101490001C0002403000024044000240580002405C
:1014A0006C000240080402401C04024030B560B1E8
:1014B0001A4B026814219A4209D2194B1344B3FB08
:1014C000F1F18900016417490AE0012030BD134B96
:1014D0005B421344B3FBF1F1890001640F49083901
:1014E000C163022180F82110136843F6F0718B4329
:1014F000F0E901142143D0E902452C43214304695A
:101500002143446921438469214319431160002127
:101510004163012242770177084630BD080402404A
:10152000F8FFFDBF0000024070B5044600F014F95A
:101530000546601C02D004480078044400F00CF911
:10154000401BA042FAD370BD080000202DE9F84FDF
:10155000DFF8C8910024A9F1040B23460F2709F1F5
:10156000040AABF1040ED1E00125A54006EA05020C
:10157000AA4276D1DFF8A8C14E68A6EB0C086645F2
:101580002BD00DDC032E34D005DC36B3012E19D060
:10159000022E2FD11BE0112E16D0122E2AD119E0C7
:1015A000B8F5881F19D006DCB8F5803F15D0B8F51E
:1015B000801F1FD111E0B8F5001F0ED0B8F5041F31
:1015C00018D10AE0CB6815E0CB681B1D12E0CB6890
:1015D00008330FE0CB680C330CE08B682BB1012B88
:1015E0004FF0080303D0456104E0042302E00561E5
:1015F00000E00023FF2A01D8064601E000F10406BE
:101600004FEA840501D9A5F12005D6F8008007FA34
:1016100005FC28EA0C0803FA05F548EA0508C6F8AF
:1016200000804D68ED0070D53E4DAE6946F0010674
:10163000AE61AD6924F0030605F0010500953A4D51
:1016400006EB050CDCF80850A607360F07FA06F87B
:1016500025EA0805DFF8D480404503D14FF00008A3
:1016600025E052E0DFF8C880404502D14FF0010884
:101670001DE0DFF8C080404502D14FF0020816E0BF
:10168000DFF8B480404502D14FF003080FE0DFF8E7
:10169000AC80404502D14FF0040808E0DFF8A0809C
:1016A000404502D14FF0050801E04FF0060808FA66
:1016B00006F848EA0508CCF808804D68D9F80060BB
:1016C000ED024D4601D5164300E096432E604D686D
:1016D000DAF80060AD02554601D5164300E09643A6
:1016E0002E604D68DBF80060AD035D4601D5164302
:1016F00000E096432E604D68DEF80060ED0375460D
:1017000001D5164300E096432E60641C0A68164615
:10171000E2407FF429AFBDE8F88F000008040140E3
:1017200000001110001002400000014000080140BC
:10173000000C01400010014000140140001801405D
:10174000001C01408068084000D0012070470AB1A9
:10175000016170470904FBE7014880687047000099
:1017600008000020024881680278114481607047B7
:1017700008000020074810B5016841F01001016021
:10178000032000F075F80F2000F006F800F024F8B0
:10179000002010BD0020024070B50D4D04464FF4EE
:1017A0007A712878B1FBF0F00A490968B1FBF0F0D2
:1017B00000F052FB48B9102C07D200222146501EDF
:1017C00000F036F800206C6070BD012070BD000094
:1017D00008000020140000200C4808B5816941F081
:1017E00001018161816901F001010091C16941F04C
:1017F0008051C161C06900F0805000900448416888
:1018000021F0E06141F00071416008BD001002402C
:1018100000000140002809DB00F01F020121914077
:101820004009800000F1E020C0F80011704700007E
:10183000F0B40E4B1B680C46C3F30223C3F107053B
:10184000042D00D90425191D072901D2002300E029
:10185000DB1E012606FA05F1491E214099409E40F3
:10186000761E16403143F0BC01F000BC0CED00E0E8
:10187000064900F0070208684FF6FF03184040EAE7
:101880000220034A10430860704700000CED00E09E
:101890000000FA052DE9F84305460078354CC007ED
:1018A00054D0E0690026C00008D4E06940F08050C0
:1018B000E061E069012600F0805000902E48016848
:1018C000C90512D40168804641F480710160FFF7B8
:1018D00043FF074605E000BFFFF73EFFC01B64283B
:1018E00023D8D8F80000C005F6D5206A10F440705F
:1018F00021D0A98801F4407181421CD0206A1F497F
:10190000012220F440700A6000220A602062C007B1
:1019100011D0FFF721FF074641F2883808E000BFE9
:10192000FFF71AFFC11B414502D90320BDE8F88328
:10193000206A8007F4D5206A696820F44070084363
:1019400020621EB1E06920F08050E06128788007B5
:1019500005D56068A96820F4404008436060287895
:10196000C00605D56068696920F48000084360609E
:101970000020DBE7001002400070004040044242BB
:101980002DE9F0470F46050061D0434E306800F066
:101990000700B84209D2306820F0070038433060B1
:1019A000306800F00700B84251D128683B4C8107ED
:1019B00012D5400703D5606840F4E0606060287885
:1019C000000703D5606840F4605060606068A968F3
:1019D00020F0F000084360602878C00728D06868CD
:1019E000012810D02168022810D0890700292EDA9A
:1019F000616821F0030101436160FFF7ADFE80469D
:101A000041F288390DE021688903EFE78901EDE7AC
:101A1000FFF7A2FEA0EB0801494502D90320BDE86B
:101A2000F0876068696800F00C00B0EB810FEFD1BF
:101A3000306800F00700B8420BD9306820F007008A
:101A400038433060306800F00700B84201D0012010
:101A5000E5E72878400705D56068E96820F4E0608C
:101A6000084360602878000706D56068296920F47B
:101A7000605040EAC100606000F038F86168084AD0
:101A8000C1F30311515CC84006490860064800686C
:101A9000FFF782FE0020C2E7002002400010024053
:101AA000D43A0008140000200C0000200448054926
:101AB00000684968044AC1F30221515CC84070477C
:101AC0001400002000100240E43A000804480549D0
:101AD00000684968044AC1F3C221515CC84070479C
:101AE0001400002000100240E43A00080E4A516839
:101AF0000E4801F00C03042B11D0082B0FD10C4819
:101B0000C1F38343C903C05C0AD55168084AC1F3D5
:101B10004041921E515C054A5043B0FBF1F07047C2
:101B200004494843704700000010024000127A0048
:101B3000C43A000800093D002DE9F84F040070D0B8
:101B40002078C04DC00749D06868C0F381000128E3
:101B500007D06868C0F38100022809D16868C00313
:101B600006D52868800339D560680028E7D035E0BD
:101B70006068B0F5803F0BD010B1B0F5A02F11D048
:101B8000286820F480302860286820F4802002E053
:101B9000286840F480302860606890B1FFF7DCFD71
:101BA00006460AE0286840F480202860F0E700BF7D
:101BB000FFF7D2FD801B642873D828688003F7D50F
:101BC0000CE0FFF7C9FD064605E000BFFFF7C4FDC6
:101BD000801B6428F0D828688003F7D420789A4EB8
:101BE00080074FF001094FF0000839D5686810F000
:101BF0000C0F07D06868C0F38100022809D168681B
:101C0000C00306D42868800714D52069012808D1AC
:101C100010E02069B0B1C6F80090FFF79DFD0746BF
:101C200005E00AE1FFF798FDC01B0228C4D8286828
:101C30008007F7D52868616920F0F80040EAC10004
:101C400028600DE0C6F80080FFF786FD074604E037
:101C5000FFF782FDC01B022823D828688007F7D42D
:101C6000207800072CD57948A169D9B1C0F8009037
:101C7000FFF772FD074604E0FFF76EFDC01B022868
:101C80000FD8686A8007F7D571484FF4FA51006899
:101C9000B0FBF1F0009000BF0098411E0091FAD215
:101CA0000EE080E0C0F80080FFF756FD074604E034
:101CB000FFF752FDC01B022875D8686A8007F7D469
:101CC0002078400760D5E8690027C00008D4E8699B
:101CD00040F08050E861E869012700F080500090F2
:101CE0005C480168C90513D40168834641F48071DA
:101CF0000160FFF731FD824606E000BFFFF72CFDD3
:101D0000A0EB0A0064284ED8DBF80000C005F5D52A
:101D1000E06801280AD008B1052813D0286A20F00D
:101D200001002862286A20F0040002E0286A40F0DE
:101D300001002862E06841F2883B98B1FFF70CFD92
:101D400082460BE0286A40F004002862EEE700BFFC
:101D5000FFF702FDA0EB0A0159455AD8286A80070F
:101D6000F6D50CE0FFF7F8FC824605E0FFF7F4FC3F
:101D7000A0EB0A0159454CD8286A8007F6D41FB158
:101D8000E86920F08050E861E06988B36968C1F3D0
:101D90008101022944D00228C6F8608004D0FFF7F0
:101DA000DBFC044638E034E0FFF7D6FC074604E0ED
:101DB000FFF7D2FCC01B02282BD828688001F7D47B
:101DC000206AB0F5803F05D16868A16820F4003032
:101DD00008436860D4E908010843696821F4741174
:101DE00008436860C6F86090FFF7B6FC044606E05A
:101DF00025E000BFFFF7B0FC001B022809D82868C7
:101E00008001F7D51BE000BFFFF7A6FC001B0228EE
:101E100002D90320BDE8F88F28688001F4D40EE0D1
:101E20000128F7D06868226A00F48031914204D119
:101E3000616A00F47010884201D00120EAE70020B6
:101E4000E8E70000001002400000424280044242E5
:101E5000140000200070004010B5401EB0F1807FDB
:101E600001D3012010BD4FF0E02460610F21601705
:101E700001F0FCF80020A06107202061002010BDC7
:101E80007047704710B590F83C20012A22D00122FB
:101E900080F83C20CA688C6822F4407222434C6867
:101EA00022F4806222430C6822F4006222430C690F
:101EB00022F4805222434C6922F400522243C96921
:101EC000002322F480420A4301684A6480F83C30CF
:101ED000002010BD022010BD70B590F83C20012AF2
:101EE0002CD0012480F83C40022280F83D20036879
:101EF0005A689D6822F070060A6832435A60104B97
:101F000002689A420ED00F4B9A420BD0B2F1804F2A
:101F100008D00D4B9A4205D00C4B9A4202D00C4B84
:101F20009A4204D1496825F080031943916080F8F2
:101F30003D40002180F83C10084670BD022070BD75
:101F4000002C014000340140000400400008004023
:101F5000000C004010B5040003D094F83D0010B10F
:101F600007E0012010BD002084F83C00204600F06E
:101F70001FF8022084F83D00211D206800F05CFE5F
:101F8000012084F8460084F83E0084F83F0084F87D
:101F9000400084F8410084F8420084F8430084F84B
:101FA000440084F8450084F83D00002010BD000086
:101FB00008B50068B0F1804F12D10A48C16941F0FC
:101FC0000101C161C069002200F0010000901146CA
:101FD0001C20FFF72DFCBDE808401C20FFF71ABCB1
:101FE00008BD00000010024070B5044690F83C00A7
:101FF0000025012817D0012684F83C60022084F8CF
:102000003D002068826822F0770222F47F428260DD
:102010000868502838D00DDC20284FD005DC90B35C
:10202000102811D14AE0022070BD302846D0402847
:102030000AD13BE060282FD070280DD0B0F5805F2A
:1020400003D0B0F5005F12D0012584F83D60002078
:1020500084F83C00284670BDCB68D1E90121206896
:1020600000F038FE2068816841F0770109E0CB6814
:10207000D1E90121206800F02DFE2068816841F43B
:1020800080418160E1E719E0CA684968206800F092
:10209000F5FE5021206806E0CA684968206800F013
:1020A000FEFE6021206800F01FFECEE7CA68496886
:1020B000206800F0E3FE40212068F4E72268014632
:1020C0001046F0E770472DE9F04104460068C66805
:1020D00005694FF00007A90713D5B10711D5F91EFF
:1020E000016101202077206880698007204602D0A6
:1020F000FFF7E8FF04E000F0BBF8204600F06CF9C1
:102100002777680716D5700714D521686FF004008B
:102110000861022020772068806910F4407F204603
:1021200002D0FFF7CFFF04E000F0A2F8204600F055
:1021300053F92777280715D5300713D521686FF095
:1021400008000861042020772068C06980072046C5
:1021500002D0FFF7B7FF04E000F08AF8204600F055
:102160003BF92777E80616D5F00614D521686FF0FD
:1021700010000861082020772068C06910F4407FB3
:10218000204602D0FFF79EFF04E000F071F82046E1
:1021900000F022F92777E80708D0F00706D0216879
:1021A0006FF001000861204600F017F9280608D5F5
:1021B000300606D521686FF0800008612046FFF7E1
:1021C0005FFE680608D5700606D521686FF04000EE
:1021D0000861204600F002F9A8060AD5B00608D525
:1021E00021686FF0200008612046BDE8F041FFF74C
:1021F00048BEBDE8F081000000B585B00021009127
:10220000019102910391154B0268154802219A42EF
:102210000ED1826942F0040282618069039100F06C
:10222000040004900320CDE9000169460D4810E048
:102230000D4B9A420FD1826942F01002826180698F
:10224000039100F0100004905815CDE90001694693
:102250000648FFF77BF905B000BD0000000C004008
:10226000001002400008014000340140001001400D
:10227000704770B5044690F83C0000260D460128D2
:102280000FD0012084F83C006AB1042A1DD0082A2E
:102290002FD00C2A3FD00126002084F83C00304685
:1022A00070BD022070BD206800F026FD20688169A5
:1022B00041F0080181612068816921F00401816198
:1022C000206881692A69114311E0206800F044FD0B
:1022D0002068816941F4006181612068816921F48D
:1022E00080618161206881692A6941EA02218161F6
:1022F000D2E7206800F066FD2068C16941F008015E
:10230000C1612068C16921F00401C1612068C1690F
:102310002A69114311E0206800F088FD2068C16936
:1023200041F40061C1612068C16921F48061C1612B
:102330002068C1692A6941EA0221C161ACE710B590
:10234000040003D094F83D0010B107E0012010BD57
:10235000002084F83C00204600F01EF8022084F89B
:102360003D00211D206800F067FC012084F8460034
:1023700084F83E0084F83F0084F8400084F841006F
:1023800084F8420084F8430084F8440084F845004F
:1023900084F83D00002010BD08B50C4A01680C48C7
:1023A000914207D1C16941F00801C161C06900F0E3
:1023B000080009E0074A914207D1816941F40051C0
:1023C0008161806900F40050009008BD000C00405D
:1023D000001002400034014070477047704770B5EC
:1023E000040004D094F84100002510B106E001205B
:1023F00070BD84F84050204600F024F8242084F872
:1024000041002068C16821F40051C160204600F0FD
:102410007FFD2068016921F49041016120684169D4
:1024200021F02A0141612068C16841F40051C16076
:102430006564202084F8410084F842006563002030
:1024400070BD00002DE9F04385B000240094019494
:1024500002940394064603683F48DFF8F8C002215F
:102460000322051510274FF08008634531D1836999
:1024700043F480438361836903F480430493836955
:1024800043F0040383618069DFF8D09000F004001A
:1024900004900802CDE90001039269464846FFF71F
:1024A00055F8CDE90054694648460294FFF74EF8C6
:1024B0002C4D2B482860C5E90174C5E903846C6183
:1024C000AC612846EC613EE0B5636E6205B0BDE8E4
:1024D000F083DFF894C06345F8D1C36943F48023E7
:1024E000C361C36903F480230493836943F0100339
:1024F00083618069CDE9005100F01000CDE903202F
:102500001A4D69462846FFF721F8E814CDE9000482
:10251000694628460294FFF719F81548416821F0EA
:10252000300141F0E06141F0100141600D4D0C4877
:10253000443528382860C5E90174C5E903846C6115
:10254000AC612846EC61FEF7B1FF0028BCD0FEF775
:102550004CFAB9E700380140001002400008014081
:1025600044000240EC0100200048004000100140FF
:10257000000001402DE9F843044690F841009846D8
:1025800016460D46202802D00220BDE8F88385B10A
:102590007EB100206064212084F84100FFF7DCF860
:1025A000A6848146E684A0682027B0F5805F02D02B
:1025B00003E00120E9E7206910B12E4600250EE076
:1025C00000260CE08021204600F0FEFCA8B9C6B130
:1025D00016F8010B21684860E08C401EE084E08C16
:1025E0004B464FF00002CDF800800028EAD14FF0B2
:1025F0004001204600F0E8FC40B184F8417003201F
:10260000C3E735F8020BC0F30800E3E784F8417034
:102610000020BAE7FEE7000030B4074A0023042494
:102620001360C2E90134D36008231361017030BC28
:102630000248FEF7E3BD0000FC0200205C00002021
:102640003EB5002411480094019402940E49846020
:10265000016004730475012505614FF46021446035
:10266000C161FEF743FA08B1FEF7BFF90C20CDE9CE
:102670000005694602940548FEF7BAF9002801D022
:10268000FEF7B3F93EBD0000002401402C000020FD
:102690000F4810B50D4901600821416000214FF439
:1026A00040328160C0E903121201426101760122C9
:1026B00042768276C17601774177FEF7B4FC002836
:1026C00003D0BDE81040FEF790B910BD0064004093
:1026D0005C0000200D4808B5416941F001014161ED
:1026E0004069002200F00100009011460C20FFF725
:1026F0009FF80C20FFF78EF8002211460E20FFF7FE
:1027000097F8BDE808400E20FFF784B8001002409B
:102710002DE9F04786B000243A48009401940294D1
:102720000394816941F010018161816901F0100118
:102730000491816941F020018161816901F02001EA
:102740000491816941F004018161816901F0040112
:102750000491816941F00801816180692A4F00F08C
:10276000080042F228050490002229463846FEF768
:10277000EEFFDFF8989000224FF4E0714846FEF734
:10278000E6FFDFF88CA04FF4706801224146504606
:10279000FEF7DDFF0126CDE90056022569463846E1
:1027A000CDE90245FEF7D2FE41F21100CDE9000469
:1027B000694638460294FEF7C9FE40270097CDE9E6
:1027C0000165694648460395FEF7C0FE4FF4C070A8
:1027D000CDE9000669464846CDE90245FEF7B6FE5A
:1027E000CDE9008669465046CDE90245FEF7AEFECA
:1027F000CDE90074694650460294FEF7A7FE06B084
:10280000BDE8F087001002400010014000080140C0
:10281000000C014010B586B00024174800940194C4
:102820000294039404944FF080410594016041F6B2
:102830001F41C0E901143121C0E9031480218161E5
:10284000FFF788FB08B1FEF7D0F84FF480500090F6
:1028500069460948FFF7C8FB08B1FEF7C6F80494BB
:1028600004A905480594FFF737FB002801D0FEF7BF
:10287000BCF806B010BD00008400002010B58AB07E
:10288000002407941C2168460894FDF786FC1A482A
:102890001849C0E9001442F21071C0E90241046114
:1028A0008461FFF74CFD08B1FEF79FF8079407A974
:1028B00011480894FFF710FB08B1FEF796F8602066
:1028C000CDE900040294002269460B480494FFF706
:1028D000D0FC08B1FEF789F8042269460648FFF7E4
:1028E000C8FC08B1FEF781F80348FFF785FC0AB081
:1028F00010BD0000000C0040CC00002010B592B0CC
:1029000000240F941C2108A81094FDF746FC2021F8
:102910006846FDF742FC1F481D49C0E9001442F219
:102920001071C0E90241046144618461FFF707FD51
:1029300008B1FEF75AF80F940FA916481094FFF744
:10294000CBFA08B1FEF751F86020CDE908040A94EB
:102950000C940D940C2208A90E480E94FFF789FCE4
:1029600008B1FEF742F800944FF40050CDE904405E
:10297000029401940394694606480794FFF782FA8B
:1029800008B1FEF732F80348FFF736FC12B010BD6D
:1029900000340140140100200C4810B50A490160C0
:1029A0004FF4E1314160002181600C22C160C0E937
:1029B00004128161C161FFF712FD002803D0BDE858
:1029C0001040FEF712B810BD003801405C01002035
:1029D0000C4810B50A4901604FF4E1314160002113
:1029E00081600C22C160C0E904128161C161FFF7FE
:1029F000F6FC002803D0BDE81040FDF7F6BF10BD7F
:102A000000480040A4010020FEE7000070B5044625
:102A1000088816460D4640BA1023124A124901F0A2
:102A200033F8A0616888102340BA104A104901F0B9
:102A30002BF86061A888102340BA0E4A0E4901F0B5
:102A400023F8E061E88840BAFDF7F1FC0B4A0C4B33
:102A5000FDF776FCFDF71FFD2062C6F3044084F805
:102A6000240070BD00003444000034C40000F04174
:102A70000000F0C100004041000040C19A999999BE
:102A80009999B93FFEE77047704710B5044608466C
:102A9000FDF7C8FC02462046BDE81040732347F20C
:102AA000050100F001B800000FB583B000210091CE
:102AB000019100780F4908430F49662B4860BDF823
:102AC0001000ADF8000002D0732B02D006E0019296
:102AD00004E01046FDF7B8FC8DF80400074B6A4689
:102AE00005490748FEF7BEF80120FEF71DFD07B0B7
:102AF00000BD000000040018FC02002018000020A7
:102B00005C00002070B50C46054608492046FDF7DC
:102B1000A7FB0749FDF7D6FB0246662347F21601DD
:102B20002846FFF7C1FFEC6070BD0000DB0F494095
:102B30000000344370B50C460A460546662347F24A
:102B40001701FFF7B1FFEC6470BD00001CB5002158
:102B50000091019100780549064B084304496A46F3
:102B600048600548FEF77EF81CBD00000004000325
:102B7000FC020020180000205C0000201CB5002290
:102B800000928DF8001001920078054940F0042071
:102B9000044B48606A460448FEF764F81CBD000018
:102BA000FC020020180000205C000020FEF7DABDC7
:102BB00030B595B028216846FDF7EFFA14210AA830
:102BC000FDF7EBFA18210FA8FDF7E7FA0121080439
:102BD000CDE900100025029502240491CDE90740BB
:102BE0004FF4E01009906846FEF7A6FF08B172B6F0
:102BF000FEE70AA90F2081E831004FF48060CDE99B
:102C00000D0502210AA8FEF7BBFE08B172B6FEE769
:102C10004FF4004011900F940FA8FEF73BFE0028E0
:102C200001D072B6FEE715B030BD70470148FFF71E
:102C30004ABA000084000020F0B50268204C214D03
:102C4000214E224F224B4FF0804CA04209D0984297
:102C500007D0604505D0A84203D0B04201D0B842A9
:102C600004D122F0700E4A6842EA0E02A04209D056
:102C7000984207D0604505D0A84203D0B04201D0A9
:102C8000B84203D122F44075CA682A434D6922F044
:102C900080022A4302608A68C2620A688262A04295
:102CA00001D0984201D109690163012141610169A3
:102CB000C90703D0016921F001010161F0BD0000E5
:102CC000002C01400004004000080040000C0040BF
:102CD0000034014010B5846842EA032224F47F44A2
:102CE0000A432243826010BD826822F070020A43C8
:102CF00042F0070181607047F0B5036A026A22F072
:102D00000102026242688469124E24F073050C6865
:102D10002C4323F002058B682B430D4DA84201D0B4
:102D2000B04205D123F00807CB683B4323F00403EE
:102D3000A84201D0B04205D14D6922F4407215433A
:102D40008A692A4342608461496841630362F0BD35
:102D5000002C014000340140F0B5026A036A23F000
:102D600010030362436884690D6824F4E64444EA6E
:102D700005248D6822F0200242EA05120F4D104E04
:102D8000A84201D0B04206D1CF6822F0800242EAC8
:102D9000071222F04002A84201D0B04207D14D698B
:102DA00023F4406343EA85038D6943EA8503436066
:102DB0008461496881630262F0BD0000002C01401B
:102DC00000340140F0B5026A036A23F480730362A1
:102DD0004368C46922F4007224F073050C68124E33
:102DE0002C438D6842EA05220E4DA84201D0B04224
:102DF00006D1CF6822F4006242EA072222F4806200
:102E0000A84201D0B04207D14D6923F4405343EAB0
:102E100005138D6943EA05134360C4614968C163C2
:102E20000262F0BD002C01400034014030B5046A5C
:102E3000026A22F4805202624268C3690D6823F478
:102E4000E64343EA05238D6824F4005444EA05343C
:102E5000084DA84202D0084DA84204D14D6922F481
:102E6000804242EA85124260C3614968016404629B
:102E700030BD0000002C01400034014010B5036A51
:102E8000046A24F001040462846924F0F00444EA32
:102E9000021423F00A020A438461026210BD10B5D5
:102EA000036A046A24F010040462846923F0A00316
:102EB00024F4704444EA023243EA0111826101625F
:102EC00010BD01680C3151E8002F22F4907241E8E6
:102ED0000023002BF5D10168143151E8002F22F0B6
:102EE000010241E80023002BF5D1016B012909D132
:102EF00001680C3151E8002F22F0100241E8002354
:102F0000002BF5D1202180F8421000210163704789
:102F100070B5044600680169E26821F4405111432C
:102F200001612169A0680843616908432168CA6892
:102F300041F20C639A430243CA6020684169A26966
:102F400021F44071114341611E492068884202D139
:102F5000FEF7BCFD01E0FEF7A9FD00EBC00101EBAF
:102F60000012606864218000B2FBF0F3B3FBF1F360
:102F70006FF018067343B2FBF0F5B2FBF0F605EB09
:102F80008305322303EB0515B5FBF1F5B6FBF1F62E
:102F900005F0F00505EB0615B2FBF0F6B2FBF0F01C
:102FA000B0FBF1F06FF01802504306EB800003EB2A
:102FB0000010B0FBF1F0216800F00F002844886099
:102FC00070BD0000003801402DE9F84398461746CF
:102FD0000D460446089E24E0701C22D0FEF7BCFB80
:102FE000A0EB0800B0421AD8CEB12068C1684907EA
:102FF00017D5802D15D0402D13D00168C94309077E
:103000000FD401680025406800902046FFF759FF63
:103010000820606484F840500120BDE8F883032054
:10302000FBE72068006835EA000004D00020B842C1
:10303000D2D00020F1E70120F9E700000148FDF7B8
:10304000F4BE00005C000020FEE700000FB4054B5A
:1030500010B503A9044A029800F0EAF810BC5DF824
:1030600014FB000039390008280000200907090E68
:10307000002804DB00F1E02080F80014704700F025
:103080000F0000F1E02080F8141D704702E008C82E
:10309000121F08C1002AFAD170477047002001E0D2
:1030A00001C1121F002AFBD1704700002DE9FF5F0C
:1030B00082B00021DDE90430020DDDF840B00343A9
:1030C00018D044F61050A2F2FF3242431514119862
:1030D00001281FD0A5EB0B00401C5FEA000A4FF04F
:1030E00000064E4FDFF83891B046504615D5CAF16C
:1030F000000413E0119801244AA3012801D16FEACA
:103100000B010298119AC0E90031C0E9024206B0F1
:10311000BDE8F09FCBF10000DFE704460021404A04
:10312000491842EB0450CDE9001012E0E00707D047
:1031300032463B4640464946FDF702F980468946FD
:1031400032463B4610461946FDF7FAF806460F464A
:103150006410002CEAD1DDE90401DDE90023BAF1B5
:10316000000F06DAFDF7ECF842464B46FDF7E8F8AB
:1031700005E0FDF72EFB42464B46FDF72AFB0446D1
:103180000E460022284BFDF7ABFB03D84FF0FF3073
:10319000014607E00022254B20463146FDF772FA32
:1031A000FDF786FB102409E0002C0ADB0A2200232D
:1031B000FDF7A3F9039B30321A55641E50EA010251
:1031C000F2D1641C039AC4F111031444119A012A28
:1031D00003D0012208430DD10AE0084304D00020A7
:1031E0004FF0110B119072E7A3EB0B056D1E0DE074
:1031F0005B4504DD4FF0000205F1010504E003DA50
:103200004FF00002A5F10105002AECD002981199B7
:10321000C0E90231C0E9004579E700000000144030
:103220000000F03F300000000000F0430000E03FED
:103230002DE9FF4F95B09A46884606460025EEE1F7
:10324000252877D100242746F94A0121039400E07C
:10325000044316F8013F203B01FA03F01042F7D176
:1032600030782A2811D06FF02F033078A0F1300287
:10327000092A16D8039A44F0020402EB820203EBF7
:1032800042021044761C0390EFE758F8042B039297
:10329000002A03DA504244F40054039044F002043C
:1032A000761C30782E2816D116F8010F44F004044D
:1032B0002A280DD06FF02F023078A0F13003092BAF
:1032C00009D807EB870302EB4303C718761CF3E723
:1032D00058F8047B761C30786C280FD006DC4C281C
:1032E00017D068280DD06A2814D104E0742810D0B3
:1032F0007A280FD10DE044F400140AE044F480145D
:1033000001E044F440147278824202D104F5801442
:10331000761C761C307866280BD013DC582877D0C2
:1033200009DC002875D04528F6D04628F4D0472877
:103330001AD193E118E0632835D0642879D0652844
:1033400012D18BE1702873D008DC6728F1D069288E
:103350006FD06E280DD06F2806D1ACE073282CD02A
:10336000752874D0782853D05246179990476D1C11
:1033700054E1C4F30250022809D003280DD0D8F834
:10338000001004280DD00D6008F1040846E1D8F8BB
:103390000010EA17C1E90052F6E7D8F800100D80D6
:1033A000F2E70D70F0E718F8041B8DF8001000200C
:1033B0008DF80100EB46012003E058F804BB4FF004
:1033C000FF3061074FF0000102D40DE009F1010167
:1033D0008946B9420FDA8145F8DB1BF8091000294C
:1033E000F4D108E009F1010189468142FADB1BF8BA
:1033F00009100029F6D103985346A0EB090721468E
:103400003846179A00F080FA284400EB090507E0D7
:1034100044E008E10DE01BF8010B52461799904774
:10342000B9F10109F7D2534621463846179AF2E01E
:1034300039E00A21C4F302524FF0000B0091022A36
:1034400006D058F8040BC117032A09D00AE023E07C
:1034500008F1070020F00702F2E80201904605E0BB
:1034600000B2C117042A01D140B2C117002906DAFF
:103470000A460021404261EB02012D2202E02205B2
:1034800004D52B228DF80420012203E0E20701D0AD
:103490002022F7E7914657E00A2100E010214FF083
:1034A000000B00910BE010214FF0000B44F00404DE
:1034B0000827009103E008204FF0000B0090C4F3B0
:1034C0000252022A05D058F8040B0021032A08D022
:1034D00008E008F1070020F00702F2E80201904638
:1034E00003E080B2042A00D1C0B24FF000092207E5
:1034F0002AD53278702A07D0DDF800C08CF0100C85
:103500005CEA0B0C05D00EE040228DF8042001226D
:1035100008E050EA010306D030238DF804308DF81E
:10352000052002229146009B83F0080353EA0B0317
:103530000AD150EA010201D1620705D530228DF887
:1035400004204FF001097F1E3278582A04D039A296
:103550000C920CAA02920BE03BA2F9E75B46009AA0
:10356000FCF7CBFF0C9B9B5C029A521E02921370DD
:1035700050EA0102F2D1029804A9081A00F1200BC6
:10358000600702D524F4803400E001275F4502DDA6
:10359000A7EB0B0000E0002000EB0B01009003986C
:1035A0004944401A0390E00306D453462146179A33
:1035B000039800F0A9F90544002706E001A8524647
:1035C000C05D179990476D1C7F1C4F45F6DBE003EB
:1035D0000CD553462146179A039800F095F90544F7
:1035E00004E030205246179990476D1C0099481E00
:1035F00000900029F5DC08E0029802995246007814
:10360000491C0291179990476D1CBBF10001ABF169
:10361000010BF1DC5BE100F065F90544761C3078C4
:1036200000287FF40DAE19B02846BDE8F08F0000E9
:103630000928010030313233343536373839616288
:10364000636465660000000030313233343536374C
:10365000383941424344454600000000600700D429
:10366000062708F1070020F00700F0E80223804653
:1036700003F0004C5FEA0C0001D097A009E02005A0
:1036800001D596A005E0E00701D095A001E0AFF2DA
:103690004C001390307823F0004365280CD006DCF2
:1036A000452809D046281DD047287FD13BE0662811
:1036B00018D067287AD136E00021112F01DB1120C4
:1036C00000E0781CCDE9000104A90CA8FFF7EEFC8E
:1036D000DDE90D010C9A4FF0000B07F10109109282
:1036E00000914EE04FF000400097CDE9011004A991
:1036F0000CA8FFF7DBFCDDE90D020C9B0F994FF0E6
:10370000000B91461093009211B9791C00EB01094E
:10371000B7EB090003D4C0F1FF3B07F10109A9EBA6
:103720000700019042E0012F00DA01270021112F4C
:1037300001DD112000E03846CDE9000104A90CA804
:10374000FFF7B4FCDDE90D010C9A00914FF0000B7E
:10375000B946109221070FD4009A4A4503DA9146E0
:1037600001E0A9F10109B9F1010F05DD109AA9F1F4
:103770000101515C3029F4D0B84202DA10F1040F93
:1037800003DA0121CDE9011010E0002803DC8344B5
:10379000A9EB000102E0411C494500DD8946A0EB90
:1037A0000B00401C01904FF000400290200705D410
:1037B0000198484502DB4FF0FF30019000208DF862
:1037C0004B0002980DF14B07B0F1004F25D00220BD
:1037D0000C902B200D90029800280CDA40420290A9
:1037E0002D200D9007E00A210298FCF770FE303181
:1037F000029007F8011D0C99481E0C900029F2DC7C
:1038000002980028EFD1791E0D980870307800F0EA
:10381000200040F0450007F8020D11A8C01BC01D94
:1038200002901398007800B1012000EB0901019883
:1038300001EBE071029801440398401A401E039086
:10384000E00306D453462146179A039800F05CF82B
:1038500005441398007818B15246179990476D1C8B
:10386000E00323D553462146179A039800F04CF8FD
:1038700005441BE0BBF1000F07DB0098584504DD51
:103880001098179910F80B0001E017993020524654
:10389000904701980BF1010B401E05F101050190C5
:1038A00004D12E205246179990476D1CB9F10001A2
:1038B000A9F10109DEDC05E017F8010B5246179962
:1038C00090476D1C0299481E02900029F4DC534673
:1038D0002146179A03989EE62D0000002B00000059
:1038E000200000002DE9F041044600251E46174641
:1038F000880404D405E039462020B0476D1C641EBE
:10390000F9D52846BDE8F0812DE9F04104460025AF
:103910001E469046C80301D5302700E020278804C2
:1039200004D505E041463846B0476D1C641EF9D504
:103930002846BDE8F081000038B504468DF8000047
:103940000223012269460248FEF714FE204638BDD4
:103950005C01002010B50F4C10212046FDF7F2FE4F
:1039600008B1042010BD01212046FDF7EBFE08B18F
:10397000022010BD4FF480512046FDF7E3FE08B150
:10398000032010BD40210448FDF7DCFE0028F8D0DC
:10399000012010BD00100140000C0140FDF7EAFEBF
:1039A000FFF706F9FEF7B4FEFEF794FEFEF7F4FF0C
:1039B000FEF7A4FFFEF72EFFFEF76AFEFEF740FEBD
:1039C000FFF706F8FEF75AFF01212748FEF724FE0D
:1039D000264C0020012160602348FFF7CFF8022128
:1039E0002148FFF752F800211F48FFF78BF82049C4
:1039F0001D48FFF79FF81C48FFF7A8F81D4F4FF030
:103A00007E554FF4005618486168FFF77BF8FFF7C2
:103A1000A1FF2080012803D101211348FFF7AEF850
:103A20002088022802D11048FFF790F82088032848
:103A300002D0042805D009E029466068FCF7B8FBED
:103A400003E029466068FCF705FC6060012231460E
:103A50003846FDF77CFE6068FCF70AFD02460B461F
:103A600005A0FFF7F3FACEE7740200200000002063
:103A7000000020410010014073616D706C65733A65
:103A8000202566200A0000002DE9F04101240746A8
:103A90009C400E461046641EFCF7DCFB05462046A3
:103AA000FCF7C0FC04463846FCF7BCFC2946FCF792
:103AB000D7FB2146FCF706FC3146BDE8F041FCF798
:103AC00077BB010202030405060708090A0B0C0D67
:103AD0000E0F10100000000000000000010203049F
:103AE0000607080900000000010203040C3B00085F
:103AF000000000202C0000008C300008383B00083B
:103B00002C000020EC0600009C30000800000000A3
:103B10000000000001000000100000000000000094
:103B200000127A0000000000000000000000000009
:083B300000000000000000008D
:0400000508000131BD
:00000001FF
