:020000040800F2
:10000000C80B002029020008752B00089D24000859
:10001000ED2A000849050008F13200080000000040
:10002000000000000000000000000000792B000824
:100030006906000800000000772B0008112D000859
:10004000430200084302000843020008430200087C
:10005000430200084302000843020008430200086C
:10006000430200084302000843020008430200085C
:10007000BD05000843020008C90500084302000846
:10008000430200084302000843020008430200083C
:100090004D0500084302000843020008430200081F
:1000A000430200084302000843020008430200081C
:1000B000430200084302000843020008430200080C
:1000C00043020008430200084302000843020008FC
:1000D00043020008430200084302000843020008EC
:1000E00043020008430200084302000843020008DC
:1000F00043020008430200084302000843020008CC
:1001000043020008430200084302000843020008BB
:1001100043020008430200084302000843020008AB
:100120004302000843020008D50500084302000806
:100130004302000843020008430200086505000866
:100140005905000843020008430200084302000862
:100150004302000843020008E105000843020008CA
:10016000430200084302000843020008430200085B
:100170004302000843020008430200080000000098
:10018000430200084302000800F002F800F03CF8C7
:100190000AA090E8000C82448344AAF10107DA45E2
:1001A00001D100F031F8AFF2090EBAE80F0013F0F8
:1001B000010F18BFFB1A43F001031847083600006F
:1001C00028360000103A24BF78C878C1FAD8520700
:1001D00024BF30C830C144BF04680C6070470000C1
:1001E0000023002400250026103A28BF78C1FBD840
:1001F000520728BF30C148BF0B6070471FB503F0DE
:10020000C7FA1FBD10B510BD00F0D4F81146FFF7B6
:10021000F5FF03F0A5F800F0F2F803B4FFF7F2FFE2
:1002200003BC00F0F7F80000094880470948004780
:10023000FEE7FEE7FEE7FEE7FEE7FEE7FEE7FEE796
:10024000FEE7FEE704480549054A064B70470000F3
:10025000A92D000889010008C8050020C80B00204E
:10026000C8070020C807002053EA020C00F069808C
:100270002DE9F04B4FF00006002B1FBFB3FA83F5BA
:1002800003FA05F424FA05F65E4012BF1643B2FAEB
:1002900082F502FA05F4C5F120051EBF22FA05FC1D
:1002A00044EA0C04203556EA044C4FEA144418BFC3
:1002B000641C4FF000084FF00009904271EB030CF2
:1002C00039D3002919BFB1FA81F701FA07F6B0FA5C
:1002D00080F700FA07F6C7F120071EBF20FA07FCD7
:1002E00046EA0C062037B6FBF4FCA7EB0507103FE7
:1002F00007F01F0BCBF120060CFA0BFB2CFA06F6CD
:1003000044BFB3460026202FA4BF5E464FF0000B2B
:100310005BEA060C08BF4FF0010B19EB0B09ABFBB6
:10032000027C48EB0608C01B06FB02CC0BFB03CC8F
:1003300071EB0C01C1E70B46024641464846BDE859
:10034000F08B13B54FF000004FF00001AFF30080C9
:10035000BDE81C4070474FF0000200B513469446BC
:100360009646203922BFA0E80C50A0E80C50B1F10D
:100370002001BFF4F7AF090728BFA0E80C5048BF21
:100380000CC05DF804EB890028BF40F8042B08BFBF
:10039000704748BF20F8022B11F0804F18BF00F8BB
:1003A000012B704770477047704700000048704746
:1003B000680500207546FFF7F9FFAE46050069465F
:1003C000534620F00700854618B020B5FFF73AFFE6
:1003D000BDE820404FF000064FF000074FF0000846
:1003E0004FF0000B21F00701AC46ACE8C009ACE8C7
:1003F000C009ACE8C009ACE8C0098D46704710B52B
:100400000446AFF300802046BDE81040FFF705BF6B
:100410007047000001491820ABBEFEE7260002002D
:10042000464910B54A6822F440324A604A68436837
:100430001A434A6001684A6822F480724A6001687F
:100440004A68036942EA03224A6001684A6822F066
:1004500040724A6001684A6883681A434A600168CA
:100460008A6822F400628A6001688A68C3681A4355
:100470008A60816A6FF07062D14201688A6822F0F6
:1004800070628A6001688A680CD0836A1A438A6045
:1004900001688A6822F040528A6001688A68C36AEB
:1004A0001A4301E022F040528A6001688A6822F013
:1004B00002028A6001688A68037E42EA43028A6017
:1004C00090F82010002901684A680FD042F40062B9
:1004D0004A6001684A6822F460424A6001684A68DA
:1004E000174C436A04EB43331A4301E022F40062E1
:1004F0004A600168CA6A22F47002CA620168CA6A64
:10050000838B104C04EB03531A43CA6201688A6858
:1005100022F400728A6001688A6890F8303042EAFA
:1005200043228A6001688A6822F480628A600168D6
:100530008A68406942EA8020886010BD002301403B
:1005400000E0FFFF0000F0FFFEE70000014800F0C0
:1005500014BB0000A0000020014800F00EBB00000A
:10056000C8000020014800F008BB0000C8000020BF
:10057000D0ED081A90ED071AD0ED050A90ED060AA5
:100580000A48008802EE100A0948F8EE423A00884C
:1005900002EE100A0748B8EE423A007802EE100A5E
:1005A000F8EE422A9FED042A01F0A2BF04000020C9
:1005B000020000200000002000C07944014800F043
:1005C00043BD000008040020014800F03DBD0000CC
:1005D00068040020014800F037BD000048030020F7
:1005E000014800F031BD0000A80300200168182375
:1005F000CAB2103AB2FBF3F2054B6FF30901032ABA
:100600009B5CC36500D9091D8165084670470000E1
:10061000A437000810B5014600208B698A6A4FF0A4
:10062000C07453B1B3F5005F15D072B1012A0CD07C
:10063000022A0AD0032A09D104E01AB1012A06D0FD
:10064000022A03D1C96AC90100D5012010BDC96AB7
:10065000A142FAD010BD002AF7D0012AF2D0022A16
:10066000F3D0032AF3D010BD704772B6FEE710EE48
:10067000101A01700A0A42700A0C8270090EC170C9
:100680007047000078B50024009490F83C20012ABF
:1006900019D0012280F83C200A6807230568092A3E
:1006A00013D9EE680A3A02EB420293409E43EE6091
:1006B0000B788A680A3B03EB43039A400368DD68C2
:1006C0002A43DA6010E0022078BD2E6902EB420274
:1006D00093409E432E610B788A6803EB43039A4054
:1006E00003681D692A431A614A681F23072A13D227
:1006F00005686E6B521E02EB820293409E436E634E
:100700000B790A885B1E92B203EB83039A4003685D
:100710005D6B2A435A6327E005680D2A12D22E6BBF
:10072000D21F02EB820293409E432E630B790A880C
:10073000DB1F92B203EB83039A4003681D6B2A43CD
:100740001A6311E0EE6A0D3A02EB820293409E4377
:10075000EE620B790A880D3B92B203EB83039A4059
:100760000368DD6A2A43DA62164B0568144A9D4223
:1007700006D10D68122D03D1556845F480055560EA
:1007800005689D4218D10B68102B01D0112B13D195
:10079000536843F400035360096810290CD10A49D7
:1007A0000A4A0968B1FBF2F101EB8101490000E05E
:1007B000491E00910029FBD180F83C40002078BD03
:1007C00000230140002001401800002040420F009B
:1007D00070B504004FF0000503D0206C002610B166
:1007E00007E0012070BD204600F01CF8666484F824
:1007F0003C60206CC00610D4206C20F4885040F07F
:10080000020020642046FFF70BFE6664206C20F097
:10081000020040F00100206400E0012584F83C6003
:10082000284670BD10B586B0044614216846FFF70F
:1008300092FD1149206888421CD1104800210268AD
:1008400042F480720260006800F4807005900B48EA
:100850001438026842F001020260006800F00100F2
:100860000590012000900320CDE90101694604486C
:1008700000F036FD06B010BD0020014044380240B3
:100880000000024090F82020012A07D0022A05D05B
:10089000416A41F480214162012070470068426949
:1008A0000A43426100207047F0B590F82050046878
:1008B000A468012D05D0022D03D0416A41F48021A6
:1008C00057E014F0406F01D1E5004FD5C4F3016447
:1008D0000125A5401D608D684FF4C0739DB1CE68A1
:1008E00035434E6845EAC605066803EB0417F55123
:1008F0004FF4C275076805EB04150E697E51097D3A
:10090000012905D009E00E88CD6845EA4655EBE798
:1009100001684E5946F480764E511179D579567951
:1009200041EA056195792D0445EA062529434FF4EE
:10093000C676056806EB0416A9511178D57841EA08
:100940000561957852782D0445EA022211434FF44F
:10095000C475026805EB04155151006803EB0411DE
:10096000425842F0010242500020F0BD416A41F479
:10097000001141620120F0BD10B590F82020012A3D
:1009800007D0022A05D0416A41F48021416201204A
:1009900010BD3B48D0F8002242F00102C0F800220E
:1009A000D0F8002222F47C52C0F80022D0F80022B5
:1009B0004B6A42EA0322C0F800220A7D02F01F03BC
:1009C00001229A40D0F81C329343C0F81C32CB6904
:1009D000B3B9D0F80C329343C0F80C328C894B6811
:1009E00064F31F434C6900EBC404C4F840320C8923
:1009F0000B6864F31F434C6900EBC404C4F8443231
:100A0000CB69012B16D1D0F80C321343C0F80C324D
:100A10000C884B6864F31F434C6900EBC404C4F8B2
:100A200040320C89CB6864F31F434C6900EBC4046B
:100A3000C4F844328B69002BD0F804320ED0134333
:100A4000C0F804320B69002BD0F8143208D01343DD
:100A5000C0F81432096A012904D008E09343EFE793
:100A60009343F5E7D0F81C121143C0F81C12D0F8DC
:100A7000001221F00101C0F80012002010BD00009A
:100A800000640040704770B590F82040012C05D0FC
:100A9000022C03D0416A41F4802128E0046809B3A4
:100AA0002469A40720D04FF4D874056804EB01141E
:100AB0002D5915F00405956005682D591AD0ED08DB
:100AC000556005682C5904F00204D4604FF4DA74C0
:100AD000056804EB01142E5906F00F06082E0CD3FE
:100AE00008250DE0E468DCE7416A41F40011416249
:100AF000012070BD6D0D1560E3E72D5905F00F0560
:100B0000156105682D59C5F30725956105682C59B0
:100B1000240C54614FF4DC72046802EB0112A458F7
:100B20001C700468A458240A5C700468A458240C3F
:100B30009C700468A258120EDA704FF4DE720468DA
:100B400002EB0112A4581C710468A458240A5C71B9
:100B50000468A458240C9C710468A258120EDA711F
:100B6000006829B1016941F020010161002070BDD8
:100B7000C16841F02001C160F8E72DE9F05F05464A
:100B8000006800244669D0F804908768D0F80CB05B
:100B9000D0F810A0D0F81880F10748D0F90714D089
:100BA00001218160B80703D5284600F046FA0CE021
:100BB000780702D54FF4006407E0380702D54FF4F8
:100BC000805402E0284600F037FAF80516D5296867
:100BD0004FF480708860B80503D5284600F02FFADE
:100BE0000CE0780502D544F4005407E0380502D53E
:100BF00044F4804402E0284600F020FAF80316D5B9
:100C000029684FF480308860B80303D5284600F087
:100C100018FA0CE0780302D544F4004407E03803E6
:100C200002D544F4803402E0284600F009FA300787
:100C300007D55FEACB6004D52968102044F400741E
:100C4000C86070074FF0080707D55FEA0B7004D53E
:100C50002868C760284600F0A3F9B00706D52868C1
:100C6000C068800702D0284600F09CF9700607D5BE
:100C70005FEACA6004D52968102044F480640861E2
:100C8000B00607D55FEA0A7004D5286807612846D0
:100C900000F0A2F9F00606D528680069800702D0A6
:100CA000284600F09AF9B00308D55FEAC96005D577
:100CB000296810204860284600F090F9F00307D515
:100CC0005FEA097004D528684760284600F0BAF941
:100CD000300446D55FEA497040D5F00504D55FEA97
:100CE000C87001D044F00104B00504D55FEA8870F3
:100CF00001D544F00204700504D55FEA487001D5BF
:100D000044F00404300529D518F0700F26D008F0FF
:100D10007000402815D006DC102809D020280AD001
:100D2000302816D10AE050280ED0602811D10EE0EC
:100D300044F008040DE044F010040AE044F02004FC
:100D400007E044F0400404E044F0800401E044F48F
:100D500080742868816921F070018161296804200C
:100D60004860002C05D0686A204368622846FFF777
:100D700089FEBDE8F09F70B5040003D094F8200010
:100D800010B104E0012070BD204600F081F8206819
:100D9000016841F00101016000F0A4FB0546052651
:100DA00004E000F09FFB401B0A2811D8206840682F
:100DB000C007F6D02068016821F00201016000F050
:100DC00091FB05460BE000F08DFB401B0A2806D97D
:100DD000606A40F40030606284F82060D2E72068E6
:100DE00040688007EFD4207E0128206801683DD04C
:100DF00021F080010160607E01282068016838D000
:100E000021F040010160A07E01282068016833D0F4
:100E100021F020010160E07E0128206801682ED0C9
:100E200041F010010160207F01282068016829D06D
:100E300021F008010160607F01282068016824D04A
:100E400021F004010160D4E902010843D4E904124D
:100E5000114308436168491E08432168C8610020A6
:100E60006062012084F82000002070BD41F0800104
:100E7000C0E741F04001C5E741F02001CAE721F099
:100E80001001CFE741F00801D4E741F00401D9E7B0
:100E9000F0B587B0044614216846FFF75CFA3B4B77
:100EA0003B48DFF8E4E01968D4F800C0384A02256E
:100EB0000326092710300024491CF44524D1196069
:100EC000012907D1016841F000710160006800F05C
:100ED00000700590106840F001001060106802ABCF
:100EE00000F0010005904FF4C050CDE9000583E803
:100EF000D0006946274800F0F3F90022114614207B
:100F000000F078FC14203BE0DFF88CE0F44539D1A8
:100F1000D0F800C04CF0806CC0F800C0D0F800C021
:100F200001290CF0806CCDF814C0196007D101685C
:100F300041F000710160006800F0007005901068D9
:100F400040F002001060106802AB00F00200059053
:100F50004FF44050CDE9000583E8D00069460F48C2
:100F600000F0BEF9002211463F2000F043FC3F2074
:100F700000F032FC00221146402000F03BFC4020F3
:100F800000F02AFC07B0F0BD00640040080000201B
:100F90003038024000000240006800400004024077
:100FA0007047000010B5094B094A00210948FFF7B6
:100FB0006AFD07480168002906D14268BDE8104073
:100FC00002496C3801F094BD10BD000050000020B3
:100FD00034050020A00000207047704770470000D3
:100FE00070B5044690F82000012804D0606A40F4EF
:100FF0000020606218E0022084F820002068016868
:1010000021F00101016000F06DFA05460EE000BF1D
:1010100000F068FA401B0A2808D9606A40F40030E2
:101020006062052084F82000012070BD20684068BF
:10103000C007EDD1606270BD704770477047704760
:1010400070477047704700002DE9F84304464FF0A1
:101050000009CDF8009063484FF41651A56D006863
:10106000B0FBF1F72E6894F85C10082000FA01F14B
:1010700031420FD021680A6852070BD50A6822F066
:1010800004020A6094F85C108840A860606D40F02B
:101090000100606594F85C104FF0010808FA01F057
:1010A000304208D021684969090604D5A860606DFE
:1010B00040F00200606594F85C10042088403042E3
:1010C00008D021680968890704D5A860606D40F0E0
:1010D0000400606594F85C1010208840304218D0FD
:1010E00021680968090714D5A860206801684903C8
:1010F00004D50068000308D5A16C07E00168C905A4
:1011000003D4016821F008010160216C09B1204677
:10111000884794F85C1020208840304231D0216804
:101120000968C9062DD5A86094F8350005282068FF
:10113000016806D0490347D5006800031DD4616CDF
:101140001CE021F0160101602068416921F0800156
:101150004161206C08B9A06C20B12068016821F0C1
:101160000801016094F85C103F208840A86084F872
:10117000358084F83490216D1FE0E16B09B1204681
:101180008847606D00282BD0606DC00714D0052003
:1011900084F835002068016821F0010101600098A1
:1011A000401C0090B84203D820680068C007F6D100
:1011B00084F8358084F83490E16C002910D001B0B7
:1011C0002046BDE8F04308470168C905D5D4016849
:1011D00021F01001016084F8358084F83490CCE768
:1011E000BDE8F883180000202DE9F041044600F026
:1011F00079F906465CB1022084F83500002584F8B0
:1012000034502068016821F0010101600DE00120E7
:10121000BDE8F08100F066F9801B052805D9202083
:101220006065032084F83500F2E720680068C00795
:10123000F0D12268116820480140D4E90103184325
:10124000D4E903363343184363691843A369184349
:10125000E3691843236A18430843616A042903D1E8
:10126000D4E90B1319430843106020684069666A8B
:1012700020F0070130460E43012704280CD1A06A54
:101280000643E06A40B12046FFF7C4F920B1402090
:10129000606584F83570BAE7206846612046FFF73C
:1012A000A5F994F85C203F2191408160656584F840
:1012B00035700020ACE700003F8010F070B50446A8
:1012C00000F010F90546601C02D004480078044480
:1012D00000F008F9401BA042FAD370BD0C000020BA
:1012E0002DE9F84FDFF8BCA10022012503264FF0BD
:1012F0000F090AF1040BAAF1040E00BF0B6805FAEE
:1013000002F42340A34270D10F7907F00307012FA5
:1013100001D0022F16D187684FEA420806FA08FC6E
:1013200027EA0C07D1F80CC00CFA08FC4CEA070CB1
:10133000C0F808C04768A7430C79C4F30014944070
:101340003C4344600C79E443A4070AD0C4684FEAE4
:10135000420C06FA0CF7BC438F6807FA0CF72743D8
:10136000C7600C7904F00304022C12D1D40800EBFE
:10137000840CDCF820405707FF0E09FA07F824EA2E
:101380000804D1F8108008FA07F848EA0408CCF8F5
:10139000208004684FEA420C06FA0CF7BC430F7930
:1013A00007F0030707FA0CF7274307604C6814F4AB
:1013B000403F70D03C4C276847F480472760246842
:1013C00022F0030704F480440094384C07EB040C2B
:1013D000DCF8084897074FEA177809FA08F7BC4382
:1013E000334FB84202D1002724E054E0314FB842D5
:1013F00001D101271EE0304FB84201D1022719E088
:101400002E4FB84201D1032714E02D4FB84201D12D
:1014100004270FE02B4FB84201D105270AE02A4FDD
:10142000B84201D1062705E0284FB84201D107276D
:1014300000E0082707FA08F72743CCF80878DAF81D
:1014400000405746D1F804C09C435FEACC2C00D53D
:101450001C433C60DBF800405F46D1F804C09C436D
:101460005FEA8C2C00D51C433C60DEF800407746D8
:10147000D1F804C09C435FEA8C3C00D51C433C601F
:10148000084F083F3C68D1F804C09C435FEACC3C5D
:1014900000D51C433C60521C102AFFF42FAFBDE85E
:1014A000F88F0000083C0140443802400030014001
:1014B000000002400004024000080240000C02400C
:1014C000001002400014024000180240001C0240BC
:1014D0000069084000D0012070470AB1816170475F
:1014E0000904FBE701488068704700000C000020F9
:1014F00070B5040025D094F83D00002520B984F88B
:101500003C50204600F0B8F8242084F83D002068C4
:10151000016821F0010101602068016841F4004187
:1015200001602068016821F40041016000F02EFA9A
:101530004D4A6168914201D84C4900E04C498842CB
:1015400001D2012070BD4B492368B0FBF1F15E6808
:1015500026F03F060E435E606368934206D94FF45F
:10156000967359434FF47A73B1FBF3F12368491C26
:101570001E6A26F03F06314319626168914210D815
:101580004900401EB0FBF1F2521CC2F30B02042AC8
:1015900001D2042022E0B0FBF1F0401CC0F30B00AC
:1015A0001CE0A268F2B301EBC10303EB0116431E7A
:1015B000B3FBF6F35B1C43F480431B0549D092B3A5
:1015C00001EBC10202EB0111401EB0FBF1F0401C27
:1015D000C0F30B0040F4804040F400402168CA6929
:1015E0004CF6FF739A431043C861D4E907100143D6
:1015F0002068026822F0C00211430160D4E90301AF
:1016000001432068826848F2FF339A4311438160A6
:10161000D4E9050108432168CA6822F0FF0210439B
:10162000C86001E00EE016E02068016841F00101A9
:1016300001602564202084F83D00256384F83E5035
:10164000002070BD01EB4106431EB3FBF6F35B1CAB
:10165000B3E70120C2E701EB4101401EB0FBF1F00E
:10166000401CC0F30B00B7E7A086010080841E0079
:1016700000093D0040420F00F0B587B00446142138
:101680006846FEF768FE2768234CDFF888C0002212
:10169000214912230325042620481034674518D118
:1016A0000F6847F002070F60096802AF01F00201FE
:1016B0000591C021CDE9001387E864006946FFF772
:1016C0000FFE206840F400102060206800F4001035
:1016D0001CE0DFF84CC0674519D10F6847F00207DE
:1016E0000F60096802AF01F0020105914FF44061FB
:1016F000CDE9001387E864006946FFF7F1FD206833
:1017000040F480002060206800F48000059007B05D
:10171000F0BD000000540040303802400004024098
:101720000058004002488168027811448160704787
:101730000C0000200B4810B5016841F400710160F5
:10174000016841F480610160016841F480710160C9
:10175000032000F06FF80F2000F006F800F024F8E6
:10176000002010BD003C024070B50D4D04464FF402
:101770007A712878B1FBF0F00A490968B1FBF0F002
:1017800000F00CFB48B9102C07D200222146501E55
:1017900000F030F800206C6070BD012070BD0000CA
:1017A0000C000020180000200A4808B5016841F428
:1017B00080410160006800F4804000900548001FEF
:1017C000016841F080510160006800F08050009095
:1017D00008BD000044380240002809DB00F01F0269
:1017E000012191404009800000F1E020C0F8001183
:1017F00070470000F0B40E4B1B680C46C3F3022385
:10180000C3F10705042D00D90425191D072901D2AC
:10181000002300E0DB1E012606FA05F1491E2140E7
:1018200099409E40761E16403143F0BC01F061BDE8
:101830000CED00E0064900F0070208684FF6FF03D0
:10184000184040EA0220034A104308607047000035
:101850000CED00E00000FA052DE9F0470E4605000A
:1018600065D0DFF81481D8F80000F7B200F0070067
:10187000B04207D288F80070D8F8000000F00700E6
:10188000B04254D128683D4C810712D5400703D59A
:10189000206840F4E05020602878000703D52068D5
:1018A00040F4604020602068A96820F0F000084300
:1018B00020602878C0072DD0304968680839012891
:1018C00012D0022813D0032811D0096889070029F3
:1018D0002DDA216821F0030101432160FFF702FEA8
:1018E000814641F2883A0EE009688903EFE709680A
:1018F0008901ECE7FFF7F6FDA0EB0901514502D99C
:101900000320BDE8F0872068696800F00C00B0EBA8
:10191000810FEFD1D8F80010404601F00701B14225
:1019200007D90770006800F00700B04201D001201D
:10193000E7E72878400705D52068E96820F4E050FB
:10194000084320602878000706D52068296920F41C
:10195000604040EAC100206000F038F82168084A81
:10196000C1F30311515CC84006490860064800688D
:10197000FFF7FAFE0020C4E7003C024008380240AE
:10198000AC3700081800002010000020044805496A
:1019900000680968044AC1F38221515CC84070475D
:1019A0001800002008380240BC37000804480549E8
:1019B00000680968044AC1F34231515CC84070476D
:1019C0001800002008380240BC370008154810B540
:1019D000006810F00C02144813D01449042A0FD0E8
:1019E000082A0ED10F4C241F2268236802F03F0200
:1019F0005B0207D52068C0F38810A0FB010106E058
:101A0000084610BD2168C1F38811A1FB0001002325
:101A1000FEF72AFC2168C1F30141491C4900B0FBD3
:101A2000F1F010BD083802400024F40040787D0138
:101A30002DE9F84F04006ED02078DFF84C93C007F2
:101A4000A9F104054AD009F104000168C1F381013C
:101A5000012908D00068C0F3810002280AD1D9F812
:101A60000000400206D52868800337D5606800284A
:101A7000E1D033E06068B0F5803F10D0B0F5A02F22
:101A8000286810D020F480302860286820F4802056
:101A900028606068A8B1FFF725FD06460DE02868BC
:101AA00040F48030F4E740F480202860F7E700BF7E
:101AB000FFF718FD801B642873D828688003F7D5CA
:101AC0000CE0FFF70FFD064605E000BFFFF70AFD3B
:101AD000801B6428F0D828688003F7D42078DFF8CA
:101AE000AC8280074FF0000A3ED5A748001D016870
:101AF00011F00C0F08D00068C0F3810002280BD150
:101B0000D9F80000400207D42868800716D5E0689D
:101B1000012800D112E033E1E068B8B10120C8F833
:101B20000000FFF7DFFC064605E000BFFFF7DAFC28
:101B3000801B0228C0D828688007F7D5286821694B
:101B400020F0F80040EAC10028600DE0C8F800A0CD
:101B5000FFF7C8FC064604E0FFF7C4FC801B022820
:101B60001FD828688007F7D42078000722D5864F31
:101B700087486169703771B101210160FFF7B2FCDC
:101B8000064604E0FFF7AEFC801B022809D838683F
:101B90008007F7D50EE0C0F800A0FFF7A3FC0646CB
:101BA00005E082E0FFF79EFC801B02287DD83868A4
:101BB0008007F7D42078400768D5DFF8CCB100273C
:101BC0000BF13C0BDBF80000C0000BD4DBF800107D
:101BD00041F08051CBF80010DBF80000012700F045
:101BE000805000906B4E3068C00510D4306840F4CF
:101BF00080703060FFF776FC009005E0FFF772FC24
:101C00000099401A022850D83068C005F6D55E4EBB
:101C1000A0686C3601280FD00528306810D020F05D
:101C200001003060306820F004003060A068B8B176
:101C3000FFF758FC00900FE0306840F00100F4E737
:101C400040F004003060F7E7FFF74CFC0099411AC0
:101C500041F28830814266D830688007F4D50EE0C2
:101C6000FFF740FC009007E0FFF73CFC0099411AA9
:101C700041F28830814256D830688007F4D42FB1C1
:101C8000DBF8001021F08051CBF80010A069C8B338
:101C90003D49091D0968C1F3810102294AD0022882
:101CA000504607D0C8F8600000E03CE0FFF71AFC9F
:101CB00004463BE04746C8F86000FFF713FC0646C1
:101CC00005E000BFFFF70EFC801B02282BD8286818
:101CD0008001F7D4D4E907010843A16A2E4A4908D4
:101CE00002EB0141626A41EA8211084394F82C1028
:101CF00040EA0161C9F8001001203866FFF7F2FBE5
:101D0000044606E03EE000BFFFF7ECFB001B0228A4
:101D100009D828688001F7D534E000BFFFF7E2FB5F
:101D2000001B022802D90320BDE8F88F2868800133
:101D3000F4D427E00128F7D0D9F80000E26900F4D4
:101D4000800191421CD1226A00F03F01914217D1DB
:101D500047F6C071626A0140B1EB821F10D1A26ADE
:101D60004FF0FF3300F4403103EB5202B1EB024F6E
:101D700006D194F82C1000F07060B0EB016F01D028
:101D80000120D1E70020CFE704380240000047429D
:101D9000800E4742007000400000FFFF10B5401E5B
:101DA000B0F1807F01D3012010BD4FF0E0246061CD
:101DB0000F21601701F09DFA0020A061072020612B
:101DC000002010BD70B590F83C20012A32D00124CB
:101DD00080F83C40022280F83D2003685A689D68E4
:101DE00022F070060A6832435A60134B02689A4226
:101DF00014D0B2F1804F11D0104B9A420ED0104B3C
:101E00009A420BD00F4B9A4208D00F4B9A4205D002
:101E10000E4B9A4202D00E4B9A4204D1496825F0EB
:101E200080031943916080F83D40002180F83C1008
:101E3000084670BD022070BD000001400004004053
:101E400000080040000C0040000401400040014038
:101E50000018004010B5040003D094F83D0010B104
:101E600007E0012010BD002084F83C00204600F06F
:101E70001FF8022084F83D00211D206800F09CFF1F
:101E8000012084F8460084F83E0084F83F0084F87E
:101E9000400084F8410084F8420084F8430084F84C
:101EA000440084F8450084F83D00002010BD000087
:101EB00008B501681248814208D11248016841F012
:101EC00001010160006800F001000BE00D480E4ABE
:101ED000001F914208D1016841F080010160006853
:101EE00000F08000009008BD084A9142FBD10168D3
:101EF00041F480710160006800F48070F2E7000036
:101F00000000014044380240001C00400020004016
:101F100070B5044690F83C000025012817D0012632
:101F200084F83C60022084F83D002068826822F03A
:101F3000770222F47F4282600868502838D00DDC96
:101F400020284FD005DC90B3102811D14AE00220A0
:101F500070BD302846D040280AD13BE060282FD001
:101F600070280DD0B0F5805F03D0B0F5005F12D0BF
:101F7000012584F83D60002084F83C00284670BDAF
:101F8000CB68D1E90121206800F082FF20688168D8
:101F900041F0770109E0CB68D1E90121206800F028
:101FA00077FF2068816841F480418160E1E719E0B2
:101FB000CA684968206801F085F85021206806E069
:101FC000CA684968206801F08EF86021206800F036
:101FD00069FFCEE7CA684968206801F073F84021BC
:101FE0002068F4E7226801461046F0E770B586B035
:101FF000044614216846FEF7AEF9144E2568002207
:102000001349022309241348B54209D10D6845F04C
:1020100001050D60096801F00101059140210BE007
:102020000D4EB54210D10D6845F001050D600968EF
:1020300001F00101059180210091CDE90132CDE946
:1020400003246946FFF74CF906B070BD001C004040
:1020500030380240000002400020004070B50446C5
:1020600090F83C0000260D4601280FD0012084F88E
:102070003C006AB1042A1DD0082A2FD00C2A3FD078
:102080000126002084F83C00304670BD022070BD5F
:10209000206800F00FFF2068816941F0080181612C
:1020A0002068816921F004018161206881692A69C1
:1020B000114311E0206800F02DFF2068816941F490
:1020C000006181612068816921F4806181612068FB
:1020D00081692A6941EA02218161D2E7206800F022
:1020E0004FFF2068C16941F00801C1612068C169E2
:1020F00021F00401C1612068C1692A69114311E01E
:10210000206800F071FF2068C16941F40061C1617D
:102110002068C16921F48061C1612068C1692A69B0
:1021200041EA0221C161ACE710B5040003D094F884
:102130003D0010B107E0012010BD002084F83C00F4
:10214000204600F01EF8022084F83D00211D206882
:1021500000F032FE012084F8460084F83E0084F846
:102160003F0084F8400084F8410084F8420084F87D
:10217000430084F8440084F8450084F83D000020C2
:1021800010BD704770B5044690F83C00012812D08D
:10219000012584F83C50022084F83D00204600F0E0
:1021A0004BFF01004FF0000007D084F83D5084F849
:1021B0003C00012070BD022070BD2168CA6822F079
:1021C0004002CA602168CA6822F48042CA6084F86A
:1021D0003D5084F83C00002070BD70B5040004D070
:1021E00094F84100002510B106E0012070BD84F88C
:1021F0004050204600F024F8242084F84100206854
:10220000C16821F40051C160204600F0A5FF20689C
:10221000016921F4904101612068416921F02A019E
:1022200041612068C16841F40051C16065642020AB
:1022300084F8410084F842006563002070BD00000E
:102240002DE9F04F87B0044614216846FEF783F865
:10225000604E0221D4F800C05F4803220723002506
:102260008F064FF0400A4FF48069B44546D15A4E6C
:102270001436D6F800C04CF0100CC6F800C0366812
:1022800006F010060596066846F00106066000682E
:1022900000F00100059050028DE8230069464F4888
:1022A000CDE90323FFF71CF84E4E4D48B846306089
:1022B000C6E90175C6E903597561B561F561356215
:1022C0004F4630467562FEF78FFF08B1FEF7CDF935
:1022D000E6634348B463434E78306036C6E903573B
:1022E0007561B561F5613562756286E80105304654
:1022F00069E0A663B46307B0BDE8F08F364EDFF83F
:10230000E8801036DFF8E4B0C44519D1346844F4ED
:1023100000343460346804F400340594046844F0F4
:1023200008040460006800F00800059060208DE853
:10233000230069465846CDE90323FEF7D1FFDAE7CB
:10234000DFF8AC80C445D6D1D6F800C04CF4802C60
:10235000C6F800C0366806F480260596066846F082
:1023600008060660006800F0080005904FF4407011
:102370008DE8230069465846CDE90323FEF7B0FFF8
:10238000184E1C48C036C8463060C6E90175C6E91B
:1023900003597561B561F561356230467562FEF7C6
:1023A00023FF08B1FEF761F9E663B463124E1148EA
:1023B000C6E903587561B561F56135623030756203
:1023C00086E881043046FEF70FFF002891D0FEF723
:1023D0004CF98EE700100140303802400000024006
:1023E000406402404803002000440040000C0240CA
:1023F0000048004028600240680400202DE9F843AE
:10240000044690F84100984616460D46202802D012
:102410000220BDE8F88385B17EB1002060642120F0
:1024200084F84100FFF75EF8A6848146E684A06840
:102430002027B0F5805F02D003E00120E9E72069A2
:1024400010B12E4600250EE000260CE0802120462B
:1024500000F008FFA8B9C6B116F8010B2168486062
:10246000E08C401EE084E08C4B464FF00002CDF83B
:1024700000800028EAD14FF04001204600F0F2FE33
:1024800040B184F841700320C3E735F8020BC0F374
:102490000800E3E784F841700020BAE7FEE7000097
:1024A00010B5114B8AB0002204241A60C3E901243C
:1024B0000824C3E9032401700120CDE9062003921A
:1024C00008900E20059209900092019202926946AE
:1024D0000648FEF751FA02210448FEF7D3F90348F3
:1024E000FEF77EFD0AB010BD50050020A0000020C0
:1024F00010B53748FEF7BBF83548B0EE600A001D4E
:10250000FEF7B5F83248B0EE410A0830FEF7AFF8F2
:102510002F48B0EE610A0C30FEF7A9F82C48B0EE57
:10252000420A1030FEF7A3F82948B0EE620A1430D0
:10253000FEF79DF82648B0EE430A1830FEF797F8EC
:102540002348B0EE630A1C30FEF791F84FF0FF34D9
:10255000234604221E491F48FFF750FF1C4923460B
:102560000422091D1B48FFF749FF1949234604228D
:1025700008311848FFF742FF1549234604220C3161
:102580001448FFF73BFF124923460422103111483B
:10259000FFF734FF0E492346042214310D48FFF79C
:1025A0002DFF0B492346042218310A48FFF726FF66
:1025B0000749234604221C310648FFF71FFF234624
:1025C00003490422BDE8104008390248FFF716BF4E
:1025D00028000020700200207FB5002415480094D8
:1025E000019402941249039401604FF480314160D8
:1025F000090204618160047680F820400E49C0E938
:102600000A140125C561C46080F830404561FEF7B9
:10261000DFF808B1FEF729F8CDE90045694605481D
:102620000294FEF72FF8002801D0FEF71EF87FBDB8
:1026300000200140580000200100000F104810B594
:102640000E4901600621416000214FF4E0228160C3
:10265000C0E903124FF48002426101764176012203
:102660008276C27602774177FEF785FB002803D099
:10267000BDE81040FDF7F9BF10BD00000064004048
:10268000A0000020104810B50E49016006214160ED
:102690008907816000214FF4E022C0E903124FF462
:1026A00080024261017641768176C1760177417779
:1026B000FEF761FB002803D0BDE81040FDF7D5BF51
:1026C00010BD000000680040C8000020194808B58F
:1026D000016841F480010160016801F4800100910A
:1026E000016841F4001101600068002200F400104C
:1026F000009011460C20FFF77DF80C20FFF76CF8D6
:10270000002211460E20FFF775F80E20FFF764F83F
:10271000002211463A20FFF76DF83A20FFF75CF8E7
:10272000002211464620FFF765F8BDE80840462024
:10273000FFF752B8303802402DE9F04F87B014212E
:102740006846FDF708FE46480024016841F0040190
:102750000160016801F004010591016841F0800108
:102760000160016801F080010591016841F00101FB
:102770000160016801F001010591016841F0020169
:102780000160016801F002010591016841F010014A
:102790000160016801F010010591016841F0080134
:1027A00001600068DFF8BCA000F008004FF400559D
:1027B0000590002229465046FEF78FFEDFF8A890CC
:1027C0004FF4C058002241464846FEF786FEDFF827
:1027D0009CB0002230215846FEF77FFE0126CDE94D
:1027E0000056CDE9026469465046FEF779FD102097
:1027F00002258DE8310069461D48FEF771FD30273E
:10280000009769465046CDE90145FEF769FD032072
:102810008DE8310069465846FEF762FD28028DE8D2
:10282000310069461348FEF75BFDCDE90254CDE95E
:10283000008669464846FEF753FDC020CDE90004F6
:10284000694650460294FEF74BFDCDE90254CDE9AE
:10285000007669465846FEF743FD07B0BDE8F08FA5
:102860003038024000080240000C024000040240E0
:1028700000000240001002400D4810B50B490160F5
:102880000C49416000214FF480428160C0E903128D
:1028900041618161C1610162FEF72AFE002803D017
:1028A000BDE81040FDF7E1BE10BD0000005400403F
:1028B000F0000020A08601000D4810B50B49016012
:1028C0000C49416000214FF480428160C0E903124D
:1028D00041618161C1610162FEF70AFE002803D0F7
:1028E000BDE81040FDF7C1BE10BD0000005800401B
:1028F00044010020A086010010B588B01C21684664
:10290000FDF729FD144813490024C0E900144FF6CF
:10291000FF71C0E9024104618461FFF79BFA08B1CD
:10292000FDF7A3FE0C48FFF7FFFB08B1FDF79DFE86
:102930006020CDE900040294002269460648049410
:10294000FFF78CFB08B1FDF790FE0348FFF74EFB45
:1029500008B010BD001C0040E001002010B588B098
:102960001C216846FDF7F7FC144813490024C0E910
:1029700000144FF6FF71C0E9024104618461FFF762
:1029800069FA08B1FDF771FE0C48FFF7CDFB08B1FD
:10299000FDF76BFE6020CDE9000402940022694639
:1029A00006480494FFF75AFB08B1FDF75EFE0348A2
:1029B000FFF71CFB08B010BD0020004028020020DB
:1029C00010B58CB000240594069407941421684631
:1029D0000894FDF7C0FC1A48099418490A94C0E904
:1029E00000144FF6FF71C0E9024104614461846143
:1029F000FFF730FA08B1FDF738FE4FF4805005902C
:102A000005A90F48FFF784FA08B1FDF72EFE06204E
:102A1000CDE9000469460A48FFF7B4FB08B1FDF7A9
:102A200024FE099409A906480A94FFF7CBF9002867
:102A300001D0FDF71AFE0CB010BD000000000140EF
:102A4000980100200C4810B50A4901604FF4E131AB
:102A50004160002181600C22C160C0E904128161E3
:102A6000C161FFF7BAFB002803D0BDE81040FDF7B5
:102A7000FCBD10BD00100140700200200C4810B5D4
:102A80000A4901604FF4E1314160002181600C226C
:102A9000C160C0E904128161C161FFF79EFB00289B
:102AA00003D0BDE81040FDF7E0BD10BD004400407C
:102AB000B80200200C4810B50A4901604FF4E1311A
:102AC0004160002181600C22C160C0E90412816173
:102AD000C161FFF782FB002803D0BDE81040FDF77D
:102AE000C4BD10BD0048004000030020FEE7000008
:102AF00070B5044608880B46154640BA1021DFED34
:102B0000180A9FED180A00F0ECFC84ED060A5888BC
:102B1000102140BAF3EE0E0ABBEE0E0A00F0E1FC03
:102B200084ED050A9888102140BAF2EE080ABAEE40
:102B3000080A00F0D6FC84ED070AD88840BA00F0F5
:102B400016FD9FED091B53EC112B00F023FD00F047
:102B5000DDFC2062C5F3044084F8240070BD000051
:102B600000003444000034C49A9999999999B93F66
:102B700070477047FEE77047704700EE101A7322E7
:102B800047F20501B8EE400AAFF3008007B5002117
:102B90002DED020B82B0009101910078104908439D
:102BA0001049662A4860BDF81400ADF8000002D054
:102BB000732A03D008E08DED010A05E0BCEEC00ADF
:102BC00010EE100A8DF80400074B6A4605490748C5
:102BD000FDF76AFE0120FEF771FB07B000BD0000A3
:102BE000000400125005002048000020A000002032
:102BF00010B59FED0C1A04462DED028BB0EE408A05
:102C00009FED070A662247F2160168EE000A80EE81
:102C1000810AFFF7BBFF84ED038ABDEC028B10BD78
:102C2000DB0F4940000034431CB5002100910191A5
:102C300001218DF8001000780449064B084304492F
:102C40006A4648600448FDF72FFE1CBD00040006DC
:102C50005005002048000020A000002010B50446C8
:102C60002DED028BB0EE408A662247F21701FFF786
:102C70008DFF84ED138ABDEC028B10BD10B50446A8
:102C80002DED028BB0EE408A662247F20B01FFF772
:102C90007DFF84ED118ABDEC028B10BD1CB50021B7
:102CA0000091019100780549064B084304496A46A2
:102CB00048600548FDF7F8FD1CBD00000004000356
:102CC0005005002048000020A0000020006A0349B1
:102CD000884201DB0020704701207047000020413E
:102CE0001CB5002200928DF8001001920078054971
:102CF00040F00420044B48606A460448FDF7D4FDC8
:102D00001CBD00005005002048000020A00000204D
:102D1000FEF708BD30B593B030216846FDF71BFBC8
:102D200014210CA8FDF717FB1D480025016841F090
:102D300080510160006800F08050119019480168CE
:102D400041F4804101600068022400F48040119049
:102D50000120039010200490009406940820CDE9EF
:102D60000750A820CDE9090404200B906846FEF71F
:102D70005FFE08B172B6FEE70CA90F2081E83100B2
:102D80004FF4A0500F904FF48050109005210CA8E4
:102D9000FEF762FD002801D072B6FEE713B030BD29
:102DA00040380240007000400248016841F4700160
:102DB0000160704788ED00E0F0B50268294C2A4DAB
:102DC0002A4E2B4F2B4B4FF0804CA04209D0604530
:102DD00007D0A84205D0B04203D0B84201D09842F3
:102DE00004D122F0700E4A6842EA0E02A0421BD0C3
:102DF000604519D0A84217D0B04215D0B84213D0C0
:102E0000984211D01C4DA8420ED01C4DA8420BD0A8
:102E10001B4DA84208D01B4DA84205D01A4DA84210
:102E200002D01A4DA84203D122F44075CA682A4341
:102E30004D6922F080022A4302608A68C2620A68F1
:102E40008262A04201D0984201D109690163012147
:102E500041610169C90703D0016921F001010161E4
:102E6000F0BD0000000001400004004000080040E8
:102E7000000C0040000401400040014000440140BB
:102E80000048014000180040001C004000200040A5
:102E900010B5846842EA032224F47F440A432243A3
:102EA000826010BD826822F070020A4342F007017E
:102EB00081607047F0B5036A026A22F00102026283
:102EC00042688469124E24F073050C682C4323F089
:102ED00002058B682B430D4DA84201D0B04205D1AD
:102EE00023F00807CB683B4323F00403A84201D03A
:102EF000B04205D14D6922F4407215438A692A43D4
:102F000042608461496841630362F0BD0000014092
:102F100000040140F0B5026A036A23F01003036263
:102F2000436884690D6824F4E64444EA05248D6806
:102F300022F0200242EA05120F4D104EA84201D0A5
:102F4000B04206D1CF6822F0800242EA071222F096
:102F50004002A84201D0B04207D14D6923F440633A
:102F600043EA85038D6943EA8503436084614968C8
:102F700081630262F0BD00000000014000040140D6
:102F8000F0B5026A036A23F4807303624368C4697C
:102F900022F4007224F073050C68124E2C438D68E5
:102FA00042EA05220E4DA84201D0B04206D1CF68B8
:102FB00022F4006242EA072222F48062A84201D091
:102FC000B04207D14D6923F4405343EA05138D699C
:102FD00043EA05134360C4614968C1630262F0BDFE
:102FE000000001400004014030B5046A026A22F486
:102FF000805202624268C3690D6823F4E64343EAE3
:1030000005238D6824F4005444EA0534084DA84291
:1030100002D0084DA84204D14D6922F4804242EA10
:1030200085124260C36149680164046230BD0000DA
:10303000000001400004014070B5036800249A6854
:1030400022F070054A682A4322F007050A682A43DD
:103050009A604A6812F00F0F31D11211082A2ED24D
:10306000DFE802F02E2E2E2E0B2127040B69D1E96A
:1030700002210068FFF70CFF22E00A68052A10D041
:103080000268136A156A25F00105156202689569E0
:10309000096925F0F00545EA0111916100680362B4
:1030A0000EE0012070BD0A698968006800F00AF826
:1030B00006E00A698968006800F015F800E001245C
:1030C000204670BD10B5036A046A24F0010404624E
:1030D000846924F0F00444EA021423F00A020A434B
:1030E0008461026210BD10B5036A046A24F0100402
:1030F0000462846923F0A00324F4704444EA023299
:1031000043EA01118261016210BD01680C3151E88E
:10311000002F22F4907241E80023002BF5D10168C2
:10312000143151E8002F22F0010241E80023002B66
:10313000F5D1016B012909D101680C3151E8002F4B
:1031400022F0100241E80023002BF5D1202180F865
:10315000421000210163704770B5044600680169A0
:10316000E26821F44051114301612169A068E269DC
:1031700008436169114308432168CA6849F20C6336
:103180009A430243CA6020684169A26921F44071F0
:103190001143416131492068884202D03049884258
:1031A00002D1FEF703FC01E0FEF7F0FBE269002329
:1031B000192164253226B2F5004F626828D0A0FBA1
:1031C0000101930F9200FDF74FF80146B0FBF5F0B7
:1031D0006FF01802504301EB800006EB0010B0FBCB
:1031E000F5F000F0F002B1FBF5F002EB0012B1FBDC
:1031F000F5F06FF01803584301EB800006EB001068
:10320000B0FBF5F000F00F0021681044886070BD3D
:10321000A0FB010192185B41FDF726F80146B0FBC7
:10322000F5F00201B1FBF5F06FF01803584301EB24
:10323000800006EBC000B0FBF5F000F0F80002EBF8
:103240004002B1FBF5F0584301EB800006EBC000F3
:10325000B0FBF5F000F00700D6E7000000100140D9
:10326000001401402DE9F843984617460D460446E0
:10327000089E24E0701C22D0FEF734F9A0EB080071
:10328000B0421AD8CEB12068C168490717D5802D41
:1032900015D0402D13D00168C94309070FD4016828
:1032A0000025406800902046FFF72FFF082060644B
:1032B00084F840500120BDE8F8830320FBE7206834
:1032C000006835EA000004D00020B842D2D00020C7
:1032D000F1E70120F9E70000044B012804D00022A7
:1032E00010211846FEF7F9B80122F9E70004024060
:1032F000FEE70907090E002804DB00F1E02080F852
:103300000014704700F00F0000F1E02080F8141D59
:103310007047000010B520210E48FEF7D9F808B11B
:10332000042010BD0C4C01212046FEF7D1F808B155
:10333000032010BD4FF400710848FEF7C9F808B12A
:10334000012010BD02212046FEF7C2F80028F8D067
:10335000022010BD0008024000040240001002409C
:103360002DED028BFEF7E6F9FFF7D4FCFFF7E4F949
:10337000FFF7ACF9FFF724FBFFF72EF9FFF75EF933
:10338000FFF780F9FFF778FAFFF796FAFFF7B4FA3C
:10339000FFF7E4FAFFF756FBFFF770FBFFF78AFB36
:1033A000434C9FED448ADFED448A26E0FFF7E0FBC3
:1033B00001214248FFF774F801214048FFF790FCD3
:1033C00001213E48FFF7D9FB3C48FFF767FC3B482B
:1033D000FFF72AFC01213948FFF7CFFBB0EE480A7E
:1033E0003648FFF705FCB0EE680A3448FFF736FCB4
:1033F000B2EE080A3148FFF741FC3048FFF766FC9F
:103400000028D3D12D48FDF7B3F8B2EE040A2B48BB
:10341000FFF7EEFB21796088FFF7ABFBFFF77AFF40
:10342000C0B26070042803D101212448FFF758FC82
:103430006078032802D12148FFF730FC607801282A
:1034400030D120709FED1E8A1C48B0EE480AFFF76D
:10345000CFFB0120FFF740FFF2EE040AB0EE480A6E
:10346000164800F031F8D0B121796088FFF781FB70
:10347000C820FDF723FF21796088FFF77AFBC82079
:10348000FDF71CFF21796088FFF773FBC820FDF76B
:1034900015FF0020FFF720FF0020207002E02078B9
:1034A0000028D1D1012251030648FEF716F8A9E7FA
:1034B000000000200000000000004842C804002076
:1034C0000000DCC20008024030EE600A90ED061AEF
:1034D000B4EEC01AF1EE10FA01DB012070470020B3
:1034E000704701EE100A70EEC00A0122B8EE411AD0
:1034F0008A40521E20EE811A00EE902AF8EE601AE1
:10350000C1EE210A30EE800A7047000021F000422F
:10351000A2F16052B2F5801F01F0004328BFD2F142
:103520007F6C0BD95FEA001C43EAC20242EB507089
:1035300018BF704728BF20F001007047B2F5801F08
:10354000BCBF184670474FEA410C1CF5001F02D261
:10355000084600F022B970B500F0C6F800000089F6
:10356000FFF7F6BF4FF00040A0F580007047B0FABB
:1035700080F310FA03F10AD0C3F11D0303F5806351
:103580004FEA41504FEA035202EBD12170474FF00E
:1035900000007047DFF848C170B51CEA111E1EBF5D
:1035A0001CEA13159EEA0C0F95EA0C0F00F06F80D1
:1035B00081EA030423EA4C134EEAD47E21EA4C113B
:1035C00041F4801143F48013AE44A1FB024CA0FBF4
:1035D0000365AEF17F7E361955EB0C05A1FB034C5C
:1035E0004CF10003A0FB021C16EB0C06654153F1E5
:1035F0000003094218BF46F0010613F4007F0BD107
:103600004FEA03314FEA0530340341EA155140EAED
:1036100016506FF003020AE04FEAC3214FEAC520BB
:10362000F40241EA555140EA56506FF0020202EBB3
:103630002E4201EB025585EACE710AD05FEA440CB6
:1036400018BF24F0004450F1000041F1000120EACD
:10365000D47040F2FE7C624500D270BDA84214BF17
:103660004FF080444FF04044002E08BF0024BEF1CC
:10367000806FA8BFA1F1C041BDE8704080F2828098
:103680004FF0000001F1C04101F0004170479EEA97
:103690000C0F0CEA131518BF95EA0C0F06D04FF06B
:1036A000000081EA030E0EF0004170BD00F01CF82E
:1036B0008900013E00F007B800F009B84FEA430C5A
:1036C0005FEA5C5C08D081EA030100F05BB84FEA76
:1036D000410C5FEA5C5CF6D14FF000000149704795
:1036E0000000FF070000F87F0EF1020E2EF0030E1F
:1036F0005EF8046B364205D4012A43EB030515F549
:10370000001F12D8012841EB010C1CF5001F0CD83A
:103710000ED14FEAD17C15F5001F0CEB4C0C0CF1CF
:10372000020C08BF4CEBD37C04E04FF0080C01E026
:103730004FEAD37C0CEB4C0526FA05F606F007069B
:10374000B6F1040C06D20EEB860CBDE870404CF0CE
:10375000010C6047DFE80CF0090B02024FF000415A
:103760004FF00000A1F5002170BD19461046012858
:1037700051EB010418BFD4F5001484BF002001F000
:10378000004170BD0808A0F500114FEA31017047F3
:103790004FF04070E1EE100A7047FF2141EAD0502F
:1037A000C005704700061016000610160000000045
:1037B00000000000010203040607080900000000E1
:1037C00001020304E4370008000000205800000054
:1037D000C40100083C38000858000020700B0000AD
:1037E000E0010008000000000000000000000000F0
:1037F0000100000010000000000000000024F400A0
:10380000000000000000807F0000000000000000B9
:1038100000000000000000000000000000000000A8
:103820000000000000000000000000000000000098
:0C3830000000000000000000000000008C
:040000050800018965
:00000001FF
